:10000000020BD0020000000000000002000000000F
:1000100000000002000000000000000200000000DC
:0E0020000000000200000000000000020000CE
:02002E000022AE
:05003000C000C0012228
:10003500856386E5AA30E60AE5AA20E70280F98508
:0C0045006386E5AA20E70280F9A8862265
:100051007901E560098002C333D9FCF8850060C2EB
:1000610091430040E854FEF9A80EA60108A80CA986
:100071000D1130A80EA66108A80CA90D1130A80E0B
:10008100A66208A80CA90D1130D291112E112E11C2
:020091002E221D
:0C009300855D60756114855E621151226C
:10009F007901E55D098002C333D9FCF885005DC2A3
:1000AF0091430040E84401F9A80EA60108A80CA945
:1000BF000D1130A80EA65E08A80CA90D1130A80EC0
:1000CF00760008A80CA90D113085005FD291112E72
:0700DF00112E112EA85F2273
:1000E600851A5D755E14119FE55B64FFF9E859F5A5
:0700F6005E851A5D119322E3
:0900FD00855B5D755E13119F2205
:10010600851A5D755E14119FE8455BF55E851A5D7F
:0301160011932220
:0C011900855B60756101855C62115122FC
:0C012500855960756115855A62115122E0
:1001310085135B3106851A5B755CFF311985195B87
:1001410011E6851A5B11FDE85403F964036002802E
:07015100F185195B31062264
:100158003131851A5B755C003119851A5985585AF1
:0D0168003125851B5B11E6851B5B310622EE
:10017500E88CF0A4AFF0C88DF0A42FC98CF0A429A9
:02018500F9225D
:10018700BD000BB90029E88CF084F8ACF022E4CD6F
:10019700FF75F008E828F8E933F9ED33FDE99CED40
:1001A7009F4005FDE99CF908D5F0E9E4C9FC22EC7C
:1001B700FFF5F0E98420D21CF9ACF075F008E828C7
:1001C700F8EC33FC40079F5006D5F0F222C39FFCA2
:0501D70008D5F0EA224A
:1001DC0085135B11E6851A5B755C003119851A591C
:1001EC0085585A3125851B5B11E6851B5B31062230
:1001FC00803C75F008758200E828F8E933F9CA33B9
:10020C00CACB33CBC58233C5829CEA9DEB9EE5827B
:10021C009F400CF582E99CF9EA9DFAEB9EFB08D510
:10022C00F0D6E4C9FCE4CAFDE4CBFEAF8222EF6059
:10023C000280BFEE6002805BED6002802DEB8CF0E3
:10024C0084C8C9CAFBE5F0CCFE7F18E828F8E9336E
:10025C00F9EA33FAEB33FBEC33FC10D7039E400482
:10026C00EC9EFC08DFE5E4FEFD227F18E828F8E9A7
:10027C0033F9EA33FAEB33FBCE33CE10D7059CEED1
:10028C009D4007EB9CFBEE9DFE08DFE0E4CEFDE419
:10029C00CBFC2275F010E828F8E933F9EA33FACBF5
:1002AC0033CBCF33CF10D7079CEB9DEF9E400AEAA0
:1002BC009CFAEB9DFBEF9EFF08D5F0DAE4CAFCE458
:0602CC00CBFDE4CFFE2291
:1002D200A852790085005485515831DC8554583133
:0702E200DC8553583158225E
:1002E900C3E5519508E5529509400122C3E55395A7
:1002F90011E5549512400122C3E55194007400643C
:1003090080F8E552648098500122C3E55394007443
:10031900006480F8E554648098500122AC0AAD0B62
:10032900A851A9523187850056A853A954AC0FADDD
:10033900103175E55628F8E439F9E82520FAE93548
:1003490021FBA803790085005785025831DC8557C0
:100359005831DC755824315874F04555F558AC0AB4
:10036900AD0BA851A9523187A804A905C3E50A987C
:0C037900F97801C3E998F8425831582285
:100385007C687D01A851A9523187A804A90585007B
:1003950051850152D3E894B4E99400401275530194
:1003A500C3E55194B4F551E5529400F552800375B7
:1003B5005300D3E551945AE5529400400DC374B4EB
:1003C5009551F55174009552F5527A01A952E551AE
:1003D5000A8005C333C933C9DAF9F874FD28FA74FC
:1003E5002339FB850282850383E493F8E4A393F91B
:1003F500850054850155E553600CC374009554F888
:0B04050074009555F922A854A9552257
:10041000C2D5EF30E70FB2D5E4C39CFCE49DFDE408
:100420009EFEE49FFFEB30E717B2D512044612019F
:10043000FCE4C39CFCE49DFDE49EFEE49FFF80037E
:100440001201FC30D50DE4C398F8E499F9E49AFA66
:05045000E49BFB2222E9
:0F045500745A253CF5517400353DF552718522DE
:10046400EF88F0A4CB8CF0A42BFBEE89F0A42BFB3B
:100474008DF0EAA42BFBED89F0A4CAAFF08CF0A4B4
:100484002ACB3F25F0FAEE88F0A42BCA35F0FBEC1A
:1004940089F0A4F9AEF0EC88F0A4C8C5F029CA3EEE
:0F04A400F9E43BFBEDA42AC935F0FAE43BFB2257
:0C04B300853C60756100853D621151229E
:1004BF00D290D291C290112E112ED290112EC291A4
:1004CF00A80E764008A80CA90D1130A80E760A08C0
:1004DF00A80CA90D1130A80E760808A80CA90D11AB
:0A04EF0030D291112E112E112E2291
:1004F900C3E542953EF9E543953FFA8501498502F1
:100509004AC3E540953CF54BE541953DF54CC3E9BA
:10051900940074006480F8EA6480985015C37400EC
:100529009549F5497400954AF54A754FFF7550FF8D
:100539008006754F01755000C3E54B940074006443
:1005490080F8E54C6480985015C37400954BF54BC1
:100559007400954CF54C754DFF754EFF8006754D31
:1005690001754E007801E549088007C333C54A3350
:10057900C54AD8F7F5497801E54B088007C333C563
:100589004C33C54CD8F7F54B853C51853D52853EDA
:1005990053853F5485445551E9D3E54B9549E54A7F
:1005A9006480F8E54C6480985002C1397A01E54CC1
:1005B900A84B0A8006A2E713C813C8DAF8F9C3E5FD
:1005C9004998F545E54A99F546E53C65407004E5E5
:1005D9003D65416059C3E545940074006480F8E5C0
:1005E900466480984019E53E254FF53EE53F355074
:1005F900F53FC3E545954BF545E546954CF546E58B
:100609003C254DF8E53D354EF985003C85013DE534
:10061900452549F545E546354AF5468500518501A3
:1006290052853E53853F5485445551E9809BC1BB52
:100639007A01E54AA8490A8006A2E713C813C8DA6D
:10064900F8F9C3E54B98F547E54C99F548E53E655A
:10065900427004E53F65436059C3E547940074005F
:100669006480F8E5486480984019E53C254DF53CDF
:10067900E53D354EF53DC3E5479549F547E54895CF
:100689004AF548E53E254FF8E53F3550F985003EE6
:1006990085013FE547254BF547E548354CF5488544
:1006A9003C51853D5285005385015485445551E996
:0306B900809B2201
:0A06BC007EA37F1EDFFEDEFC00229D
:1006C6007541007542003131E520253DF551E521A2
:1006D600353EF55275532451D27558B031588513AD
:1006E6005B11E6851A5B755C003119C3E541953FE0
:1006F600E54295405020851A59853C5A3125851B7F
:100706005B11E6851B5B310674012541F5417400DA
:0C0716003542F54280D57558B2315822AA
:10072200750C35750D00750E637516FF7517FF751F
:0D07320018FF8529D5D3E5D592E6F5D5222F
:10073F00852D1A852D3C91BF852908852A09852B82
:10074F0011E4F512852C0AE4F50BAC0AAD0BA829C0
:10075F00A92A318785000F850110AC11AD123175B3
:10076F0085001E85011F7A03E512A8110A8005C3B3
:10077F0013C813C8DAF9F9AC0FAD10317585001C29
:10078F0085011DA82E7401088002C333D8FCF51B08
:10079F00A82F7401088002C333D8FCF519A8307450
:1007AF0001088002C333D8FCF513A8317401088007
:1007BF0002C333D8FCF532851A5D755E14119FE8BC
:1007CF005480F55EE51B4519F8E5134200E532420A
:1007DF0000E8425E851A5D1193851A59755A0031EA
:1007EF0025851A5D755E00119FE85480F53D851AC9
:1007FF003C1204B3851A5B755CFF12011985325BDD
:10080F001200E61206BC85325B1201061206BC7599
:10081F005881120158AC2CE4FDA808A909120187D0
:10082F008500518501527553431202D2850F5185B0
:10083F0010527553411202D2E51E251CF53FE51FDC
:10084F00351DF540752000752100851E14851F1577
:10085F00753C00753D00753E001206C675229075F9
:10086F0051007552007553421202D2851E51851FD9
:08087F00527553401202D2220F
:08088700E493F608A3D9F9225D
:10088F0085293C852A3D852B3E852C3F852D40852E
:10089F002E41852B42852C438531441204F9852D39
:1008AF003C852E3D852B3E852C3F852D40852E4149
:1008BF00852F428530438531441204F9852D3C85BF
:1008CF002E3D852F3E85303F852940852A41852F36
:1008DF00428530438531441204F985293C852A3DF0
:1008EF00852F3E85303F852940852A41852B4285BE
:0908FF002C438531441204F92256
:10090800D3E529952DE52E6480F8E52A6480985072
:100918002C85293C852A3D852B3E852C3F85294001
:10092800852A41852F428530438531441204F97464
:0E093800012529F5297400352AF52A80C322ED
:10094600753A00753B00D3E53A946874016480F803
:10095600E53B6480984002410E853A51853B521230
:100966000385E933E495E0FAFBAC2DAD2EAE2FAF4F
:10097600301204647CE87D037E00750700120410C3
:10098600AC29AD2AEC28F532ED39F533853A3C85AC
:100996003B3D120455E933E495E0FAFBAC2DAD2E50
:1009A600AE2FAF301204647CE87D037E007507002D
:1009B600120410AC2BAD2CEC28F534ED39F535D3FB
:1009C600E53A940074006480F8E53B648098401E24
:1009D60085363C85373D85383E85393F85324085AD
:1009E60033418534428535438531441204F98532D5
:1009F600368533378534388535397401253AF53AE5
:090A06007400353BF53B214C2244
:100A0F008529581201DC852A581201DC75582112EC
:030A1F0001582259
:100A2200752B00752C0012013185205185215275DC
:100A320053241202D27558B012015885135B12006A
:100A4200E6851A5B755C00120119C3E52B951EE55C
:100A52002C951F5038851A59852982852A83E4935B
:100A6200F885005A12012574012529F529740035EB
:100A72002AF52A851B5B1200E6851B5B12010674B0
:100A820001252BF52B7400352CF52C80BD7558B241
:040A920012015822D3
:100A9600753300753400AC0AAD0BA829E4F91201D0
:100AA6008785002F850130A82AE4F9AC0FAD101216
:100AB6000175E8252FF533E93530F534E533252082
:100AC600F533E5343521F534E52D5407F9D3E994AA
:100AD60000401C7803E52D088002C313D8FCF52DD1
:100AE600052D7803E52D088002C333D8FCF52DA823
:100AF6002E152EE870026188120131853351853436
:100B0600527553241202D27558B012015885135BE0
:100B16001200E6851A5B755C0012011975310075C5
:100B26003200AC0AAD0BA82DE4F9120187C3E531FA
:100B360098E532995038851A59852B82852C83E49D
:100B460093F885005A1201257401252BF52B7400A4
:100B5600352CF52C851B5B1200E6851B5B12010606
:100B660074012531F53174003532F53280B475588B
:100B7600B2120158E533250FF533E5343510F53457
:030B860041F52214
:100B8900852C58120158A82BE4F9AC0FAD101201AD
:100B990075E52A28F551E439F552E5512514F55141
:100BA900E5523515F5527553241202D2A829E6608B
:100BB90015A829C3E69420F5581201DC05297558B2
:070BC900C012015880E62272
:100BD0007581BC7582B37583247880793C118775E3
:100BE00029101207227529F0752A00752B80752CA3
:100BF00008752D00752E02752F01753000753104B2
:100C000012073F7D077E567F3CDFFEDEFCDDFAD318
:100C1000E52292E3F522852258120158D3E522926B
:100C2000E2F52285225812015875230075240075BB
:100C3000270075280075250075260075299E752AE0
:100C400000752B00752C817189752980752A0075B6
:100C50002B0F752C8171897558A7120158752900C1
:100C6000752A00510FC3E52292E1F5228522581220
:100C70000158752900752A00752B00752C00752DFB
:100C8000EF752E00752F7F753000753108118F7547
:100C90002914752A00752B14752C00752DDB752E03
:100CA00000752F6B753000753108118F7529287507
:100CB0002A00752B28752C00752DC7752E00752FF1
:100CC00057753000753108118F75293C752A0075EC
:100CD0002B3C752C00752DB3752E00752F43753088
:100CE00000753108118F753C00753D00753E00752B
:100CF0003F007540EF75410075427F7543007544B4
:100D0000081204F9753C00753D00753E7F753F0083
:100D10007540EF7541007542007543007544081237
:100D200004F9752900752A00752B00752C00752DA6
:100D3000EF752E00752F0875300075310831087574
:100D40002900752A00752B77752C00752DEF752EEF
:100D500000752F7F75300075310831087529787559
:100D60002A00752B40752C00752D0A752E00752FE5
:100D7000007530007531083146752978752A00757F
:100D80002B40752C00752D1E752E00752F007530AB
:100D9000007531083146752978752A00752B407524
:100DA0002C00752D32752E00752F007530007531B1
:100DB000083146752978752A00752B40752C007509
:100DC0002D46752E00752F0075300075310831469F
:100DD000752978752A00752B40752C00752D5A756C
:100DE0002E00752F00753000753108314675297851
:100DF000752A00752B40752C00752D6E752E0075AB
:100E00002F007530007531083146752978752A0034
:100E1000752B40752C00752D82752E00752F007571
:100E20003000753108314675294C752A04752BE060
:100E3000752C1E752D58752E775196E51E251CF5BF
:100E400020E51F351DF5217529E0752A0F51222057
:100E50008029D3E52292E3F522852258120158C356
:100E6000E52292E2F5228522581201587D027EE7A2
:100E70007F5DDFFEDEFCDDFA00E1802081340523AA
:100E8000E5235401FC850423E51E251CF8E51F35E8
:100E90001DF9E4FD1201758500518501527553421B
:100EA0001202D27D027EE77F5DDFFEDEFCDDFA000E
:100EB000E180208229C3E52292E3F522852258129F
:100EC0000158D3E52292E2F5228522581201587D7D
:100ED000027EE77F5DDFFEDEFCDDFA00E18020833D
:100EE00029D3E52292E3F522852258120158D3E551
:100EF0002292E2F5228522581201587D027EE77F78
:100F00005DDFFEDEFCDDFA00E180308402E1800579
:100F100024E524640370037524008047C3E522920E
:100F2000E1F5228522581201588048D3E52292E14A
:100F3000F522852258120158D3E52292E0F5228548
:100F40002258120158802CD3E52292E1F522852205
:100F500058120158C3E52292E0F522852258120169
:100F6000588010E52460B5E524640160BEE5246482
:100F70000260D47D027EE77F5DDFFEDEFCDDFA00ED
:100F800074012525F52574003526F526E525650F20
:100F90007004E52665107033752500752600740110
:100FA0002527F52774003528F5287803E512A911BF
:100FB000088005C313C913C9D8F9FAE52769700376
:100FC000E5286A700675270075280085252985277C
:100FD0002A510F7EA37F1EDFFEDEFC00C14F80FE84
:100FE000FFFFFFFFFFFFFFFFFFFFFFFFFFFFFFFF11
:100FF000FFFFFFFFFFFFFFFFFFFFFFFFFFFFFFFF01
:10100000FFFFFFFFFFFFFFFFFFFFFFFFFFFFFFFFF0
:10101000FFFFFFFFFFFFFFFFFFFFFFFFFFFFFFFFE0
:10102000FFFFFFFFFFFFFFFFFFFFFFFFFFFFFFFFD0
:10103000FFFFFFFFFFFFFFFFFFFFFFFFFFFFFFFFC0
:10104000FFFFFFFFFFFFFFFFFFFFFFFFFFFFFFFFB0
:10105000FFFFFFFFFFFFFFFFFFFFFFFFFFFFFFFFA0
:10106000FFFFFFFFFFFFFFFFFFFFFFFFFFFFFFFF90
:10107000FFFFFFFFFFFFFE0000000000003FFFFF3B
:10108000FFFFFFFFFFFFFFFFFFFFFFFFFFFFFFFF70
:10109000FFFFFFFFFC0000000000001FFFFFFFFF3D
:1010A000FFFFFFFFFFFFFFFFFFFFFFFFFFFFFFFF50
:1010B000FFFFF80000000000001FFFFFFFFFFFFF21
:1010C000FFFFFFFFFFFFFFFFFFFFFFFFFFFFFFFF30
:1010D000F80000000000000FFFFFFFFFFFFFFFFF11
:1010E000FFFFFFFFFFFFFFFFFFFFFFFFFFFFF80016
:1010F00000000000000FFFFFFFFFFFFFFFFFFFFFEB
:10110000FFFFFFFFFFFFFFFFFFFFFFFFF807F001FB
:10111000FFE0000FFFFFFE187FFFFFF80E1FFF87A5
:10112000FFFFFFFFFFF861FFFFFFF80FF803FFF875
:10113000000FFFFFFE187FFFFFF80E1FFF87F0FF75
:10114000FFFFFFF861FFFFFFF81FF80FFFFE000F22
:10115000FFFFFFF87FFFFFF80E1FFF87F0FFFFFF85
:10116000FFFFE1FFFFFFF81C181FFFFF000FF086D5
:101170001E186109E0F80E1E0F8610E13C1F0C38A6
:10118000618703FFF818383FFFFF800FF000061853
:101190006301C0387E1C0386202038070018618E4A
:1011A00001FFF81FF87FFFFFC00FF0000618430192
:1011B000C0187E180384202038030018610C00FF3B
:1011C000F81FF87FFFFFE00FF0E386184301861851
:1011D0007E18618430E030C30E18610C70FFF80790
:1011E000F0FFF1FFE00FF0E38618470786180E18AE
:1011F000618470E0F0C30E18611C70FFF81801FFE5
:10120000F0FFF00FF0E38618070F86180E18018024
:1012100070E1F0C30E18601C70FFF81C01FFE0FFC6
:10122000F00FF0E386180F0F86180E180180F0E11A
:10123000F0C30E18603FC0FFF80E01FFE0FFF80F8B
:10124000F0E38618070F86180E18018070E1F0C3CE
:101250000E18601F00FFF80701FFE0FFF80FF0E332
:101260008618070F86187E187F8070E1F0C30E186D
:10127000601E10FFF81FF9FFE0FFF80FF0E386187B
:10128000470F86187E18618470E1F0C30E18611C48
:1012900070FFF81FF9FFE0FFF80FF0E38618470F23
:1012A00086187E18618470E1F0C30E18611C70FF0F
:1012B000F81FF9FFE0FFF80FF0E38618430F8618D8
:1012C0007E18618430E1F0C30E18610C70FFF800E5
:1012D00001FFE0FFF80FF0E38618430F86180618A9
:1012E000618430E1F0C30E18610C70FFF80001FF5B
:1012F000FFFFF80FF0E38618630F803806180386A7
:101300003021F0070E18618C00FFF81E79FFFFFFF7
:10131000F80FF0E38618610FC038061C0386102111
:10132000F8070E18618400FFF81E79FFFFFFF80F21
:10133000F0E38618610FE078061F07861821FC0F7E
:101340000E18618610FFF80641FFFFFFF80FFFFF40
:10135000FFFFFFFFFFFFFFFFFFFFFFFFFFFFFFFF9D
:10136000FFFFFFFFF807F9FFFFFFF80FFFFFFFFF89
:10137000FFFFFFFFFFFFFFFFFFFFFFFFFFFFFFFF7D
:10138000FFFFF81FF9FFFFFFF80FFFFFFFFFFFFF51
:10139000FFFFFFFFFFFFFFFFFFFFFFFFFFFFFFFF5D
:1013A000F81FF9FFE000000FFFFFFFFFFFFFFFFF47
:1013B000FFFFFFFFFFFFFFFFFFFFFFFFFFFFF80043
:1013C00001FFE000000FFFFFFFFFFFFFFFFFFFFF38
:1013D000FFFFFFFFFFFFFFFFFFFFFFFFF80001FF21
:1013E000E000000FFFFFFFFFFFFFFFFFFFFFFFFF1A
:1013F000FFFFFFFFFFFFFFFFFFFFF817F9FFE07F91
:10140000F80FFFFFFFFFFFFFFFFFFFFFFFFFFFFFE3
:10141000FFFFFFFFFFFFFFFFF817F9FFE07FF80F67
:10142000FFFFFFFFFFFFFFFFFFFFFFFFFFFFFFFFCC
:10143000FFFFFFFFFFFFF817F9FFE07FF80FFFFF47
:10144000FFFFFFFFFFFFFFFFFFFFFFFFFFFFFFFFAC
:10145000FFFFFFFFF80001FFE07FF80FFFFFFFFF36
:10146000FFFFFFFFFFFFFFFFFFFFFFFFFFFFFFFF8C
:10147000FFFFF80001FFE07FF80FFFFFFFFFFFFF16
:10148000FFFFFFFFFFFFFFFFFFFFFFFFFFFFFFFF6C
:10149000F81FF9FFE07FF80FFFFFFFFFE0FFFFFFFE
:1014A000FFFFFF0C3FFFFFFFFFFFFFFFFFFFF81FE6
:1014B000F9FFE07FF80FFFFFFFFF807FFFFFFFFFD7
:1014C000FF0C3FFFFFFFFFFFFFFFFFFFF81FF9FFCC
:1014D000E07FF80FFFFFFFFF803FFFFFFFFFFFFCF4
:1014E0003FFFFFFFFFFFFFFFFFFFF81801FFE07F57
:1014F000F80FFFFFFFFF0C3E0F8430F0870C3C1FFE
:1015000009E0FFFFFFFFFFFFF81800FFE07FF80F83
:10151000FFFFFFFF0C3C03800030030C380701C0C5
:101520007FFFFFFFFFFFF81FFCFFE07FF00FFFFFD3
:10153000FFFF0C3C01800030030C300701803FFFAF
:10154000FFFFFFFFF81FFCFFFFFFF00FFFFFFFFF94
:101550000C3861871C30C30C30C301873FFFFFFF8D
:10156000FFFFF818007FFFFFE00FFFFFFFFF0C38C1
:1015700061871C30C30C30C307873FFFFFFFFFFFAD
:10158000F818003FFFFFC00FFFFFFFFF0FF8618754
:101590001C30C30C30030F87FFFFFFFFFFFFF8185D
:1015A000001FFFFFC00FFFFFFFFF0FF861871C3018
:1015B000C30C30030F81FFFFFFFFFFFFF81FFE0F7B
:1015C000FFFF000FFFFFFFFF0FF861871C30C30C08
:1015D00030030FC0FFFFFFFFFFFFF81FFF87FFFC77
:1015E000000FFFFFFFFF0C3861871C30C30C30FF7A
:1015F0000FE07FFFFFFFFFFFF80FFF81FFF0000FFD
:10160000FFFFFFFF0C3861871C30C30C30C30FF89D
:101610003FFFFFFFFFFFF80000000000000FFFFF8B
:10162000FFFF0C3861871C30C30C30C30FFC3FFF39
:10163000FFFFFFFFF80000000000000FFFFFFFFFAB
:101640000C3861871C30C30C30C30F9C3FFFFFFF79
:10165000FFFFF80000000000000FFFFFFFFF0C3845
:1016600061871C30C30C30C30F9C3FFFFFFFFFFF9F
:10167000FC0000000000001FFFFFFFFF80780387D1
:101680001C30030C30070F803FFFFFFFFFFFFE0001
:1016900000000000003FFFFFFFFF807C03871C303D
:1016A000030C38070FC07FFFFFFFFFFFFF000000A4
:1016B000000000FFFFFFFFFFC1FE07871C30870C03
:1016C0003E0F0FE0FFFFFFFFFFFFFFFFFFFFFFFFEA
:1016D000FFFFFFFFFFFFFFFFFFFFFFF0FFFFFFFF29
:1016E000FFFFFFFFFFFFFFFFFFFFFFFFFFFFFFFF0A
:1016F000FFFFFFFFFFFFFFFFFFF0FFFFFFFFFFFF09
:10170000FFFFFFFFFFFFFFFFFFFFFFFFFFFFFFFFE9
:10171000FFFFFFFFFFFFFFFFFFFFFFFFFFFFFFFFD9
:10172000FFFFFFFFFFFFFFFFFFFFFFFFFFFFFFFFC9
:10173000FFFFFFFFFFFFFFFFFFFFFFFFFFFFFFFFB9
:10174000FFFFFFFFFFFFFFFFFFFFFFFFFFFFFFFFA9
:10175000FFFFFFFFFFFFFFFFFFFFFFFFFFFFFFFF99
:10176000FFFFFFFFFFFFFFFFFFFFFFFFFFFFFFFF89
:10177000FFFFFFFFFFFFFFFFFFFFFFFFFFFFFFFF79
:10178000FFFFFFFFFFFFFFFFFFFFFFFFFFFFFFFF69
:10179000FFFFFFFFFFFFFFFFFFFFFFFFFFFFFFFF59
:1017A000FFFFFFFFFFFFFFFFFFFFFFFFFFFFFFFF49
:1017B000FFFFFFFFFFFFFFFFFFFFFFFFFFFFFFFF39
:1017C000FFFFFFFFFFFFFFFFFFFFFFFFFFFFFFFF29
:1017D000FFFFFFFFFFFFFFFFFFFFFFFFFFFFFFFF19
:1017E000FFFFFFFFFFFFFFFFFFFFFFFFFFFFFFFF09
:1017F000FFFFFFFFFFFFFFFFFFFFFFFFFFFFFFFFF9
:10180000FFFFFFFFFFFFFFFFFFFFFFFFFFFFFFFFE8
:10181000FFFFFFFFFFFFFFFFFFFFFFFFFFFFFFFFD8
:10182000FFFFFFFFFFFFFFFFFFFFFFFFFFFFFFFFC8
:10183000FFFFFFF807FFFFFFFFF87FFFFFFFFFFF3E
:10184000FFFFFFFFFFFFFFFFFFFFFFFFFFFFFFFFA8
:10185000FFF803FFFFFFFFF87FFFFFFFFFFFFFFF22
:10186000FE1FFFFFFFFFE1FFFFFFFFFFFFFFFFF88E
:1018700001FFFFFFFFF87FFFFFFFFFFFFFFFFE1FDE
:10188000FFFFFFFFE1FFFFFFFFFFFFFFFFF861F03A
:101890007870E0F8783E10E10C3F07C30E1FF0703F
:1018A000E1C1E1F07C2187E0FFFFFFF861E0187003
:1018B000C038700E0060000E01C00407E030E18007
:1018C000C0601C0001C07FFFFFF861C01870803845
:1018D00070060060000C01C00407C018E30040401F
:1018E0001C0001803FFFFFF861C308708618618605
:1018F0001861C70C30C3861FC398E30E61C30C3850
:10190000E1873FFFFFF861C30C718618618618619B
:10191000C70C30C3861FC398E30E61C30C38E18740
:101920003FFFFFF861C00C21801861861861C70C69
:1019300000C3861FC3F8430FE1C00C38E187FFFFE7
:10194000FFF861C00C21801861861861C70C00C3C4
:10195000861FC0F84303E1C00C38E181FFFFFFF8A8
:1019600061C00C21801861861861C70C00C3861FF6
:10197000E07C4381E1C00C38E1C0FFFFFFF861C3A8
:10198000FC2187F861861861C70C3FC3861FF03CB5
:1019900043C0E1C3FC38E1E07FFFFFF861C30C21E5
:1019A000861861861861C70C30C3861FFC1C43F083
:1019B00061C30C38E1F83FFFFFF861C30C218618C2
:1019C00061861861C70C30C3861FFE1C47F861C3CF
:1019D0000C38E1FC3FFFFFF861C30C2186186186DB
:1019E0001861C70C30C3861FCE1E473861C30C3840
:1019F000E19C3FFFFFF861C30E23861861861861E2
:101A0000C70C30C3861FCE1E073861C30C38E19C5B
:101A10003FFFFFF801C01E038038600E0061C70C55
:101A200001C38607C01E070060401C38E1803FFFED
:101A3000FFF801E01E03C038700E0061C70E01C33D
:101A40008607E03E0780E0601C38E1C07FFFFFF8BA
:101A500003F83E03F078781E10E1C70F83C38707B1
:101A6000F07807C1F0783C38E1E0FFFFFFFFFFFFAF
:101A7000FFFFFFFFFFFE1FFFFFFFFFFFFFFFFFF85E
:101A80000FFFFFFFFFFFFFFFFFFFFFFFFFFFFFFF56
:101A9000FFFFFFFE1FFFFFFFFFFFFFFFFFF81FFF1E
:101AA000FFFFFFFFFFFFFFFFFFFFFFFFFFFFFFFF46
:101AB000FFFFFFFFFFFFFFFFFFFFFFFFFFFFFFFF36
:101AC000FFFFFFFFFFFFFFFFFFFFFFFFFFFFFFFF26
:101AD000FFFFFFFFFFFFFFFFFFFFFFFFFFFFFFFF16
:101AE000FFFFFFFFFFFFFFFFFFFFFFFFFFFFFFFF06
:101AF000FFFFFFFFFFFFFFFFFFFFFFFFFFFFFFFFF6
:101B0000FFFFFFFFFFFFFFFFFFFFFFFFFFFFFFFFE5
:101B1000FFFFFFFFFFFFFFFFFFFFFFFFFFFFFFFFD5
:101B2000FFFFFFFFFFFFFFFFFFFFFFFFFFFFFFFFC5
:101B3000FFFFFFFFFFFFFFFFFFFFFFFFFFFFFFFFB5
:101B4000FFFFFFFFFFFFFFFFFFFFFFFFFFFFFFFFA5
:101B5000FFFFFFFFFFFFFFFFFFFFFFFFFFFFFFFF95
:101B6000FFFFFFFFFFFFFFFFFFFFFFFFFFFFFFFF85
:101B7000FFFFFFFFFFFFFFFFFFFFFFFFFFFFFFFF75
:101B8000FFFFFFFFFFFFFFFFFFFFFFFFFFFFFFFF65
:101B9000FFFFFFFFFFFFFFFFFFFFFFFFFFFFFFFF55
:101BA000FFFFFFFFFFFFFFFFFFFFFFFFFFFFFFFF45
:101BB000FFFFFFFFFFFFFFFFFFFFFFFFFFFFFFFF35
:101BC000FFFFFFFFFFFFFFFFFFFFFFFFFFFFFFFF25
:101BD000FFFFFFFFFFFFFFFFFFFFFFFFFFFFFFFF15
:101BE000FFFFFFFFFFFFFFFFFFFFFFFFFFFFFFFF05
:101BF000FFFFFFFFFFFFFFFFFFFFFFFFFF007FFF74
:101C0000FFF87FFFFFFFFFFFFFFFFFFFFFFFFFFF6B
:101C1000FFFFFFFFFFFFFFFFFFFFFF003FFFFFF89A
:101C20007FFFFFFFFFFFFFFFFFFFFFFFFFFFFFFF44
:101C3000FFFFFFFFFFFFFFFFFF0C3E0FE0F861C15A
:101C4000FFFFFFFFFFFFFFFFFFFFFFFFFFFFFFFFA4
:101C5000FFFFFFFFFFFFFF0C3C03C0386380FFFF67
:101C6000FFFFFFFFFFFFFFFFFFFFFFFFFFFFFFFF84
:101C7000FFFFFFFFFF0C3C01C01843007FFFFFFF89
:101C8000FFFFFFFFFFFFFFFFFFFFFFFFFFFFFFFF64
:101C9000FFFFFF0038618618430E7FFFFFFFFFFF45
:101CA000FFFFFFFFFFFFFFFFFFFFFFFFFFFFFFFF44
:101CB000FF00F8618618470E7FFFFFFFFFFFFFFF61
:101CC000FFFFFFFFFFFFFFFFFFFFFFFFFFFFFF0023
:101CD00078618618070FFFFFFFFFFFFFFFFFFFFF81
:101CE000FFFFFFFFFFFFFFFFFFFFFFFFFF00386168
:101CF00086180F03FFFFFFFFFFFFFFFFFFFFFFFF40
:101D0000FFFFFFFFFFFFFFFFFFFFFF0C386186189B
:101D10000781FFFFFFFFFFFFFFFFFFFFFFFFFFFF49
:101D2000FFFFFFFFFFFFFFFFFF0C3861861807C0B2
:101D3000FFFFFFFFFFFFFFFFFFFFFFFFFFFFFFFFB3
:101D4000FFFFFFFFFFFFFF0C3861861847F07FFFA2
:101D5000FFFFFFFFFFFFFFFFFFFFFFFFFFFFFFFF93
:101D6000FFFFFFFFFF0C3861861847F87FFFFFFF7A
:101D7000FFFFFFFFFFFFFFFFFFFFFFFFFFFFFFFF73
:101D8000FFFFFF0C3861861843387FFFFFFFFFFF1E
:101D9000FFFFFFFFFFFFFFFFFFFFFFFFFFFFFFFF53
:101DA000FF0C3861861843387FFFFFFFFFFFFFFFFE
:101DB000FFFFFFFFFFFFFFFFFFFFFFFFFFFFFF0032
:101DC0003803803863007FFFFFFFFFFFFFFFFFFF47
:101DD000FFFFFFFFFFFFFFFFFFFFFFFFFF007C0391
:101DE000C0386180FFFFFFFFFFFFFFFFFFFFFFFF26
:101DF000FFFFFFFFFFFFFFFFFFFFFF007E07E07811
:101E000061C1FFFFFFFFFFFFFFFFFFFFFFFFFFFFBE
:101E1000FFFFFFFFFFFFFFFFFFFFFFFFFFFFFFFFD2
:101E2000FFFFFFFFFFFFFFFFFFFFFFFFFFFFFFFFC2
:101E3000FFFFFFFFFFFFFFFFFFFFFFFFFFFFFFFFB2
:101E4000FFFFFFFFFFFFFFFFFFFFFFFFFFFFFFFFA2
:101E5000FFFFFFFFFFFFFFFFFFFFFFFFFFFFFFFF92
:101E6000FFFFFFFFFFFFFFFFFFFFFFFFFFFFFFFF82
:101E7000FFFFFFFFFFFFFFFFFFFFFFFFFFFFFFFF72
:101E8000FFFFFFFFFFFFFFFFFFFFFFFFFFFFFFFF62
:101E9000FFFFFFFFFFFFFFFFFFFFFFFFFFFFFFFF52
:101EA000FFFFFFFFFFFFFFFFFFFFFFFFFFFFFFFF42
:101EB000FFFFFFFFFFFFFFFFFFFFFFFFFFFFFFFF32
:101EC000FFFFFFFFFFFFFFFFFFFFFFFFFFFFFFFF22
:101ED000FFFFFFFFFFFFFFFFFFFFFFFFFFFFFFFF12
:101EE00000000000000000000000000000000000F2
:101EF00000000000000000000000000000000000E2
:101F000000000000000000000000000000000000D1
:101F100000000000000000000000000000000000C1
:101F2000000000000000001200000000000000009F
:101F3000000033000000000000000000007B800073
:101F4000000000000000001FFF80000000000000F3
:101F50000027FFFFC000000000000000067FFFE038
:101F6000000000000000001FFFFFE08000000000F4
:101F70000000FFFFFFE780000000000000BFFFFF40
:101F8000FFF40000000000017FFFFFFFFC000000E5
:101F9000000000FFFFFFFFFF800000000000FFFFC8
:101FA000FFFFFFC00000000003FFFFFFFFFFE00096
:101FB0000000000BFFFFFFFFFFF0000000000FFF1D
:101FC000FFFFFFFFFF0000000187FFFFFFFFFFFF94
:101FD0008000000007FFFFFFFFFFFE000000001F62
:101FE000FFFFFFFFFFFF000000207FFFFFFFFFFF5D
:101FF000FF000001C07FFFFFFFFFFFFF8000000028
:102000007FFFFFDFFFFFFFC00000000BFFFFBFFFF0
:10201000FFFF8000000003FFFFFFFFFFFFC0000085
:102020000000FFFFFFFFFFFFE00001E0001FFFFFD8
:10203000FFFFFFF80007C00005FFFFFFFFFFF000F4
:102040000FF00007FFFFFFFFFFE0001FF0000FFF92
:10205000FFFFFFFFF0001FE00307FFFFFFFFFFE0B0
:10206000001FE0040FFFFFFFFFFFF00011C0001F83
:10207000FFFFFFFFFFF8000800001FFFFFFFFFFF4B
:10208000FC001C000187FFFFFFFFFFFE001E000099
:102090000FFFFFFFFFFFFE001F000007FFFFFFFF16
:1020A000FFFF003F800007FFFFFFFFFFFF003FC073
:1020B000000FFFFFFFFFFFFE003FC00001FFFFFF1B
:1020C000FFFFFE003FC0000FFFFFFFFFFFFC007F90
:1020D000C00007FFFFFFFFFFFE007F00000FFFFFB4
:1020E000FFFFFFFF007D000003FFFFFFFFFFFF80FA
:1020F0003F000000FFFFFFFFFFFFC00F80007FFFDA
:10210000FFFFFFFFFFC00180009EFFFFFFFFFFFFFB
:10211000E000000000FFFFFFFFFFFF6001C00000C4
:102120007FFFFFFFFFFF20006002001FFFFFFFFF98
:10213000FFA0006000000FFFCFFFFFFFE0000000E6
:102140000003FE007FFFFFE00C00000001FC001F09
:10215000FFFFE00A00000000F8001FFFFFE01E0084
:10216000000000780007FFFFE01F0000000078007B
:1021700007FEFEE01F80000000F00007FFF9E01FEF
:1021800080000000F8000FFFF9E01F80000000F859
:10219000200FFFF9E00F84000000FD21C7FFF9F0D8
:1021A0001FC4000001FF1FCFF7F9F01FC600000594
:1021B000FF0067E3FFB01FCE000001FF00FFE3FF59
:1021C000B007EE000009FF8FFFE3FD8007CA0000A3
:1021D00000FFC7FFE3FF8003C2000000FFE1FFE351
:1021E000FDC001C1000000FFFBFFE3FFC005C1000F
:1021F0000000FFFFFFEBFF6001C1000000FFFFFFD9
:10220000FFFF600281000181FFFFFFEDFF401CC165
:10221000000180FFFF1FEFFFC01A80000201FF7F57
:10222000FFFFFF803280000201FF3FFF7FFFC00001
:1022300000800401FFBFFEEFFF800000C00401FF2B
:102240009FFEEF7E800000401000FF8FFE7F3E80EB
:1022500000000000007FCFFC7F3EC0000040000077
:102260001DE7FCFFFEC0000000000003F7FFFFFCBD
:10227000C0000000000007FBFFFF7FC0000000005F
:10228000000FFDFFFFEFC000000000000FFEFFFF8A
:10229000E74000000000008FFEFFFE83800000008A
:1022A0000000FFFEFFFE73200000000000B7FEFFED
:1022B000F87700000020000023FFFFF831800000C5
:1022C00030000001B8FFF801800000380000001065
:1022D000BFF80080000018000000102FF800000078
:1022E000003C000000303FF8000000007E000000CD
:1022F000301FF8000000007F000000308FF0000069
:1023000000003F800000798FF0000000001F800374
:102310009FF18FE0000000000D80001FE107E0004A
:1023200000000000C0000FC305C00000000001C095
:1023300000030300C00000000000400000230080F4
:102340000000000000000000070100000000000085
:1023500000000007000000000000000000000F80E7
:102360000000000000000000000F800000000000DE
:10237000000000000000000000000000000000005D
:102380000200000000000000000000030000000048
:10239000000000000000010000000000000000003C
:1023A00000010000000000000000000000800000AC
:1023B000000000000000000080000000000000009D
:1023C000000000400000000000000000000040008D
:1023D00000000000000000000020000000000000DD
:1023E00000000000000000000000000000000000ED
:0D23F00000000000000000000000000000E0
:1023FD0000001100230034004600570068007A00E9
:10240D008B009C00AE00BF00D000E100F200030184
:10241D00140124013501450156016601760187013C
:10242D009701A601B601C601D501E501F40103022C
:10243D00120220022F023D024C025A02670275025F
:10244D00830290029D02AA02B602C302CF02DB02F2
:10245D00E702F202FE02090314031E0329033303EC
:10246D003D0346035003590362036A0373037B0361
:10247D0083038A03910398039F03A503AB03B10361
:10248D00B703BC03C103C603CA03CE03D203D503EE
:10249D00D903DC03DE03E003E203E403E603E70311
:0624AD00E703E803E80369
:1024B3002045494E535445494E20574F554C4420CF
:0E24C30048415645204C494B4544206D45008C
:1024D10020474C4344204C494252415259204445E3
:0E24E1004D4F2C2057454C434F4D45202100B8
:00000001FF
