:100000000203E10200000000000000020000000006
:1000100000000002000000000000000200000000DC
:06002000000000020000D8
:10002600801878A32278A422784B2278B62278B753
:1000360022787022786322A81522E51564C660E24C
:10004600E51564C760DFE51564CA60DCE51564E69E
:1000560060D9E51564E760D6E51564F060D3E5156B
:0700660064F160D080D1229B
:10006D008511151126850011D3E5B092E6F5B08501
:10007D0000A0D3E5B092E7F5B0C3E5B092E7F5B0D7
:0F008D00751200C3E51294155004051280F52278
:10009C00755400E55465117003E46512601875130E
:1000AC0000E51364786004051380F6D3E59692E1BD
:0700BC00F596055480DD22DA
:1000C300C3E5B092E6F5B08511A0D3E5B092E7F5AC
:1000D300B0C3E5B092E7F5B0751200C3E51294140E
:1000E3005004051280F5E5116401600EE511640208
:1000F3006008E51164036002801F75130075140026
:10010300C3E51394F4E5149401500E74012513F51B
:0A0113001374003514F51480E72280
:10011D00750A00E580541FF844C0F580750B00C3C7
:10012D00E50B940A5004050B80F5209005750A37F0
:10013D008016209105750A34800E209205750A31BE
:10014D008006209303750A23E580541FF844A0F51B
:10015D0080750B00C3E50B940A5004050B80F52048
:10016D009005750A388016209105750A35800E2088
:10017D009205750A328006209303750A30E5805486
:10018D001FF84460F580750B00C3E50B940A50040D
:10019D00050B80F5209005750A398016209105759F
:1001AD000A36800E209205750A338006209303755A
:0501BD000A65A80A22FA
:1001C20075118011C3750A00C3E50A9410500975B0
:0901D2001120116D050A80F022D4
:1001DB007596F94396085396FB438780759872750D
:1001EB008922758DF5C2ACC28FD2ABD2AFC3E58974
:1001FB0092E7F589C3E58992E6F589C3E58992E52E
:10020B00F589D3E58992E4F589C28E758DFC758BE2
:10021B0018D28E75B0FFD2A875111E751200119CE5
:10022B00C3E5B092E5F5B075113C11C375110C1116
:10023B00C375110111C375110611C375114011C39B
:10024B00750A00C3E50A94085009751100116D0574
:10025B000A80F0750A00C3E50A940850097511105D
:10026B00116D050A80F0750A00C3E50A9408500960
:10027B00751118116D050A80F0750A00C3E50A9413
:10028B0008500975111C116D050A80F0750A00C321
:10029B00E50A9408500975111E116D050A80F07559
:1002AB000A00C3E50A9408500975111F116D050A60
:0302BB0080F022AE
:0802BE00E493F608A3D9F9222C
:0502C60078017900221F
:1002CB00750E00750F08751000C3E50E950BE50C48
:1002DB006480F8E46480984002615AE50A250EF8C0
:1002EB008610750F08D3E50F94004057E50F551096
:1002FB006022E50F64017002C280E50F6402700298
:10030B00C281E50F64047002C282E50F64087002BB
:10031B00C2838020E50F64017002D280E50F640276
:10032B007002D281E50F64047002D282E50F64087B
:10033B007002D2837801E50F088002C313D8FCF555
:10034B000F80A2850D11E4F512119C050E41D422EC
:10035B00E50A700122804875570275560161E075F8
:10036B00550175560061E075550275560061E075D3
:10037B005503755600805E7555047556008056758D
:10038B005505755600804E75550675560080467599
:10039B005507755600803E7555087556008036E535
:1003AB000A643060B2E50A643160B4E50A64326015
:1003BB00B6E50A643360B8E50A643460BAE50A64EA
:1003CB003560BCE50A643660BEE50A643760C0E59B
:0603DB000A643860C22232
:1003E10075818012064331DB31C2E5552430F511A8
:1003F100116D750801750900C3E508942074006446
:1004010080F8E5096480985013751120116D74010D
:100411002508F50874003509F50980DC311D8500D2
:1004210053A194750A4F750B04750C00854D0D5140
:10043100CB85530A715BD3E557940040021557E50C
:1004410057700CE556600875570251C6850055A1D5
:10045100D4750A49750B04750C00854D0D51CB857A
:10046100530A715BD3E557940040021557E5577065
:100471000CE556600875570251C6850055A1D47523
:100481000A47750B02750C00854D0D51CB85530A3A
:10049100715BD3E557940040021557E557700CE5A1
:1004A10056600875570251C6850055A1D4750A3F9B
:1004B100750B08750C00854D0D51CB85530A715B89
:1004C100D3E557940040021557E557700CE5566087
:1004D1000875570251C6850055A1D4750A37750BA9
:1004E10008750C00854D0D51CB85530A715BD3E521
:1004F10057940040021557E557700CE55660087592
:10050100570251C6850055A1D4750A35750B027580
:100511000C00854D0D51CB85530A715BD3E5579482
:100521000040021557E557700CE5566008755702F3
:1005310051C6850055A1D4750A33750B02750C009F
:10054100854D0D51CB85530A715BD3E5579400401E
:10055100021557E557700CE556600875570251C6EC
:10056100850055A1D4750A30750B03750C00854DB6
:100571000D51CB85530A715BD3E5579400400215A9
:1005810057E557700CE556600875570251C685004E
:10059100558040E555640170028124E5556402707F
:1005A100028152E555640370028180E5556404704F
:1005B1000281AEE5556405700281DCE55564067083
:1005C10002A10AE55564077002A138E55564087077
:1005D10002A166E55364657018D3E54D9464E54E58
:1005E1009400400DC3E54D9464F54DE54E9400F53E
:1005F1004EE55364237017C3E54D94E8E54E94032B
:10060100500C7464254DF54D7400354EF54E854DF5
:0A06110011854E12119C61EB80FE72
:0E0643007830792875821B7583061202BE225C
:03061B000C0603C7
:02061E000C03CB
:020620000906C9
:08062200000103070F070301AB
:08062A0000080C0E0F0E0C0875
:02063200050AB7
:0406340001020408B3
:0206380064005C
:04063A0008040201AD
:01063E0000BB
:01063F0000BA
:0106400001B8
:0106410000B8
:0106420000B7
:00000001FF
