:1000000002161202000000000000000200000000C2
:1000100000000002000000000000000200000000DC
:1000200000000002000000000000000200000000CC
:1000300000000002000000000000000200000000BC
:1000400000000002000000000000000200000000AC
:10005000000000020000000000000002000000009C
:10006000000000020000000000000000000000008E
:10007000000000020000000000000002000000007C
:10008000000000020000000000000002000000006C
:10009000000000020000000000000002000000005C
:0600A00000000002000058
:1000A60080030201CDEE33EF3360110460F4EA33CE
:1000B600EB337009EFFBEEFAEDF9ECF8220460E29F
:1000C600D3EC98ED99EE9AEFC2E78BF0C2F795F074
:1000D600400CEFCBFFEECAFEEDC9FDECC8FC1201E9
:1000E6009885D0F05F04700320D5B7EF04700750F1
:1000F60002B2D50201D792D5EB0460F7E4CBC0E09B
:10010600C39FFF603B94186008400DD0E0FC0201DD
:10011600AFE4FCFDCEFB8028EF30E406E4CEFCE441
:10012600CDFBEF30E305E4CECDCCFBEF54076010FA
:10013600FFC3EE13FEED13FDEC13FCEB13FBDFF137
:1001460030F52DC3E49BFBE89CF8E99DF9EA9EFA9D
:10015600D0E0FCE8494A4B701122DC028070EB2BA0
:10016600FBE833F8E933F9EA33FAEA30E7EC8039A9
:10017600E82CF8E93DF9EA3EFAD0E0FC50120CBC56
:100186000002804DEA13FAE913F9E813F8EB13FBC2
:100196008017EED2E7CE33EF33FF92D5EAD2E7CA25
:1001A60033EB33FB5002B2D522EB30E71008B80030
:1001B6000C09B900080ABA00040CEC6014A2D5ECCC
:1001C60013FBEA92E7FA2274FFFBFAF9F822E480BD
:0D01D600F8A2D574FF13FB7A80E480EF22BD
:1001E3003392D530D50312020EEB334010E833F8C7
:1001F300E933F9EA33FAEB33FBD5F0ED22E5F024EA
:100203007EA2D513CB92E7CAC9F822C3E498F8E4D7
:0902130099F9E49AFAE49BFB223C
:10021C0074F8CF6480CFCB6480CBF58204700280FD
:10022C0043C3E89CF5F0E99D42F0EA9E42F0EB9F57
:10023C0045F060305018E5825CFCE582F42855826C
:10024C00F8502109B9001D0ABA00190B8016E58275
:10025C0058F8E582F42C5582FC50090DBD00050EB2
:10026C00BE00010FC3E89CF5F0E99D42F0EA9E4206
:10027C00F0EB9F45F06007CF4B20E701B3EF222254
:10028C00EAD2E7CA33EB3392D524814006E4F8F97D
:10029C00FAFB22FBE4C8C9CACB24E0501174FF80DE
:1002AC00EDC3CB13CBCA13CAC913C9C813C8047086
:1002BC00F030D5DEC3E498F8E499F9E49AFAE49BBB
:0202CC00FB2213
:1002CE00EC600FEBC313FBEA13FAE913F9E813F82A
:0302DE00DCF1222E
:0702E10075F020EB31E32270
:1002E800EB4A6011EF4E7017EA33EB3304600DE40C
:1002F800FBF8F9FA22EE33EF330470F80204211206
:1003080003EC5F046009E4CB248150062F500902F6
:10031800042B2F4003020428C0E0EC4D7044BE803B
:1003280006D0E0FC020417E849701CBA8008ECF813
:10033800EDF9EEFA80EBEE8AF0A4F9E5F00203D1CC
:10034800EECAFEEDF9ECF8E88EF0A4FBE5F0C98EF4
:10035800F0A429F8E435F0CA8EF0A42AF9E435F0BF
:100368008067E8497005BA80D780C3E88CF0A4ABF1
:10037800F0E98CF0A42BFBE435F0FFE88DF0A42B1A
:10038800E5F03FFBE433CC8AF0A42BFBE5F03CFF1F
:10039800E98DF0A42BFBE5F03FFFE433C88EF0A411
:1003A8002BFBE5F03FC83400C98EF0A428F8E5F02F
:1003B80039F9E433CE8AF0A429F9E5F03ECA8DF084
:1003C800A428F8E5F039F9E43AFA33D0E0FC50060D
:1003D8000CBC000E804DEB2BFBE833F8E933F9EA4F
:1003E80033FA8017EED2E7CE33EF33FF92D5EAD255
:1003F800E7CA33EB33FB5002B2D522EB30E71008E3
:10040800B8000C09B900080ABA00040CEC6014A280
:10041800D5EC13FBEA92E7FA2274FFFBFAF9F8220B
:0F042800E480F8A2D574FF13FB7A80E480EF2202
:08043700EF6480FF1200A62211
:10043F00C37C007D007E00750700A837A938AA3954
:10044F00AB3A511C4004780080027801E86015E552
:10045F00376400F8E5386400F9E5396400FAE53AE5
:0D046F006480FB22A837A938AA39AB3A22D5
:10047C007A02A93EE53D0A8005C333C933C9DAF9CE
:10048C00F8E53B28FCE53C39FD850482850583E4D1
:10049C0093F8E4A393F9E4A393FAE4A393FB850004
:1004AC003F850140850241850342E53D453E700292
:1004BC008060A837A938AA39AB3AAC3FAD40AE4101
:1004CC00AF4251E8C3E53D9401F53DE53E9400F59E
:1004DC003E7E02AD3EE53D0E8005C333CD33CDDE11
:1004EC00F9FCE53B2CF543E53C3DF5448543828521
:1004FC004483E493FCE4A393FDE4A393FEE4A3936D
:10050C00F50711A685003F85014085024185034210
:0B051C0081B6A83FA940AA41AB4222D3
:1005270085373D85383E85393F853A40E53F5480DC
:10053700F9E540547FFA7807EA088005C313C91321
:10054700C9D8F9FAE53B29F9E53C3AFA85013B8533
:10055700023CC3E9940074006480F8EA6480985010
:1005670009780079007A007B0022D3E53B94FF7479
:10057700006480F8E53C6480984031C37C007D00CE
:100587007E00750700A837A938AA39AB3A511C4035
:1005970004780080027801E8600978FF79FF7A7FA4
:1005A7007BFF2278FF79FF7A7F7B7F227807AA007B
:1005B700A93CE53B0A8005C333C933C9DAF9F8E535
:1005C7003F6200E540620153008053017FE53F62CF
:1005D70000E540620185003F850140A83DA93EAA8C
:0405E7003FAB4022C4
:1005EB007C17A837A938AA39AB3A51CE5300FF5321
:1005FB00010085003F850140C3E8947FFAE9940030
:10060B00FB85023F850340C3EA940074006480F8C5
:10061B00EB6480985031C37C007D007E0075070031
:10062B00A837A938AA39AB3A511C4004780080028C
:10063B007801E86009780079007A807BBF22780026
:10064B0079007A007B0022D3E53F9418E5409400B3
:10065B004009A837A938AA39AB3A22A837A938AA32
:10066B0039AB3A518C51E185003B85013C85023D0C
:10067B0085033ED3AC37AD38AE39AF3A511C60066B
:10068B004004780180027800E860147C007D007ED5
:10069B008075073FA83BA93CAA3DAB3E913722A8EA
:0806AB003BA93CAA3DAB3E2235
:1006B3008003020793EB5A046005EF5E04700302A4
:1006C30007891207545F0460F6EB4F60F2EB700486
:1006D300FAF9F822CF60DB2481CF5009C39F60026F
:1006E30050060207909F50CAF582EE2E4C4D7005BE
:1006F300AC8202077F75F0007B1A7F80C3E89CE918
:100703009DEA9E400DC3E89CF8E99DF9EA9EFAEF45
:1007130042F0DB22ABF0D0E0F8D0E0F9D0E0FAAC65
:100723008220E7101CEC60BAEB2BFBE833F8E933CB
:10073300F9EA33FA8032EF03FF30E705C0F075F0D2
:1007430000E828F8E933F9EA33FA40B930E7C3801F
:10075300ABEED2E7CE33EF33FF92D5EAD2E7CA331B
:10076300EB33FB5002B2D522EB30E71008B8000C94
:1007730009B900080ABA00040CEC60ECA2D5EC132A
:10078300FBEA92E7FA2274FFFBFAF9F822E480F815
:0C079300A2D574FF13FB7A80E480EF22F3
:10079F0085373C85383D85393E853A3FE53E548067
:1007AF00F9E53F547FFA7807EA088005C313C913A8
:1007BF00C9D8F9FAC3E9947EF9EA9400FAA83BA6DE
:1007CF000108A6027400653EF8743F653FF95300B7
:1007DF008053017FE53E6200E53F620185003E8563
:0B07EF00013FA83CA93DAA3EAB3F2201
:10080000752F00C37C007D007E00750700A827A916
:1008100028AA29AB2A12021C400478008002780121
:10082000E8600F632700632800632900632A80754E
:100830002F01A827A928AA29AB2A7C837DF97E222B
:1008400075073E1202E88500278501288502298563
:10085000032A85003785013885023985033A120558
:10086000EBAC00AD01AE02AF03A827A928AA29ABC3
:100870002A1204377C007D007E807507401202E852
:1008800085002785012885022985032AD37C007DE0
:10089000007E0075074012021C600640047801804B
:1008A000027800E8602D7C007D007E00750740A87E
:1008B00027A928AA29AB2A120437850027850128F1
:1008C00085022985032AE52F6004780080027801DB
:1008D00085002FD37C007D007E8075073FA827A967
:1008E00028AA29AB2A12021C600640047801800263
:1008F0007800E8601FAC27AD28AE29AF2A780079D0
:10090000007A007B40120437850027850128850284
:100910002985032AA827A928AA29AB2AAC27AD280C
:10092000AE29AF2A1202E885002B85012C85022D05
:1009300085032E85003785013885023985033A7590
:100940003B5B753C1D753D04753E0012047CAC2775
:10095000AD28AE29AF2A1202E88500278501288537
:10096000022985032A852B37852C38852D39852E3C
:100970003A753B6F753C1D753D03753E0012047C56
:10098000AC00AD01AE02AF03A827A928AA29AB2A63
:100990001206B385002785012885022985032AE5EB
:1009A0002F6015E5276400F8E5286400F9E529645F
:1009B00000FAE52A6480FB22A827A928AA29AB2AE5
:0109C0002214
:1009C100AB01AA007900780075F010EB1201E32267
:1009D100D37C007D007E00750700A827A928AA29DD
:1009E100AB2A12021C60064004780080027801E8FC
:1009F1006009780079007A007B002285272B852801
:100A01002C85292D852A2EC37C007D007E807507CB
:100A11003FA827A928AA29AB2A12021C4004780062
:100A210080027801E8601FAC2BAD2CAE2DAF2E7883
:100A31000079007A807B3F1206B385002B85012C5B
:100A410085022D85032E852B37852C38852D3985FB
:100A51002E3A753B3512079F85002B85012C8502A7
:100A61002D85032E85003785013885023985033AA6
:100A71007801E53685353B088008A2E713C53B13AD
:100A8100C53BD8F6F53C12052785002B85012C8541
:100A9100022D85032EC37C007D007E8075073FA853
:100AA10027A928AA29AB2A12021C40047800800237
:100AB1007801E8601FAC2BAD2CAE2DAF2E780079FC
:100AC100007A807B3F1206B385002B85012C8502BD
:100AD1002D85032E753314753400AC2BAD2CAE2D42
:100AE100AF2EA827A928AA29AB2A1206B3AC2BAD91
:100AF1002CAE2DAF2E1200A67C007D007E00750766
:100B0100401206B385002F850130850231850332FD
:100B1100AC2BAD2CAE2DAF2E12021C6004780080E0
:100B2100027801E860028021852F2B85302C8531E8
:100B31002D85322EC3E5339401F533E5349400F568
:100B410034E5334534600241DBA82BA92CAA2DAB37
:020B51002E2252
:100B5300852737852838852939852A3A12043F8520
:100B6300002C85012D85022E85032F7C007D007EC0
:100B73000075070012021C6004780080027801E807
:100B83006009780079007A007B0022D37C007D0025
:100B93007E8075073FA82CA92DAA2EAB2F12021C0D
:100BA3006006400478018002780085002BE8601F0E
:100BB300AC2CAD2DAE2EAF2F780079007A807B3F21
:100BC3001206B385002C85012D85022E85032FA8DF
:100BD3002CA92DAA2EAB2FAC2CAD2DAE2EAF2F12E0
:100BE30002E88500308501318502328503338500B3
:100BF3003785013885023985033A753B2F753C1DCE
:100C0300753D05753E0012047CAC2CAD2DAE2EAFA8
:100C13002F1202E885002C85012D85022E85032FD6
:100C230085303785313885323985333A753B477599
:100C33003C1D753D04753E0012047CAC00AD01AE55
:100C430002AF03A82CA92DAA2EAB2F1206B3850041
:100C53002C85012D85022E85032FE52B601FAC2CDF
:100C6300AD2DAE2EAF2F78DB790F7AC97B3F1204FF
:100C73003785002C85012D85022E85032FC37C002B
:100C83007D007E00750700A827A928AA29AB2A1290
:100C9300021C4004780080027801E86016E52C64A9
:100CA30000F8E52D6400F9E52E6400FAE52F648071
:100CB300FB8008A82CA92DAA2EAB2F85002C85011B
:080CC3002D85022E85032F226E
:100CCB00D37C007D007E00750700A81CA91DAA1E01
:100CDB00AB1F12021C60064004780080027801E80A
:100CEB006009780079007A007B0022851C37851D0E
:100CFB0038851E39851F3A753B2012079F7C007D76
:100D0B00007E007507401202E87C007D007E807536
:100D1B00073F12043785001C85011D85021E8503C4
:100D2B001FC3E5209401F520E5219400F5218500F2
:100D3B003785013885023985033A753B0B753C1DA8
:100D4B00753D08753E0012047C85001C85011D85D0
:100D5B00021E85031FA820A92131C17C187D727E3C
:100D6B003175073F1202E8AC1CAD1DAE1EAF1F1252
:030D7B0000A622AD
:100D7E00851C37851D38851E39851F3A12043FD3D1
:100D8E007C007D007E8075073F12021C60064004C9
:100D9E00780180027800E86009780079007A007B9B
:100DAE000022A81CA91DAA1EAB1FAC1CAD1DAE1E99
:100DBE00AF1F1202E8AC00AD01AE02AF03780079AE
:100DCE00007A807B3F120437850027850128850233
:100DDE002985032A31D185002085012185022285AE
:100DEE000323851C37851D38851E39851F3A12044D
:100DFE003FC37C8F7DC27E3575073F12021C4004B7
:100E0E00780080027801E86022AC20AD21AE22AFDE
:100E1E0023A81CA91DAA1EAB1F1206B38500278589
:100E2E00012885022985032A715322C37C007D0087
:100E3E007E00750700A81CA91DAA1EAB1F12021C5E
:100E4E004004780080027801E8604DE5206400F8E7
:100E5E00E5216400F9E5226400FAE5236480FBAC29
:100E6E001CAD1DAE1EAF1F1206B3850027850128CF
:100E7E0085022985032A7153AC00AD01AE02AF0382
:100E8E0078DB790F7AC97B3F120437630000630168
:100E9E000063020063038022AC1CAD1DAE1EAF1FAB
:100EAE00A820A921AA22AB231206B385002785010B
:100EBE002885022985032A7153AC00AD01AE02AF1D
:0D0ECE000378DB790F7AC97B3F12043722CD
:100EDB007C007D007E00750700A81CA91DAA1EAB17
:100EEB001F12021C6004780080027801E860097808
:100EFB000079007A807B3F22D37CFE7DD47EB27555
:100F0B000742A81CA91DAA1EAB1F12021C6006409B
:100F1B0004780180027800E8600978FF79FF7A7F16
:100F2B007B7F22C37C507DAC7EAE7507C2A81CA90B
:100F3B001DAA1EAB1F12021C400478008002780110
:100F4B00E86009780079007A007B0022C37C007D81
:100F5B00007E00750700A81CA91DAA1EAB1F12025C
:100F6B001C4004780080027801850022E8600C6345
:100F7B001C00631D00631E00631F80A81CA91DAA13
:100F8B001EAB1F7C3B7DAA7EB875073F1202E8851E
:100F9B00001C85011D85021E85031F8500378501F9
:100FAB003885023985033A1205EB12028C85002035
:100FBB0085012131C1AC00AD01AE02AF03A81CA964
:100FCB001DAA1EAB1F12043785001C85011D85024F
:100FDB001E85031F85003785013885023985033A45
:100FEB00753BE3753C1C753D09753E0012047C8511
:100FFB00003785013885023985033A85203B8521E9
:10100B003C12052785001C85011D85021E85031FCB
:10101B00E522603C7CFF7DFF7E7F75077FA81CA9C6
:10102B001DAA1EAB1F12021C6004780080027801FF
:10103B00E86009780079007A007B0022AC1CAD1DBA
:10104B00AE1EAF1F780079007A807B3F1206B32269
:09105B00A81CA91DAA1EAB1F224E
:10106400D37CDB7D0F7E49750740A81CA91DAA1EF1
:10107400AB1F12021C60064004780180027800E86D
:1010840060247CE47DCB7E96750740A81CA91DAA2C
:101094001EAB1F1204378500278501288502298588
:1010A400032A12080022A81CA91DAA1EAB1F7CDB60
:1010B4007D0F7EC975073F1200A68500278501288C
:0A10C40085022985032A1208002284
:1010CE00850C1C850D1D850E1E850F1F120D7EAC09
:1010DE0000AD01AE02AF0378DB790F7AC97B3F1208
:0310EE00043722A2
:0810F100E493F608A3D9F922EB
:1010F900850C1C850D1D850E1E850F1F120EDB85A7
:101109000010850111850212850313AC00AD01AEF3
:1011190002AF03780079007A807B3F1206B385001D
:101129001885011985021A85031B85180C85190D67
:10113900851A0E851B0FAC18AD19AE1AAF1BA81076
:10114900A911AA12AB13120437850014850115855C
:101159000216850317A810A911AA12AB13AC18AD72
:1011690019AE1AAF1B1200A6AC00AD01AE02AF0357
:0C117900A814A915AA16AB171206B32281
:10118500850C27850D28850E29850F2A12080085CF
:101195000010850111850212850313850C1C850D30
:1011A5001D850E1E850F1F1164AC00AD01AE02AF8B
:0D11B50003A810A911AA12AB131206B32251
:1011C200850C37850D38850E39850F3A12043F8517
:1011D200001885011985021A85031B8510378511B0
:1011E2003885123985133A12043FC3AC00AD01AE03
:1011F20002AF03A818A919AA1AAB1B12021C5004A9
:10120200780080027801E8700241C8AC0CAD0DAEE6
:101212000EAF0FA810A911AA12AB131206B38500C4
:101222002785012885022985032A120B538500147C
:10123200850115850216850317C37C007D007E009B
:10124200750700A80CA90DAA0EAB0F12021C4004D0
:10125200780080027801E870028062C37C007D0021
:101262007E00750700A810A911AA12AB1312021C66
:101272005004780080027801E86022A814A915AA17
:1012820016AB177CDB7D0F7E497507401200A685E1
:10129200001485011585021685031780207CDB7DED
:1012A2000F7E49750740A814A915AA16AB17120498
:1012B20037850014850115850216850317A814A920
:1012C20015AA16AB1722AC10AD11AE12AF13A80CB3
:1012D200A90DAA0EAB0F1206B3850027850128853A
:1012E200022985032A120B53E86400F514E964000D
:1012F200F515EA6400F516EB6480F517C37C007DF2
:10130200007E00750700A810A911AA12AB131202E1
:101312001C4004780080027801E860227CDB7D0FAB
:101322007EC975073FA814A915AA16AB1712043770
:101332008500148501158502168503178020A814DF
:10134200A915AA16AB177CDB7D0F7EC975073F1264
:1013520000A6850014850115850216850317A814B9
:07136200A915AA16AB172222
:101369007C17A80CA90DAA0EAB0F1202CE74FF5858
:10137900FC740059FD787F7900C3EC98FAED99FB6C
:10138900850214850315C3EA940074006480F8EBA0
:101399006480985034D37C007D007E00750700A8D6
:1013A9000CA90DAA0EAB0F12021C600640047800AE
:1013B90080027801E86009780079007A007B0022D0
:1013C900780079007A807B3F22D3E5149418E515DB
:1013D90094004009A80CA90DAA0EAB0F22A80CA9CC
:1013E9000DAA0EAB0F12028C1202E18500108501C5
:1013F90011850212850313C3AC0CAD0DAE0EAF0FF0
:1014090012021C4004780080027801E86015A810D7
:10141900A911AA12AB137C007D007E8075073F12CB
:0C14290000A622A810A911AA12AB1322E1
:10143500850C1C850D1D850E1E850F1F120EDB8567
:10144500000C85010D85020E85030FAC00AD01AEC4
:1014550002AF03780079007A807B3F1206B3AC0CAB
:10146500AD0DAE0EAF0F1200A67C007D007E00759F
:06147500073F1202E8220D
:10147B00850C1C850D1D850E1E850F1F120EDB8521
:10148B00000C85010D85020E85030FAC00AD01AE7E
:10149B0002AF03780079007A807B3F1206B3AC0071
:1014AB00AD01AE02AF03A80CA90DAA0EAB0F12042F
:0E14BB00377C007D007E0075073F1202E8229C
:1014C9007514007C007D007E00750700A810A91125
:1014D900AA12AB1312021C6004780080027801E89A
:1014E9006009780079007A807B3F227C007D007E4C
:1014F90000750700A80CA90DAA0EAB0F12021C60FB
:1015090004780080027801E86009780079007A009F
:101519007B0022C37C007D007E00750700A80CA912
:101529000DAA0EAB0F12021C40047800800278014C
:10153900E8604BA810A911AA12AB1312028C8500FE
:10154900158501168502178503181202E1AC10AD45
:1015590011AE12AF1312021C7004780080027801D8
:10156900E86009780079007A007B0022740155153A
:10157900F514630C00630D00630E00630F80850C86
:101589001C850D1D850E1E850F1F120CCB85000CA9
:1015990085010D85020E85030FAC10AD11AE12AF9A
:1015A900131202E885000C85010D85020E85030FD3
:1015B90085001C85011D85021E85031F120EDB8512
:1015C900000C85010D85020E85030FE5146015E5F4
:1015D9000C6400F8E50D6400F9E50E6400FAE50F06
:0D15E9006480FB22A80CA90DAA0EAB0F22F6
:1015F600850C1C850D1D850E1E850F1F120CCB7CC0
:0C160600D97D5B7EDE75073E1202E822F3
:101612007581807537667538667539A6753ABF1259
:10162200043F85000885010985020A85030B753789
:101632009375381A75395A753AB712043F850008FE
:1016420085010985020A85030B7537DE7538CF756A
:101652003989753A5D12043F8500088501098502C2
:101662000A85030B750C00750D00750E00750F00D1
:1016720011CE85000885010985020A85030B750CC8
:1016820000750D00750E00750F3F11CE850008859F
:10169200010985020A85030B750C00750D00750E94
:1016A20080750F3F11CE85000885010985020A85E4
:1016B200030B750C00750D00750E00750FBF11CE72
:1016C20085000885010985020A85030B751C0075D2
:1016D2001D00751E00751F00120D7E850008850114
:1016E2000985020A85030B751C00751D00751E0015
:1016F200751F3F120D7E85000885010985020A8546
:10170200030B751C00751D00751E80751F3F120DA1
:101712007E85000885010985020A85030B751C0078
:10172200751D00751E00751FBF120D7E8500088590
:10173200010985020A85030B7527007528007529A2
:1017420000752A00120B5385000885010985020ADB
:1017520085030B752700752800752900752A3F122D
:101762000B5385000885010985020A85030B75273D
:1017720000752800752980752A3F120B53850008D1
:1017820085010985020A85030B75270075280075F6
:101792002980752ABF120B5385000885010985022D
:1017A2000A85030B750C00750D00750EA0750F40B0
:1017B20075100075110075120075130031C2850095
:1017C2000885010985020A85030B750C00750D0059
:1017D200750E00750F407510007511007512807539
:1017E200133F31C285000885010985020A85030B72
:1017F200750C00750D00750E20750F417510007582
:1018020011007512207513411211C285000885015D
:101812000985020A85030B750C00750D00750E20F3
:10182200750F417510007511007512207513C112E4
:1018320011C285000885010985020A85030B750C12
:1018420000750D00750E00750F3F121369850008B3
:1018520085010985020A85030B750C00750D00755B
:101862000E00750FBF1213698500088501098502F4
:101872000A85030B750CC5750D20750E74750F4125
:1018820012136985000885010985020A85030B7513
:101892000CC5750D20750E74750FC1121369850084
:1018A2000885010985020A85030B75370075380022
:1018B200753900753A3F1205EB85000885010985E7
:1018C200020A85030B753700753800753900753AC1
:1018D200BF1205EB85000885010985020A85030B05
:1018E2007537C5753820753974753A411205EB851F
:1018F200000885010985020A85030B7537C575380D
:1019020020753974753AC11205EB85000885010905
:1019120085020A85030B751C00751D00751E007576
:101922001F0012106485000885010985020A8503DB
:101932000B751CD0751D0F751EC9751F3F121064E3
:1019420085000885010985020A85030B751C8B75C4
:101952001D0A751E86751F3F1210648500088501D9
:101962000985020A85030B751C8B751D0A751E8677
:10197200751FBF12106485000885010985020A855A
:10198200030B750C00750D00750E00750F00121417
:101992003585000885010985020A85030B750CD07F
:1019A200750D0F750EC9750F3F1214358500088528
:1019B200010985020A85030B750C8B750D0A750EDC
:1019C20086750F3F12143585000885010985020AC4
:1019D20085030B750C8B750D0A750E86750FBF127C
:1019E200143585000885010985020A85030B751CDB
:1019F20000751D00751E24751F41120EDB8500083F
:101A020085010985020A85030B751C00751D007589
:101A12001E00751F3F120EDB850008850109850235
:101A22000A85030B751C00751D00751E00751FBF0E
:101A3200120EDB85000885010985020A85030B75F4
:101A42000C00750D00750EC8750F421215F6850053
:101A52000885010985020A85030B750C00750D00C6
:101A6200750EFA750F431215F68500088501098572
:101A7200020A85030B750C00750D00750E20750F9B
:101A8200C11215F685000885010985020A85030B36
:101A9200750C00750D00750E20750F4175100075DF
:101AA20011007512A07513401214C9850008850132
:101AB2000985020A85030B750C00750D00750E2051
:101AC200750F417510007511007512007513BF1264
:101AD20014C985000885010985020A85030B75274B
:101AE20000752800752900752A0012080085000873
:101AF20085010985020A85030B7527D075280F75A4
:101B020029C9752A3F120800850008850109850246
:101B12000A85030B75278B75280A752906752A3FD6
:101B220012080085000885010985020A85030B75E4
:101B3200278B75280A752906752ABF1208008500A9
:101B42000885010985020A85030B750C00750D00D5
:101B5200750E00750F0012147B850008850109853A
:101B6200020A85030B750CD0750D0F750EC9750F22
:101B72003F12147B85000885010985020A85030B43
:101B8200750C8B750D0A750E06750F3F12147B8549
:101B9200000885010985020A85030B750C8B750DFA
:101BA2000A750E06750FBF12147B850008850109A0
:101BB20085020A85030B75270075284075291C7557
:101BC2002A461209D185000885010985020A850382
:101BD2000B7527007528007529FA752A431209D159
:101BE20085000885010985020A85030B75270075A2
:101BF20028007529C8752AC21209D18500088501F5
:101C02000985020A85030B750CD0750D0F750EC977
:101C1200750FBF12118585000885010985020A85A5
:101C2200030B750C00750D00750E00750F00121177
:101C32008585000885010985020A85030B750CD08C
:101C4200750D0F750E49750F3F12118585000885B8
:101C5200010985020A85030B750CD0750D0F750EEF
:101C620049750FBF12118585000885010985020A91
:101C720085030B750CD0750D0F750EC9750F3F12CC
:101C820010F985000885010985020A85030B750C88
:101C920000750D00750E00750F001210F985000811
:101CA20085010985020A85030B750CD0750D0F7528
:101CB2000E49750F3F1210F985000885010985024A
:101CC2000A85030B750CD0750D0F750E49750FBF84
:101CD2001210F985000885010985020A85030B8027
:011CE200FE03
:101CE3000000803F1872313FF0FD753E4758633D59
:101CF30058951D3C82C4AE3AA8782139EF938037BA
:081D0300A092A73546561534E5
:101D0B00FFE6DB2EC4FF7F3F80EFFFBE90E1A93ED5
:101D1B00EC8276BE82AD2B3E0E3CC3BD87D1133D0C
:041D2B004178D3BB6D
:101D2F00063C04427D9F6A425C900142604DBB407D
:081D3F0051EC473EDE8D1FBB95
:101D4700063C0442C0598B4274044442F99B4F41FC
:041D57000000803FC9
:101D5B00ECF34A48359595C717C1DC45FDDB6DC3E0
:041D6B0072B33340DC
:101D6F002B3401487F9DB045E7FFD9420000803FEB
:00000001FF
