:1000000002031E02000000000000000200000000C9
:1000100000000002000000000000000200000000DC
:1000200000000002000000000000000200000000CC
:1000300000000002000000000000000200000000BC
:1000400000000002000000000000000200000000AC
:10005000000000020000000000000002000000009C
:10006000000000020000000000000000000000008E
:10007000000000020000000000000002000000007C
:10008000000000020000000000000002000000006C
:10009000000000020000000000000002000000005C
:0600A00000000002000058
:0600A6007F51DFFE002285
:1000AC00751A00751B00C3E51592E0F51530820A30
:1000BC00E51530E00378FF2280F320820AE5153045
:1000CC00E00378FF2280F3051A11A6E51530E00352
:1000DC0078FF222082F120820AE51530E00378FFB8
:1000EC002280F3051B11A6E51530E00378FF2220D2
:1000FC0082F17802E51A088002C313D8FCF9780261
:10010C00E51B088002C313D8FCF51CE51A29FAE498
:10011C0033FBA91BC3EA99E46480F8EB6480985024
:10012C000CD3E51A94004003851A0F8021E51B259A
:10013C001CFAE433FBA91AC3EA99E46480F8EB6473
:10014C008098500AD3E51B94004003851B0F78015F
:0E015C00E50F088002C333D8FCF50EA80F2271
:10016A00758400C29985179920990280FBC2992249
:10017A00C3E51592E0F515851819A817760130829E
:10018A000EE51530E007A81776FF78002280EF20E9
:10019A00820EE51530E007A81776FF78002280EF77
:1001AA007801E50F088002C313D8FCF51800000097
:1001BA00000011A61518E51870F3208203780022B2
:1001CA00850E18000000000011A61518E51870F336
:1001DA00208203780022850E18000000000011A674
:1001EA001518E51870F33082037800227519008516
:1001FA000E18000000000011A61518E51870F3305B
:10020A008203431980850E18000000000011A6150C
:10021A0018E51870F3308203431940850E18000060
:10022A0000000011A61518E51870F330820343196F
:10023A0020850E18000000000011A61518E5187098
:10024A00F3308203431910850E18000000000011D4
:10025A00A61518E51870F3308203431908850E189D
:10026A00000000000011A61518E51870F33082038B
:10027A00431904850E18000000000011A61518E5A0
:10028A001870F3308203431902850E18000000002B
:10029A000011A61518E51870F3308203431901A856
:0602AA00177600A81922DE
:1002B00075086A750901750A17750BFF750CFF75CE
:1002C0000D007510FF7511FF75120075840F43E165
:1002D0000443E34075840075985075C90875C800DB
:0602E000759115D2CA223F
:1002E600751700751800D28211AC850018E87010D9
:1002F6000517D3E51794644005780179002280E854
:10030600E51864FF700578FF7900227800790022ED
:08031600E493F608A3D9F922D3
:10031E0075818075FFDE75FFAD75840F758A8375E7
:10032E00840075EF0475840F758C60438C077EA076
:10033E007F15DFFEDEFC0000E58C5480F9648060E2
:10034E000280F575970175E340D3E5A492E0F5A41C
:10035E0075840075CAC175CBFE51B07D0D7E6E7F62
:10036E00C7DFFEDEFCDDFA75130051E67517163198
:10037E007A850014E8640B70028008E5166002802E
:10038E000280E9751716317A850014E51660187526
:10039E00173F316A0513D3E5139414400811AC8549
:1003AE000014751300800BE514640E600585141798
:1003BE00316A7D047E1C7F6FDFFEDEFCDDFA0000FD
:0A03CE00E514640E70BD80A480FEEB
:00000001FF
