:1000000002280002000000000000000200000000C2
:1000100000000002000000000000000200000000DC
:1000200000000002000000000000000200000000CC
:1000300000000002000000000000000200000000BC
:1000400000000002000000000000000200000000AC
:10005000000000020000000000000002000000009C
:10006000000000020000000000000000000000008E
:10007000000000020000000000000002000000007C
:10008000000000020000000000000002000000006C
:10009000000000020000000000000002000000005C
:0600A00000000002000058
:1000A600E88CF0C2D530F707B2D563F0FF05F03023
:1000B600E70CB2D5F4048463F0FF05F080018430C8
:0800C600D502F404F8AAF022AF
:1000CE0080030201F5EE33EF3360110460F4EA337E
:1000DE00EB337009EFFBEEFAEDF9ECF8220460E277
:1000EE00D3EC98ED99EE9AEFC2E78BF0C2F795F04C
:1000FE00400CEFCBFFEECAFEEDC9FDECC8FC1201C1
:10010E00C085D0F05F04700320D5B7EF04700750A0
:10011E0002B2D50201FF92D5EB0460F7E4CBC0E04A
:10012E00C39FFF603B94186008400DD0E0FC0201B5
:10013E00D7E4FCFDCEFB8028EF30E406E4CEFCE4F1
:10014E00CDFBEF30E305E4CECDCCFBEF54076010D2
:10015E00FFC3EE13FEED13FDEC13FCEB13FBDFF10F
:10016E0030F52DC3E49BFBE89CF8E99DF9EA9EFA75
:10017E00D0E0FCE8494A4B701122DC028070EB2B78
:10018E00FBE833F8E933F9EA33FAEA30E7EC803981
:10019E00E82CF8E93DF9EA3EFAD0E0FC50120CBC2E
:1001AE000002804DEA13FAE913F9E813F8EB13FB9A
:1001BE008017EED2E7CE33EF33FF92D5EAD2E7CAFD
:1001CE0033EB33FB5002B2D522EB30E71008B80008
:1001DE000C09B900080ABA00040CEC6014A2D5ECA4
:1001EE0013FBEA92E7FA2274FFFBFAF9F822E48095
:0D01FE00F8A2D574FF13FB7A80E480EF2295
:10020B00BD000BB90029E88CF084F8ACF022E4CDEA
:10021B00FF75F008E828F8E933F9ED33FDE99CEDBB
:10022B009F4005FDE99CF908D5F0E9E4C9FC22ECF7
:10023B00FFF5F0E98420D21CF9ACF075F008E82842
:10024B00F8EC33FC40079F5006D5F0F222C39FFC1D
:05025B0008D5F0EA22C5
:10026000EB4A6011EF4E7017EA33EB3304600DE494
:10027000FBF8F9FA22EE33EF330470F80203991217
:1002800003645F046009E4CB248150062F50090207
:1002900003A32F40030203A0C0E0EC4D7044BE80D6
:1002A00006D0E0FC02038FE849701CBA8008ECF825
:1002B000EDF9EEFA80EBEE8AF0A4F9E5F0020349DD
:1002C000EECAFEEDF9ECF8E88EF0A4FBE5F0C98E7D
:1002D000F0A429F8E435F0CA8EF0A42AF9E435F048
:1002E0008067E8497005BA80D780C3E88CF0A4AB7A
:1002F000F0E98CF0A42BFBE435F0FFE88DF0A42BA3
:10030000E5F03FFBE433CC8AF0A42BFBE5F03CFFA7
:10031000E98DF0A42BFBE5F03FFFE433C88EF0A499
:100320002BFBE5F03FC83400C98EF0A428F8E5F0B7
:1003300039F9E433CE8AF0A429F9E5F03ECA8DF00C
:10034000A428F8E5F039F9E43AFA33D0E0FC500695
:100350000CBC000E804DEB2BFBE833F8E933F9EAD7
:1003600033FA8017EED2E7CE33EF33FF92D5EAD2DD
:10037000E7CA33EB33FB5002B2D522EB30E710086B
:10038000B8000C09B900080ABA00040CEC6014A209
:10039000D5EC13FBEA92E7FA2274FFFBFAF9F82294
:0F03A000E480F8A2D574FF13FB7A80E480EF228B
:1003AF003392D530D5031203DAEB334010E833F82C
:1003BF00E933F9EA33FAEB33FBD5F0ED22E5F0241C
:1003CF007EA2D513CB92E7CAC9F822C3E498F8E40A
:0903DF0099F9E49AFAE49BFB226F
:1003E800EAD2E7CA33EB3392D524814006E4F8F920
:1003F800FAFB22FBE4C8C9CACB24E0501174FF8081
:10040800EDC3CB13CBCA13CAC913C9C813C8047028
:10041800F030D5DEC3E498F8E499F9E49AFAE49B5D
:02042800FB22B5
:08042A00EF6480FF1200CE22F6
:10043200E88CF0A4AFF0C88DF0A42FC98CF0A429E9
:02044200F9229D
:0704440075F020E471AF2206
:10044B00C3E572946E5002A12175F064E57284F8D5
:10045B002412FBE433FC7A02A904EB0A8005C333B4
:10046B00C933C9DAF9F874BC28FC742739FD850443
:10047B0082850583E493F8E4A393F9E4A393FAE468
:10048B00A393FB7C007D007E0075073F516075F0E8
:10049B0064E57284E5F0FC75F00AEC84FC2409F544
:1004AB0073E433F5747E02AD74E5730E8005C333CC
:1004BB00CD33CDDEF9FC74BC2CF57374273DF5748C
:1004CB00857382857483E493FCE4A393FDE4A39387
:1004DB00FEE4A393F507516075F00AE57284E5F02D
:1004EB00F5077E02E4FDE5070E8005C333CD33CD62
:1004FB00DEF9FC74BC2CF57374273DF5748573829F
:10050B00857483E493FCE4A393FDE4A393FEE4A33B
:10051B0093F507516022D3E572940A5002A1AD7591
:10052B00F00AE57284F82409FBE433FC7A02A9048F
:10053B00EB0A8005C333C933C9DAF9F874BC28FC5C
:10054B00742739FD850482850583E493F8E4A3932E
:10055B00F9E4A393FAE4A393FB7C007D007E007582
:10056B00073F516075F00AE57284E5F0F5077E02EE
:10057B00E4FDE5070E8005C333CD33CDDEF9FC7406
:10058B00BC2CF57374273DF574857382857483E4F5
:10059B0093FCE4A393FDE4A393FEE4A393F507512B
:1005AB0060227A02E4F9E5720A8005C333C933C9C4
:1005BB00DAF9F874BC28FC742739FD8504828505AB
:1005CB0083E493F8E4A393F9E4A393FAE4A393FBF2
:0C05DB007C007D007E0075073F5160220F
:1005E700803C75F008758200E828F8E933F9CA33CA
:1005F700CACB33CBC58233C5829CEA9DEB9EE5828D
:100607009F400CF582E99CF9EA9DFAEB9EFB08D521
:10061700F0D6E4C9FCE4CAFDE4CBFEAF8222EF606A
:100627000280BFEE6002805BED6002802DEB8CF0F4
:1006370084C8C9CAFBE5F0CCFE7F18E828F8E9337F
:10064700F9EA33FAEB33FBEC33FC10D7039E400493
:10065700EC9EFC08DFE5E4FEFD227F18E828F8E9B8
:1006670033F9EA33FAEB33FBCE33CE10D7059CEEE2
:100677009D4007EB9CFBEE9DFE08DFE0E4CEFDE42A
:10068700CBFC2275F010E828F8E933F9EA33FACB06
:1006970033CBCF33CF10D7079CEB9DEF9E400AEAB1
:1006A7009CFAEB9DFBEF9EFF08D5F0DAE4CAFCE469
:0606B700CBFDE4CFFE22A2
:1006BD00EC600FEBC313FBEA13FAE913F9E813F837
:0306CD00DCF1223B
:1006D000C374006480F8E57264809840030208E304
:1006E000C374009572F9850172C3746E6480F8E971
:1006F00064809850030208027C647D00A872E57251
:1007000033E495E0F911A6E833E495E0F9E8241222
:10071000FBE93400FC7A02A904EB0A8005C333C963
:1007200033C9DAF9F874BC28F8742739F9850082DE
:10073000850183E493F573E4A393F574E4A393F53F
:1007400075E4A393F5767C647D00A872E57233E4CA
:1007500095E0F911A6A802E833E495E0F97C0A7D5A
:100760000011A6E833E495E0F9E82409FBE9340038
:10077000FC7A02A904EB0A8005C333C933C9DAF94C
:10078000F874BC28FC742739FD850482850583E450
:1007900093F8E4A393F9E4A393FAE4A393FBAC7373
:1007A000AD74AE75AF7651608500738501748502B6
:1007B000758503767C0A7D00A872E57233E495E0C6
:1007C000F911A6A8027B02E833E495E0FAE80B8071
:1007D00005C333CA33CADBF9F974BC29FC74273A60
:1007E000FD850482850583E493F8E4A393F9E4A3EB
:1007F00093FAE4A393FBAC73AD74AE75AF761202BB
:100800006022D3740A6480F8E57264809850020113
:10081000AF7C0A7D00A872E57233E495E0F912001E
:10082000A6E833E495E0F9E82409FBE93400FC7A12
:1008300002A904EB0A8005C333C933C9DAF9F87495
:10084000BC28F8742739F9850082850183E493F583
:1008500073E4A393F574E4A393F575E4A393F57699
:100860007C0A7D00A872E57233E495E0F91200A6D7
:10087000A8027B02E833E495E0FAE80B8005C33375
:10088000CA33CADBF9F974BC29FC74273AFD850424
:1008900082850583E493F8E4A393F9E4A393FAE44F
:1008A000A393FBAC73AD74AE75AF76120260227A7F
:1008B00002E57233E495E0F9E5720A8005C333C9B5
:1008C00033C9DAF9F874BC28FC742739FD85048231
:1008D000850583E493F8E4A393F9E4A393FAE4A3EE
:1008E00093FB22C3746E6480F8E5726480985002B2
:1008F00041017C647D00A872E57233E495E0F91251
:1009000000A6E833E495E0F9E82412FBE93400FCA2
:100910007A02A904EB0A8005C333C933C9DAF9F8AE
:1009200074FF28F8742839F9850082850183E493DF
:10093000F573E4A393F574E4A393F575E4A393F539
:10094000767C647D00A872E57233E495E0F91200CC
:10095000A6A802E833E495E0F97C0A7D001200A61F
:10096000E833E495E0F9E82409FBE93400FC7A0275
:10097000A904EB0A8005C333C933C9DAF9F874FF57
:1009800028FC742839FD850482850583E493F8E406
:10099000A393F9E4A393FAE4A393FBAC73AD74AE11
:1009A00075AF7612026085007385017485027585C6
:1009B00003767C0A7D00A872E57233E495E0F912B3
:1009C00000A6A8027B02E833E495E0FAE80B800574
:1009D000C333CA33CADBF9F974FF29FC74283AFD22
:1009E000850482850583E493F8E4A393F9E4A39353
:1009F000FAE4A393FBAC73AD74AE75AF76120260EC
:100A000022D3740A6480F8E572648098500241AE83
:100A10007C0A7D00A872E57233E495E0F91200A625
:100A2000E833E495E0F9E82409FBE93400FC7A02B4
:100A3000A904EB0A8005C333C933C9DAF9F874FF96
:100A400028F8742839F9850082850183E493F573C9
:100A5000E4A393F574E4A393F575E4A393F5767C8E
:100A60000A7D00A872E57233E495E0F91200A6A8A9
:100A7000027B02E833E495E0FAE80B8005C333CA51
:100A800033CADBF9F974FF29FC74283AFD85048226
:100A9000850583E493F8E4A393F9E4A393FAE4A32C
:100AA00093FBAC73AD74AE75AF76120260227A021E
:100AB000E57233E495E0F9E5720A8005C333C93382
:100AC000C9DAF9F874FF28FC742839FD8504828599
:100AD0000583E493F8E4A393F9E4A393FAE4A393DE
:020AE000FB22F7
:100AE20074F8CF6480CFCB6480CBF582047002802F
:100AF20043C3E89CF5F0E99D42F0EA9E42F0EB9F89
:100B020045F060305018E5825CFCE582F42855829D
:100B1200F8502109B9001D0ABA00190B8016E582A6
:100B220058F8E582F42C5582FC50090DBD00050EE3
:100B3200BE00010FC3E89CF5F0E99D42F0EA9E4237
:100B4200F0EB9F45F06007CF4B20E701B3EF222285
:100B5200D3E5729439500BC3E572943040047801A6
:050B6200800278002272
:100B67008003020C47EB5A046005EF5E0470030232
:100B77000C3D120C085F0460F6EB4F60F2EB70045B
:100B8700FAF9F822CF60DB2481CF5009C39F6002B6
:100B97005006020C449F50CAF582EE2E4C4D70054C
:100BA700AC82020C3375F0007B1A7F80C3E89CE9A6
:100BB7009DEA9E400DC3E89CF8E99DF9EA9EFAEF8D
:100BC70042F0DB22ABF0D0E0F8D0E0F9D0E0FAACAD
:100BD7008220E7101CEC60BAEB2BFBE833F8E93313
:100BE700F9EA33FA8032EF03FF30E705C0F075F01A
:100BF70000E828F8E933F9EA33FA40B930E7C38067
:100C0700ABEED2E7CE33EF33FF92D5EAD2E7CA3362
:100C1700EB33FB5002B2D522EB30E71008B8000CDB
:100C270009B900080ABA00040CEC60ECA2D5EC1371
:100C3700FBEA92E7FA2274FFFBFAF9F822E480F85C
:0C0C4700A2D574FF13FB7A80E480EF223A
:100C5300C2D5ED30E709B2D5E4C39CFCE49DFDE9C0
:100C630030E715B2D5E4C398F8E499F912020BC33F
:100C7300E49CFCE49DFD800312020B30D507C3E422
:060C830098F8E499F92243
:100C8900755900755A00756000756100A92DAA2E65
:100C99007401252DF52D7400352EF52E85018285DB
:100CA9000283E493F885005DE870030226F6E55DAA
:100CB90064256014A82CA65D052C74012559F559E5
:100CC9007400355AF55A80C4755E00755F00756009
:100CD9000075610080644360084361007401252D3B
:100CE900F52D7400352EF52EA19043600143610066
:100CF9007401252DF52D7400352EF52EA190436034
:100D0900024361007401252DF52D7400352EF52E51
:100D1900A1904360004361087401252DF52D7400ED
:100D2900352EF52EA1904360044361007401252DF1
:100D3900F52D7400352EF52EA190852D82852E83F3
:100D4900E493F9642D700281DF852D82852E83E479
:100D590093F96420700281F3852D82852E83E493B3
:100D6900F9642B7002A107852D82852E83E493F9FE
:100D790064237002A11B852D82852E83E493F96477
:100D8900307002A12F800281DD74025560F8740071
:100D99005561F9E84960065360FE5361FF740855CF
:100DA90060F874005561F9E84960065360FB5361C6
:100DB900FF852D82852E83E493F8E4F9850072710D
:100DC90052E8604F755E00755F00A85EA95F7C0AF6
:100DD9007D00120432852D82852E83E493FA28F54D
:100DE9005EE439F55FC3E55E9430F55EE55F940036
:100DF900F55F7401252DF52D7400352EF52E852D01
:100E090082852E83E493F8E4F98500727152E870C3
:100E1900B9802C852D82852E83E493F9642A701F6D
:100E2900A82F8601875E09875FA82FE62402F9A803
:100E39002FA6017401252DF52D7400352EF52E856B
:100E49002D82852E83E493F9642E6002C1E2740138
:100E5900252DF52D7400352EF52E852D82852E83B1
:100E6900E493F9642A7021A82F8601875B09875CBE
:100E7900A82FE62402F9A82FA6017401252DF52D26
:100E89007400352EF52E804F755B00755C00852D3D
:100E990082852E83E493F8E4F98500727152E86043
:100EA90036A85BA95C7C0A7D00120432852D8285F7
:100EB9002E83E493FA28F55BE439F55CC3E55B948A
:100EC90030F55BE55C9400F55C7401252DF52D7416
:100ED90000352EF52E80B7800C755B00755C0043DC
:100EE9006000436110A92DAA2E7401252DF52D74DA
:100EF90000352EF52E850182850283E493F885005D
:100F09005D02109EA859A95A2243601043610080CE
:100F1900D443600043610402112C43602043610003
:100F290043600043610102112C43600043610202E6
:100F3900112C43604043610002112C02112C4360C3
:100F49002043610043608043610002112CA82F8671
:100F5900018768A82F06E568701875522875536EC1
:100F690075547575556C75566C7557297558007596
:100F79006852756900756A00E5682569F8E66012C6
:100F890074012569F87400356AF985006985016A73
:100F990080E6E55B455C6011C3E55B9569E55C95B9
:100FA9006A5006855B69855C6AD3E55E9569E55F8C
:100FB900956A400FC3E55E9569F55EE55F956AF54B
:100FC9005F8006755E00755F0074085560F87400EF
:100FD9005561F9E8497029A85EA95FC3E55E9401E6
:100FE900F55EE55F9400F55FE8496014A82C76206A
:100FF900052C74012559F5597400355AF55A80D7CD
:10100900AA69AB6AC3E5699401F8E56A9400F985B0
:10101900006985016AEA4B601EA868A92CE6F705F4
:101029002CE5682401F885006874012559F559747F
:1010390000355AF55A80C974085560F8740055612D
:10104900F9E8496029A85EA95FC3E55E9401F55EE8
:10105900E55F9400F55FE8496014A82C7620052C1B
:1010690074012559F5597400355AF55A80D7020C7F
:1010790095A82F8601875DA82FE62402F9A82FA637
:101089000175685D756901756A00020F9B4360C04F
:10109900436100212CE55D7003020F0DE55D646C71
:1010A9007003020F12E55D644C7003020F12E55DD7
:1010B90064667003020F1AE55D64457003020F232D
:1010C900E55D64657003020F29E55D6467700302DD
:1010D9000F32E55D646F7003020F3BE55D64647078
:1010E90003020F44E55D64697003020F44E55D6422
:1010F900707003020F47E55D64587003020F47E5FE
:101109005D64787003020F4DE55D64737003020F2F
:1011190056E55D64637002017AE55D6475700201EC
:1011290096018AE5605400F8E5615407F9E84970C9
:101139000302200BE5605400F8E5615410F9E84911
:101149006006755B06755C00A82F860187620987B2
:1011590063098764098765A82FE62404F9A82FA6DF
:1011690001C37C007D007E00750700A862A963AAFF
:1011790064AB65120AE24004780080027801E860F5
:101189001263620063630063640063658043600304
:101199004361007566007567007C007D007E0075FF
:1011A9000700A862A963AA64AB65120AE270047811
:1011B9000080027801E8700241AA7C17A862A9633D
:1011C900AA64AB651206BD74FF58FC740059FD781A
:1011D9007E7900C3EC98F8ED99F985006685016779
:1011E900C3E89401F8E99400F98500668501677CF4
:1011F900037D001204328500668501677C0A7D0043
:10120900120C53850066850167C3E8940074006475
:1012190080FAE964809A500DC3E5669401F566E5A4
:10122900679400F567C374009566F5721206D0AC31
:1012390062AD63AE64AF65120260850068850169BD
:1012490085026A85036BC37C007D007E8075073F3C
:10125900A868A969AA6AAB6B120AE24004780080FF
:10126900027801E8600FC3E5669401F566E56794C5
:1012790000F567802CC37C007D007E20750741A89E
:1012890068A969AA6AAB6B120AE250047800800265
:101299007801E8600C74012566F56674003567F518
:1012A90067D3E566940074006480F8E56764809804
:1012B9005005755D01800385665DE5605400F8E5BC
:1012C900615401F9E8497037E5605400F8E5615463
:1012D90002F9E8496026C3E56694FC74FF6480F866
:1012E900E5676480984013C3E566955BE55C6480B7
:1012F900F8E5676480985002800280030219AFE51F
:101309005B455C601BE5605400F8E5615402F9E84F
:1013190049600DC3E55B9401F55BE55C9400F55C00
:10132900D3E55B9408E55C94004005755D0880038E
:10133900855B5D7C007D007E00750700A862A9635E
:10134900AA64AB65120AE27004780080027801E8A9
:101359007002A10D8566721206D0AC00AD01AE0215
:10136900AF03A862A963AA64AB65120B6785006223
:10137900850163850264850365C37400955DF57213
:101389001206D0AC00AD01AE02AF03A862A963AAF0
:1013990064AB65120B6785006C85016D85026E85EE
:1013A900036F856C62856D63856E64856F65A86C56
:1013B900A96DAA6EAB6F1203E8120444AC00AD012B
:1013C900AE02AF03A86CA96DAA6EAB6F12042AC353
:1013D9007C007D007E0075073F120AE25004780008
:1013E90080027801E86020A862A963AA64AB657CE1
:1013F900007D007E0075073F1200CE8500628501E1
:1014090063850264850365A862A963AA64AB651252
:1014190003E8E55D2401F56CE433F56D7E02AD6DFD
:10142900E56C0E8005C333CD33CDDEF9FC74632C36
:10143900FC74293DFD850482850583E493F56CE4FC
:10144900A393F56DE4A393F56EE4A393F56FC3E855
:10145900956CE9956DEA956EEB956F402EA862A99A
:1014690063AA64AB657CCD7DCC7ECC75073D120249
:1014790060850062850163850264850365740125C1
:1014890066F56674003567F567A10DA862A963AAB8
:1014990064AB651203E87E02E4FDE55D0E8005C3D9
:1014A90033CD33CDDEF9FC74632CFC74293DFD8505
:1014B9000482850583E493F56CE4A393F56DE4A3B5
:1014C90093F56EE4A393F56FC3E8956CE9956DEA1E
:1014D900956EEB956F502DA862A963AA64AB657CE4
:1014E900007D007E2075074112026085006285013A
:1014F90063850264850365C3E5669401F566E5675E
:101509009400F567E5605400F8E5615402F9E8498B
:101519007002A1F3E5605400F8E5615408F9E8495F
:101529006002A1F3D3E55B940A74006480F8E55C7A
:101539006480984006755B0A755C00A862A963AA75
:1015490064AB651203E885006885016985026A85CF
:10155900036BE5684569456A456B60517C0A7D0006
:101569007E00750700A868A969AA6AAB6B1205E72E
:10157900A804A905AA06AB07E8494A4B702FC3E599
:101589005B9401F55BE55C9400F55C7C0A7D007E6B
:1015990000750700A868A969AA6AAB6B1205E785F7
:1015A900006885016985026A85036B80A5A95DC309
:1015B900E55B99E46480F8E55C648098502CC3E5A8
:1015C9005D955BF5721206D0AC00AD01AE02AF03BA
:1015D900A862A963AA64AB65120B678500628501DD
:1015E90063850264850365855B5D7405255BF87415
:1015F90000355CF9C3E55E98F55EE55F99F55FE551
:101609005B455C7010E5605400F8E5615408F9E841
:10161900497002800DC3E55E9401F55EE55F9400B3
:10162900F55F74035560F874005561F9E849600D78
:10163900C3E55E9401F55EE55F9400F55F740455BA
:1016490060F874005561F9E8497002C1E074025507
:1016590060F874005561F9E849602874015560F82B
:1016690074005561F9E8496004792D8002792BA845
:101679002CA601052C74012559F5597400355AF524
:101689005A802074015560F874005561F9E8496081
:1016990012A82C7620052C74012559F559740035AA
:1016A9005AF55AD3E55E940074006480F8E55F64E6
:1016B90080984021A82C7630052C74012559F559BC
:1016C9007400355AF55AC3E55E9401F55EE55F94F9
:1016D90000F55F80CEE17674085560F874005561B5
:1016E900F9E8497032D3E55E940074006480F8E546
:1016F9005F6480984021A82C7620052C7401255917
:10170900F5597400355AF55AC3E55E9401F55EE55D
:101719005F9400F55F80CE74025560F874005561DE
:10172900F9E849602874015560F874005561F9E8D1
:10173900496004792D8002792BA82CA601052C7407
:10174900012559F5597400355AF55A802074015507
:1017590060F874005561F9E8496012A82C762005F3
:101769002C74012559F5597400355AF55AA862A9FE
:1017790063AA64AB651203E885006885016985027F
:101789006A85036B7A02E4F9E55D0A8005C333C90A
:1017990033C9DAF9F8746328FA742939FB850282A6
:1017A900850383E493FCE4A393FDE4A393FEE4A3FC
:1017B90093F507A868A969AA6AAB6B1205E77430A3
:1017C90028F9A82CA601052C74012559F55974008E
:1017D900355AF55AE55B455C7011E5605400F8E54A
:1017E900615408F9E84970030218AAA82C762E0555
:1017F9002C74012559F5597400355AF55AA85DE438
:10180900F9C3E55B98F55BE55C99F55CE55D70020C
:101819000183155D7A02E4F9E55D0A8005C333C9E0
:1018290033C9DAF9F8746328FA742939FB85028215
:10183900850383E493FCE4A393FDE4A393FEE4A36B
:1018490093F507A868A969AA6AAB6B1205E77C0A30
:101859007D007E007507001205E7A804A905AA0600
:10186900AB07743028F9A82CA601052C7401255959
:10187900F5597400355AF55A0115E55B455C602147
:10188900A82C7630052C74012559F5597400355A60
:10189900F55AC3E55B9401F55BE55C9400F55C8062
:1018A900D974205560F874005561F9E8496014A8A5
:1018B9002C7645052C74012559F5597400355AF5CE
:1018C9005A8012A82C7665052C74012559F559748E
:1018D90000355AF55AC3E566940074006480F8E54A
:1018E900676480985021C374009566F56674009505
:1018F90067F567A82C762D052C74012559F55974BF
:1019090000355AF55A8012A82C762B052C7401251E
:1019190059F5597400355AF55A7C0A7D00A866A90B
:1019290067120C53743028F9A82CA601052C7401F0
:101939002559F5597400355AF55A7C0A7D00A8666F
:10194900A967120C53A804A905743028F9A82CA674
:1019590001052C74012559F5597400355AF55A7445
:10196900085560F874005561F9E8496036D3E55EB9
:10197900940074006480F8E55F6480984025A82C81
:101989007620052C74012559F5597400355AF55AF4
:10199900C3E55E9401F55EE55F9400F55FE55E459C
:1019A9005F70DB020C95E5605400F8E5615402F9BB
:1019B900E8497002610BC3E566940074006480F81D
:1019C900E5676480985016C3E5669401F8E5679465
:1019D90000F9C3E55B98F55BE55C99F55CA862A93C
:1019E90063AA64AB651203E885006885016985020D
:1019F9006A85036B755D01E55D640A60437A02E4FB
:101A0900F9E55D0A8005C333C933C9DAF9F87463A6
:101A190028F8742939F9850082850183E493FAE469
:101A2900A393FBE4A393FCE4A393FDC3E5689AE5C0
:101A3900699BE56A9CE56B9D50028004055D80B752
:101A4900A85DE4F9C3E55B98F570E55C99F57185E6
:101A5900705B85715CA868A969AA6AAB6B120444BA
:101A6900AC00AD01AE02AF03A862A963AA64AB657D
:101A790012042A85006C85016D85026E85036F85C8
:101A890070721206D0AC6CAD6DAE6EAF6F120260A3
:101A99007C007D007E0075073F1200CE1203E885A9
:101AA900006885016985026A85036BE55B455C60B1
:101AB900517C0A7D007E00750700A868A969AA6A99
:101AC900AB6B1205E7A804A905AA06AB07E8494AC2
:101AD9004B702F7C0A7D007E00750700A868A969F4
:101AE900AA6AAB6B1205E785006885016985026AF8
:101AF90085036BC3E55B9401F55BE55C9400F55CDC
:101B090080A9D3E55B940C74006480F8E55C64807B
:101B190098501D855B7212044BAC62AD63AE64AF25
:101B2900651200CE850062850163850264850365BF
:101B39007C007D007E00750700A862A963AA64ABDA
:101B490065120AE27004780080027801E870028167
:101B590003A862A963AA64AB651203E8E8494A4B82
:101B690060028103D3E566940174006480F8E56737
:101B7900648098500281038566721206D0AC00AD6C
:101B890001AE02AF03A862A963AA64AB65120B6731
:101B9900C37C5F7D707E89750740120AE240047834
:101BA9000080027801E8600FC3E5669409F566E5EF
:101BB900679400F567800DC3E5669408F566E567E7
:101BC9009400F5678566721206D0AC00AD01AE02CD
:101BD900AF03A862A963AA64AB65120B671203E895
:101BE90085006885016985026A85036B75620075E0
:101BF90063007564007565008047A862A963AA64DB
:101C0900AB651203E885006885016985026A850369
:101C19006BA868A969AA6AAB6B120444AC00AD0150
:101C2900AE02AF03A862A963AA64AB6512042A8550
:101C390000628501638502648503657566007567C1
:101C490000755D01E55D640A60437A02E4F9E55DCA
:101C59000A8005C333C933C9DAF9F8746328F874FB
:101C69002939F9850082850183E493FAE4A393FB7A
:101C7900E4A393FCE4A393FDC3E5689AE5699BE5B6
:101C89006A9CE56B9D50028004055D80B7E55D2582
:101C99005BF8E4355CF9E82566F8E93567F9C3E5E9
:101CA9005E98F55EE55F99F55FE5605400F8E561DA
:101CB9005408F9E8497008E55B455C7002800DC37A
:101CC900E55E9401F55EE55F9400F55F7403556088
:101CD900F874005561F9E849600DC3E55E9401F5B2
:101CE9005EE55F9400F55F74045560F87400556112
:101CF900F9E8497002A18A74025560F874005561C7
:101D0900F9E849602874015560F874005561F9E8EB
:101D1900496004792D8002792BA82CA601052C7421
:101D2900012559F5597400355AF55A802074015521
:101D390060F874005561F9E8496012A82C7620050D
:101D49002C74012559F5597400355AF55AD3E55EB5
:101D5900940074006480F8E55F6480984021A82CA1
:101D69007630052C74012559F5597400355AF55A00
:101D7900C3E55E9401F55EE55F9400F55F80CEC131
:101D89002074085560F874005561F9E8497032D338
:101D9900E55E940074006480F8E55F6480984021F2
:101DA900A82C7620052C74012559F5597400355A4B
:101DB900F55AC3E55E9401F55EE55F9400F55F8031
:101DC900CE74025560F874005561F9E849602874C9
:101DD900015560F874005561F9E8496004792D806E
:101DE90002792BA82CA601052C74012559F55974E3
:101DF90000355AF55A802074015560F87400556110
:101E0900F9E8496012A82C7620052C74012559F5AA
:101E1900597400355AF55AA85D155DE87002C18FED
:101E29007A02E4F9E55D0A8005C333C933C9DAF9F1
:101E3900F8746328FA742939FB850282850383E4DF
:101E490093FCE4A393FDE4A393FEE4A393F507A80D
:101E590068A969AA6AAB6B1205E77C0A7D007E0056
:101E69007507001205E7A804A905AA06AB0774308F
:101E790028F9A82CA601052C74012559F5597400D7
:101E8900355AF55AC120D3E566940074006480F888
:101E9900E5676480984021A82C7630052C740125CB
:101EA90059F5597400355AF55AC3E5669401F56632
:101EB900E5679400F56780CED3E55B940874006408
:101EC90080F8E55C6480984005755D088003855B52
:101ED9005DA85DE4F9C3E55B98F55BE55C99F55CA4
:101EE900E55D7010E5605400F8E5615408F9E849CA
:101EF90070028012A82C762E052C74012559F559EB
:101F09007400355AF55A855D721206D0AC62AD631C
:101F1900AE64AF651202601203E885006885016945
:101F290085026A85036BE55D7002E19D155D7A02A4
:101F3900E4F9E55D0A8005C333C933C9DAF9F874F0
:101F49006328FA742939FB850282850383E493FCAB
:101F5900E4A393FDE4A393FEE4A393F507A868A97A
:101F690069AA6AAB6B1205E77C0A7D007E007507DA
:101F7900001205E7A804A905AA06AB07743028F9D9
:101F8900A82CA601052C74012559F5597400355A58
:101F9900F55AE12FE55B455C6021A82C7630052CCC
:101FA90074012559F5597400355AF55AC3E55B94FE
:101FB90001F55BE55C9400F55C80D974085560F81F
:101FC90074005561F9E8496036D3E55E9400740000
:101FD9006480F8E55F6480984025A82C7620052C5C
:101FE90074012559F5597400355AF55AC3E55E94BB
:101FF90001F55EE55F9400F55FE55E455F70DB0224
:102009000C9574C05560F974005561FAE94A60028B
:1020190001AD74105560F874005561F9E849601B09
:10202900A82F8601876809876909876A09876BA8C4
:102039002FE62404F9A82FA6018027A82F86018757
:102049000209870319E733E495E0FCFD85026885F9
:10205900036985046A85056BA82FE62402F9A82F70
:10206900A601C3E5689400E5699400E56A940074E3
:10207900006480F8E56B64809850274360034361EE
:1020890000C374009568F874009569F97400956A3D
:10209900FA7400956BFB85006885016985026A857C
:1020A900036B804274105560F874005561F9E84972
:1020B900601BA82F8601876809876909876A0987CC
:1020C9006BA82FE62404F9A82FA6018019A82F864A
:1020D900018768098769E4F56AE4F56BA82FE624A6
:1020E90002F9A82FA601E55B455C7016E56845690C
:1020F900456A456B700C7401255BF55B7400355CB2
:10210900F55C74C05560F8AE0021FE755D01E55DB2
:10211900640A60437A02E4F9E55D0A8005C333C9BC
:1021290033C9DAF9F8746328F8742939F985008212
:10213900850183E493FAE4A393FBE4A393FCE4A36A
:1021490093FDC3E5689AE5699BE56A9CE56B9D503B
:10215900028004055D80B74118755D01E55D64087D
:1021690060437A02E4F9E55D0A8005C333C933C9DE
:10217900DAF9F8748B28F8742939F9850082850110
:1021890083E493FAE4A393FBE4A393FCE4A393FD10
:10219900C3E5689AE5699BE56A9CE56B9D500280F9
:1021A90004055D80B74118755D01E55D640C604308
:1021B9007A02E4F9E55D0A8005C333C933C9DAF95E
:1021C900F8743328F8742939F9850082850183E484
:1021D90093FAE4A393FBE4A393FCE4A393FDC3E57F
:1021E900689AE5699BE56A9CE56B9D500280040548
:1021F9005D80B7801AEE70022114EE64C07002216E
:1022090014EE648070022162EE6440700221B0C352
:10221900E55D955BE55C6480F8E46480985005852C
:102229005B5D8017A95DC3E55B99E46480F8E55CB3
:102239006480985006855D5BE4F55CE55E455F600A
:102249001B74035560F874005561F9E849600DC3C2
:10225900E55E9401F55EE55F9400F55FD3E55E9573
:102269005BE55C6480F8E55F648098400FC3E55ED8
:10227900955BF55EE55F955CF55F8006755E0075BB
:102289005F00E56054C4F9E5615408FAE9644070F7
:1022990003EA64087015E55E455F600DC3E55E9469
:1022A90001F55EE55F9400F55F803AE56054C0F999
:1022B900E5615408FAE964807003EA64087026D37A
:1022C900E55E940274006480F8E55F648098400FCD
:1022D900C3E55E9402F55EE55F9400F55F800675DF
:1022E9005E00755F0074045560F874005561F9E883
:1022F90049700261CF74025560F874005561F9E8BC
:1023090049602874015560F874005561F9E849601D
:1023190004792D8002792BA82CA601052C7401259E
:1023290059F5597400355AF55A61A274015560F886
:1023390074005561F9E8496014A82C7620052C74BD
:10234900012559F5597400355AF55A804CE5605400
:10235900C0F9E5615408FAE964807003EA64087019
:1023690038A82C7630052C74012559F55974003597
:102379005AF55A74205560F874005561F9E84960B6
:1023890004795880027978A82CA601052C740125B6
:1023990059F5597400355AF55AE55E455F6025A827
:1023A9002C7630052C74012559F5597400355AF5E8
:1023B9005AC3E55E9401F55EE55F9400F55FE55E5D
:1023C900455F70DB81D2E55E455F60337408556017
:1023D900F874005561F9E8497025A82C7620052C78
:1023E90074012559F5597400355AF55AC3E55E94B7
:1023F90001F55EE55F9400F55FE55E455F70DB74AE
:10240900025560F874005561F9E84960287401556E
:1024190060F874005561F9E8496004792D80027902
:102429002BA82CA601052C74012559F559740035E2
:102439005AF55A802074015560F874005561F9E81D
:10244900496012A82C7620052C74012559F5597478
:1024590000355AF55AE56054C0F9E5615408FAE9BE
:1024690064407003EA64087014A82C7630052C7453
:10247900012559F5597400355AF55A804CE56054CF
:10248900C0F9E5615408FAE964807003EA640870E8
:1024990038A82C7630052C74012559F55974003566
:1024A9005AF55A74205560F874005561F9E8496085
:1024B90004795880027978A82CA601052C74012585
:1024C90059F5597400355AF55AA95DD3E55B99E474
:1024D9006480F8E55C6480984014A82C7630052C5B
:1024E90074012559F5597400355AF55A80DBA85BF2
:1024F900A95CC3E55B9401F55BE55C9400F55CE8D8
:10250900497002C1AF74C05560F885006CC17D7A0D
:1025190002A95CE55B0A8005C333C933C9DAF9F856
:10252900746328FA742939FB850282850383E4934D
:10253900FCE4A393FDE4A393FEE4A393F507A86841
:10254900A969AA6AAB6B1205E77C0A7D007E007552
:1025590007001205E7A804A905AA06AB07743028E5
:10256900F55DC19B74205560F874005561F9E8491F
:102579007002A1D97A02A95CE55B0A8005C333C957
:1025890033C9DAF9F8748B28FA742939FB85028280
:10259900850383E493FCE4A393FDE4A393FEE4A3FE
:1025A90093F507A868A969AA6AAB6B1205E75300F6
:1025B9000F53010053020053030074DA28FC7429F5
:1025C90039FD850482850583E493F885005D805A89
:1025D9007A02A95CE55B0A8005C333C933C9DAF914
:1025E900F8748B28FA742939FB850282850383E400
:1025F90093FCE4A393FDE4A393FEE4A393F507A856
:1026090068A969AA6AAB6B1205E753000F53010069
:1026190053020053030074C928FC742939FD850449
:1026290082850583E493F885005DC19B7A02A95CE4
:10263900E55B0A8005C333C933C9DAF9F87433286D
:10264900FA742939FB850282850383E493FCE4A3A8
:1026590093FDE4A393FEE4A393F507A868A969AAE7
:102669006AAB6B1205E7740758F55D7830E55D28AC
:10267900F55D801EE56C7002A118E56C64C07002FE
:10268900A118E56C64807002A16DE56C644070026C
:10269900C135A82CA65D052C74012559F55974007E
:1026A900355AF55A81F774085560F874005561F97F
:1026B900E8496036D3E55E940074006480F8E55F0C
:1026C9006480984025A82C7620052C74012559F59D
:1026D900597400355AF55AC3E55E9401F55EE55F14
:1026E9009400F55FE55E455F70DB020C95A859A97A
:0226F9005A2263
:1026FB00758400C299852C9920990280FBC299227E
:10270B0075292385202C85212D85222E752F2912A5
:10271B000C8985002A85012B852A27852B28E52006
:0A272B00252AF87600A827A9282225
:10273500752100A8208622E522601085222CD1FB78
:0C2745000521E5202521F8862280EC22E9
:08275100E493F608A3D9F92274
:10275900750EFB750F2675102C750BFF750CFF7523
:102769000D007508FF7509FF750A0075840F43E1AF
:102779000443E34075840075985075C90875C8000D
:06278900759115D2CA2271
:10278F00852082852183E493F8601D852082852131
:10279F0083E493F9A822A601052274012520F520D0
:0D27AF0074003521F52180D8A82276002283
:10280000758180122A1B75FFDE75FFAD75840F750B
:102810008A8375840075EF0475840F758C60438C12
:10282000077EA07F15DFFEDEFC0000E58C5480F9FA
:102830006480600280F575970175E340D3E5A4924A
:10284000E0F5A475840075CAC175CBFE1227597DC9
:102850000D7E6E7FC7DFFEDEFCDDFA7520AB7521D5
:102860002975223412278F752034122735752011CF
:1028700075210C75222A85302385312485322585E2
:10288000332612270B7520EB752129752234122768
:102890008F752034122735752011122735752011B8
:1028A00075211675222A85302385312485322585A8
:1028B000332612270B7520F775212975223412272C
:1028C0008F75203412273575201112273575201188
:1028D00075211175222A853023853124853225857D
:1028E000332612270B7520F0752127752234122705
:0F28F0008F75203412273575201112273580FE81
:0E2A1B00783079047582FC75832712275122CA
:1027BC000000803FCDCCCC3D0AD7233C6F12833A2E
:1027CC0017B7D138ACC52737BD37863595BFD6334B
:1027DC0077CC2B325F708930FFE6DB2E08E53C1E90
:0427EC006042A20D98
:0C27F0000D0A6720666F726D61743A007C
:0427FC008E6649C1DB
:1028FF000000803F000020410000C84200007A44E1
:10290F0000401C460050C347002474498096184B62
:10291F0020BCBE4C286B6E4EF9021550EC78AD60A2
:04292F00CAF249712E
:102933000100000008000000400000000002000049
:1029430000100000008000000000040000002000D0
:10295300000000010000000800000040000000002B
:10296300010000000A00000064000000E80300000A
:1029730010270000A086010040420F0080969800B7
:0829830000E1F50500CA9A3BD2
:10298B00010000001000000000010000001000001A
:10299B00000001000000100000000001000000100A
:1029AB00466C6F6174696E6720706F696E7420720C
:0E29BB006570726573656E746174696F6E008D
:1029C900303132333435363738396162636465669C
:0129D90000FD
:1029DA00303132333435363738394142434445464B
:0129EA0000EC
:0C29EB000D0A6520666F726D61743A0081
:0C29F7000D0A6620666F726D61743A0074
:072A0300286E756C6C2900C0
:022A0A000000CA
:052A0C002531326500D8
:052A11002531326700D1
:052A16002531326600CD
:00000001FF
