:100000000200DF020000000000000002000000000B
:1000100000000002000000000000000200000000DC
:1000200000000002000000000000000200000000CC
:1000300000000002000000000000000200000000BC
:1000400000000002000000000000000200000000AC
:10005000000000020000000000000002000000009C
:10006000000000020000000000000000000000008E
:10007000000000020000000000000002000000007C
:10008000000000020000000000000002000000006C
:10009000000000020000000000000002000000005C
:0600A00000000002000058
:0A00A6007E107FD7DFFEDEFC002293
:1000B000A2B7B3E433F8E50A6200E8601FD3E509AC
:1000C0009400400811A611A6150980F1A2B7B3E467
:0F00D00033F8E50A6200E8600378FF2278002227
:1000DF0075818075FFDE75FFAD75840F758A837529
:1000EF00840075EF0475840F758C60438C077EA0B8
:1000FF007F15DFFEDEFC0000E58C5480F964806024
:10010F000280F575970175E340D3E5A592E6F5A555
:10011F0075B0FFD296C3E50892E0F5087509017531
:10012F000A0111B0E86007D3E50892E0F508E50889
:10013F0030E017750901750A0011B0E8600CA2963E
:0E014F00B39296C3E50892E0F50880D080FEDA
:00000001FF
