:100000000200A60200000000000000020000000044
:1000100000000002000000000000000200000000DC
:1000200000000002000000000000000200000000CC
:1000300000000002000000000000000200000000BC
:1000400000000002000000000000000200000000AC
:10005000000000020000000000000002000000009C
:10006000000000020000000000000000000000008E
:10007000000000020000000000000002000000007C
:10008000000000020000000000000002000000006C
:10009000000000020000000000000002000000005C
:0600A00000000002000058
:1000A60075818075FFDE75FFAD75840F758A837562
:1000B600840075EF0475840F758C60438C077EA3EE
:1000C6007F55DFFEDEFCE58C5480F964806002809B
:1000D600F575970175840043D10375D48075840145
:1000E60075D480750800750900C3E50894FFE50915
:1000F600940F500E74012508F50874003509F509AA
:1001060080147D407E6A7F97DFFEDEFCDDFA00000C
:100116007508007509007584008508D2A80979005C
:100126008500D37584018508D28500D37E217F762C
:09013600DFFEDEFC0080B280FE59
:00000001FF
