:10000000020A4D0200000000000000020000000093
:1000100000000002000000000000000200000000DC
:1000200000000002000000000000000200000000CC
:1000300000000002000000000000000200000000BC
:1000400000000002000000000000000200000000AC
:10005000000000020000000000000002000000009C
:10006000000000020000000000000000000000008E
:10007000000000020000000000000002000000007C
:10008000000000020000000000000002000000006C
:10009000000000020000000000000002000000005C
:0600A00000000002000058
:0700A6007F07DFFE000022CE
:0500AD00C000C00122AB
:1000B200758400C2FF857B9B20FF0280FBA89B22E8
:1000C2007901E578098002C333D9FCF8850078C24A
:1000D20085430040E854FEF9A80CA60108A80AA925
:1000E2000B11ADA80CA67908A80AA90B11ADA80C92
:1000F200A67A08A80AA90B11ADD28511A611A611DC
:02010200A62233
:100104007901E578098002C333D9FCF8850078C207
:1001140085430040E84401F9A80CA60108A80AA9EF
:100124000B11ADA80CA67908A80AA90B11ADA80C4F
:10013400760008A80AA90B11AD85007AD28511A60C
:0701440011A611A6A87A2202
:06014B007F51DFFE0022DF
:09015100857678757912310422DB
:0C015A0085767875791485777A11C222B9
:100166008508763151850074430010850074850832
:1001760076850077315A314BE57454EFF885007473
:09018600850876850077315A22C4
:0C018F0085747875791585757A11C22287
:0C019B0085747875790185757A11C2228F
:0901A70085747875791331042286
:1001B0008508763151850073E57354E7F84404F5FA
:1001C00073850876857377315A8508748572753121
:0401D0008F316622E3
:1001D400E572547FF8850072E85440F9601485088C
:1001E400763151E854FDF577437701850876315A25
:1001F40080128508763151E854FEF57743770285FD
:050204000876315A22CA
:100209008508763151E854F3F577850876315AE552
:0D0219007244B8F575850874318F31662286
:100226008508763151E854EFF57743770C850876E3
:10023600315A8508747575FF319B8508763151E80A
:100246004410F577850876315A85087431A78500FC
:10025600728508763151E854E7F577850876315A84
:0B026600850874757500319BA872229A
:1002710053727F8508763151E854F3F57785087616
:10028100315AE5724440F88500728508748500751D
:05029100318F316622EF
:10029600E88CF0A4AFF0C88DF0A42FC98CF0A42987
:0202A600F9223B
:1002A800E56C547FF885006C536D3F85007231D43E
:1002B8007803E56D088002C313D8FCF572510985EF
:1002C8006C72517151268500705126850070780333
:1002D800E56D088002C313D8FCF5725109856C726C
:1002E8005171E56D5407F885006FA9007401098004
:1002F80002C333D9FCF885006FE864FFF5718012FA
:10030800E5715270801CE56F42708016E56F62706F
:100318008010E56E60EAE56E640160EAE56E6402ED
:0803280060EA85707231B02219
:10033000D284D285C28411A611A6D28411A6C28508
:1003400074404529F854FEF9A80CA60108A80AA98A
:100350000B11ADA80C760A08A80AA90B11ADA80CC0
:10036000760808A80AA90B11ADD28511A611A6110D
:02037000A622C3
:0C037200852978757900852A7A11C2224D
:10037E00D3E529952A400985292D852A29852D2AF7
:10038E00D3E529952A500F85296C852B6D852C6E0A
:07039E0051A8052980EA22A5
:1003A500C3E529950DF8E4950EF9AC09E4FD5196E0
:1003B50085006A85016B852A725171852B725109F9
:1003C500752D00C3E5099401F9E49400FAD3E52DF0
:1003D50099EA6480F8E46480984002815E852A7217
:1003E50031D4852B725109852A72517151268500A8
:1003F5002E512685002E852A7231D4852B725109FE
:10040500852A725171E513256AF9E514356BFA856C
:100415000182850283E493F885002F7401256AF52E
:100425006A7400356BF56BE864FFF56980108569C2
:100435002E801B852F2E8016E52F622E8010E52C31
:1004450060ECE52C640160EBE52C640260EA852E26
:100455007231B0052A052D61C8852A7231D4852BE4
:10046500725109852A725171752FFF7569008014C3
:10047500852F2E852F7231B0801485692E8569727E
:0F04850031B0800AE52C60E8E52C640160EC22C0
:10049400D3E529952A400985292D852A29852D2AE0
:1004A400D3E529952A500F852B6C85296D852C6EF3
:0704B40051A8052980EA228E
:1004BB00C3E51C9518F9E51D9519FA85011F8502F1
:1004CB0020C3E51A9516F521E51B9517F522C3E90F
:1004DB00940074006480F8EA6480985015C374002B
:1004EB00951FF51F74009520F5207525FF7526FFC8
:1004FB008006752501752600C3E521940074006400
:10050B0080F8E5226480985015C374009521F5217D
:10051B0074009522F5227523FF7524FF8006752341
:10052B00017524007801E51F088007C333C520330C
:10053B00C520D8F7F51F7801E521088007C333C51F
:10054B002233C522D8F7F52185166C85186D851ECB
:10055B006E51A8D3E521951FE5206480F8E5226450
:10056B0080985002A1EF7A01E522A8210A8006A209
:10057B00E713C813C8DAF8F9C3E51F98F527E52088
:10058B0099F528E516651A7004E517651B6053C3CA
:10059B00E527940074006480F8E52864809840197E
:1005AB00E5182525F518E5193526F519C3E5279521
:1005BB0021F527E5289522F528E5162523F8E517DB
:1005CB003524F9850016850117E527251FF527E545
:1005DB00283520F52885006C85186D851E6E51A871
:1005EB0080A1C16B7A01E520A81F0A8006A2E71340
:1005FB00C813C8DAF8F9C3E52198F527E52299F570
:10060B0028E518651C7004E519651D6053C3E527C3
:10061B00940074006480F8E5286480984019E5160E
:10062B002523F516E5173524F517C3E527951FF593
:10063B0027E5289520F528E5182525F8E519352611
:10064B00F9850018850119E5272521F527E52835BA
:10065B0022F52885166C85006D851E6E51A880A12C
:01066B00226C
:10066C008508763151E854FEF57743770285087694
:10067C00315A751700C3E5179408501C8517725131
:10068C0009751800C3E5189440500985167231B0ED
:10069C00051880F0051780DD8508763151E854FD8A
:1006AC00F577437701850876315A751700C3E5173E
:1006BC009408501C8517725109751800C3E51894DD
:1006CC0040500985167231B0051880F0051780DD91
:0106DC0022FB
:0806DD00E493F608A3D9F92209
:1006E500750AB2750B00750C7B750FFF7510FF75DC
:1006F50011FF75840F43E10243E340758400759A49
:0407050040D2F822C4
:100709008516088516297130850874757500319B21
:10071900850829752A007172850876757722315AFC
:1007290085087475753F318F31668508747575C094
:10073900318F3166850876757721315A8508747548
:10074900753F318F31668508747575C0318F316693
:10075900750905751207751325751419750D207519
:030769000E00225D
:10076C00751900751A00751B00D3E5199407400321
:10077C0002080675720031D4851972510975720020
:10078C005171751800D3E518943F5028E516251AB9
:10079C00F9E517351BFA850182850283E493F88508
:1007AC00007231B07401251AF51A7400351BF51B53
:1007BC00051880D175724031D48519725109757242
:1007CC00405171751840D3E518947F5028E51625D3
:1007DC001AF9E517351BFA850182850283E493F833
:1007EC0085007231B07401251AF51A7400351BF5A9
:0B07FC001B051880D1051902077522AB
:10080700851613851714851A0D851B0E85180985FE
:0308170019122291
:10081A00751A00A816861BE51B6028E516251AF826
:10082A00862985172A85182B85192C1203A5E5090F
:10083A002401F8E51728F517051AE516251AF8868A
:04084A001B80D42219
:10084E0085162985182A85172B851A2C12037E8565
:10085E00162985182A85192B851A2C12037E8517C1
:10086E002985192A85162B851A2C12049485172989
:0D087E0085192A85182B851A2C1204942246
:0F088B007DF97E947FB5DFFEDEFCDDFA000022F2
:10089A0085171BD3E51B9519501385162985182A28
:0E08AA00851B2B851A2C12037E051B80E6226F
:1008B800751D00751E00751F0075200075210075D7
:1008C8002200C3E5189516F523E5199517F5248533
:1008D8001A1F851B207A01A91BE51A0A8005C33354
:1008E800C933C9DAF9F885001D85011EC374039858
:1008F800F51D740099F51E7401251FF97400352043
:10090800FAC3E52199EA6480F8E5226480984002F8
:10091800414CE5162521F56CE518251FF56D851C5C
:100928006E1202A8E5162521F56CC3E518951FF58A
:100938006D851C6E1202A8C3E5169521F56CE518A5
:10094800251FF56D851C6E1202A8C3E5169521F5C5
:100958006CC3E518951FF56D851C6E1202A8E51885
:10096800251FF56CC3E56C9523F56CE5182521F575
:100978006D851C6E1202A8E518251FF56CC3E56C81
:100988009523F56CC3E5189521F56D851C6E12024B
:10099800A8C3E518951FF56CC3E56C9523F56CE5C0
:1009A800182521F56D851C6E1202A8C3E518951F40
:1009B800F56CC3E56C9523F56CC3E5189521F56DC9
:1009C800851C6E1202A8C3E51D940074006480F8AB
:1009D800E51E64809850257A02A922E5210A80053F
:1009E800C333C933C9DAF9F8740628F8740039F939
:1009F800E51D28F51DE51E39F51E803AC3E521954C
:100A08001FFBE5229520FC7A02A904EB0A8005C3A6
:100A180033C933C9DAF9F8740A28F8740039F9E5E2
:100A28001D28F51DE51E39F51EC3E51F9401F51FA8
:100A3800E5209400F52074012521F5217400352264
:050A4800F52201FF2270
:100A4D00758180121C0175FFDE75FFAD75840F7504
:100A5D008A8375840075EF0475840F758C60438CE3
:100A6D00077EA07F15DFFEDEFC0000E58C5480F9CB
:100A7D006480600280F575970175E34043A4357578
:100A8D008400759D7A1206E5751600120709751614
:100A9D000012066C75163B75171312076C118B112E
:100AAD008B75160012066C75163E75172875187C19
:100ABD00751938751A01119A75160575170575187A
:100ACD0054751923751A01114E7516007517007599
:100ADD00183F751900751A7F751B00751C00751D63
:100AED0000751E011204BB118B751505C3E5159418
:100AFD003C50337D207E137F74DFFEDEFCDDFA007B
:100B0D00752902752A3685152B752C0112049475DD
:100B1D002902752A7885152B752C0112037EE51592
:100B2D002405F51580C6118B75160012066C751609
:100B3D003B75170C751808751908751A20751B006B
:100B4D001107751650751705751807751902111AC5
:100B5D00751501D3E515940A502575163F751700C7
:100B6D007518207519008515F07403A4F8E5F0F9D2
:100B7D0085001A85011B751C0111B8051580D4114E
:100B8D008B75160C75171475184675193F751A0265
:100B9D00119A118B7516FF12066C75163B75170C95
:100BAD00751808751907751A20751B00110775162C
:100BBD0047751705751801751902111A118B7516E0
:100BCD000575171B751803751905751A20751B000A
:100BDD001107751657751705751803751902111A32
:100BED00118B751625751719751805751907751A51
:100BFD0020751B00110775163E75170575180575BF
:100C0D001902111A118B75163B7517177518057585
:100C1D001907751A20751B00110775163075170504
:0E0C2D00751807751902111A118B41A180FE6E
:101C0100783079207582C875831B1206DD7850798A
:101C1100077582FA75831B1206DD78577912758272
:081C2100E875831B1206DD22A9
:100C3B00000000000000000000065F5F06000000DF
:100C4B000007070007070000147F7F147F7F140045
:100C5B00242E6B6B3A120000466630180C6662004D
:100C6B00307A4F5D377A480004070300000000001C
:100C7B00001C3E63410000000041633E1C0000006D
:100C8B00082A3E1C1C3E2A0808083E3E08080000A5
:100C9B000080E06000000000080808080808000059
:100CAB0000006060000000006030180C06030100BB
:100CBB003E7F71594D7F3E0040427F7F4040000098
:100CCB00627359496F660000226349497F36000001
:100CDB00181C16537F7F5000276745457D39000050
:100CEB003C7E4B4979300000030371790F070000FC
:100CFB00367F49497F360000064F49693F1E000089
:100D0B0000006666000000000080E6660000000040
:100D1B00081C3663410000002424242424240000F2
:100D2B00004163361C080000020351590F060000F6
:100D3B003E7F415D5D1F1E007C7E13137E7C000099
:100D4B00417F7F49497F36001C3E6341416322004E
:100D5B00417F7F41633E1C00417F7F495D416300C2
:100D6B00417F7F491D0103001C3E6341517372009B
:100D7B007F7F08087F7F000000417F7F41000000DC
:100D8B00307040417F3F0100417F7F081C7763003B
:100D9B00417F7F41406070007F7F0E1C0E7F7F0084
:100DAB007F7F060C187F7F001C3E6341633E1C0057
:100DBB00417F7F49090F06001E3F21717F5E0000B6
:100DCB00417F7F09197F6600266F4D5973320000F2
:100DDB0003417F7F410300007F7F40407F7F000006
:100DEB001F3F60603F1F00007F7F3018307F7F0008
:100DFB0043673C183C674300074F78784F07000068
:100E0B00476371594D677300007F7F4141000000BC
:100E1B000103060C183060000041417F7F00000089
:100E2B00080C0603060C0800808080808080808080
:100E3B000000030704000000207454543C78400069
:100E4B00417F3F4848783000387C44446C28000090
:100E5B00307848493F7F4000387C54545C18000080
:100E6B00487E7F490302000098BCA4A4F87C0400D0
:100E7B00417F7F08047C780000447D7D40000000AA
:100E8B0060E08080FD7D0000417F7F10386C440066
:100E9B0000417F7F400000007C7C18381C7C780070
:100EAB007C7C04047C780000387C44447C38000053
:100EBB0084FCF8A4243C1800183C24A4F8FC8400FF
:100ECB00447C784C041C1800485C54547424000077
:100EDB0000043E7F442400003C7C40403C7C4000AE
:100EEB001C3C60603C1C00003C7C7038707C3C00FF
:100EFB00446C3810386C44009CBCA0A0FC7C0000F7
:100F0B004C64745C4C64000008083E77414100005F
:100F1B0000000077770000004141773E0808000091
:100F2B00020301030203010070784C464C787000F9
:100F3B000E9F91B1FB4A00003A7A40407A7A40000A
:100F4B00387C54555D19000002237555557D7B4245
:100F5B00217554547D794000217555547C7840009F
:100F6B00207457577C784000183CA4A4E440000040
:100F7B00023B7D55555D1B02397D54545D190000B4
:100F8B00397D55545C18000001457C7C4101000003
:100F9B000203457D7D43020001457D7C400000003E
:100FAB00797D1612167D790070782B2B78700000E6
:100FBB00447C7C5555450000207454547C7C54541F
:100FCB007C7E0B097F7F4900327B49497B320000D5
:100FDB00327A48487A320000327A4A487830000038
:100FEB003A7B41417B7A40003A7A42407878400024
:100FFB009ABAA0A0FA7A000001193C66663C190166
:10100B003D7D40407D3D0000183C24E7E724240053
:10101B00687E7F49436620002B2FFCFC2F2B0000A2
:10102B00FFFF09092FF6F8A040C088FE7F090302D5
:10103B00207454557D79400000447D7D41000000B3
:10104B003078484A7A320000387840427A7A400049
:10105B007A7A0A0A7A7000007D7D19317D7D000055
:10106B0000262F292F2F280000262F292F2600009E
:10107B0030784D456020000038380808080800001B
:10108B0008080808383800004F6F3018CCEEBB91B9
:10109B004F6F30186C76FBF90000007B7B00000073
:1010AB00081C3622081C362222361C0822361C0845
:1010BB00AA005500AA005500AA55AA55AA55AA552B
:1010CB00DDFFAA77DDAAFF77000000FFFF0000001D
:1010DB00101010FFFF000000141414FFFF0000009D
:1010EB001010FFFF00FFFF001010F0F010F0F000E9
:1010FB00141414FCFC0000001414F7F700FFFF009D
:10110B000000FFFF00FFFF001414F4F404FCFC00CC
:10111B0014141717101F1F0010101F1F101F1F0074
:10112B001414141F1F000000101010F0F00000002A
:10113B000000001F1F1010101010101F1F10101098
:10114B00101010F0F0101010000000FFFF10101026
:10115B001010101010101010101010FFFF101010A6
:10116B00000000FFFF1414140000FFFF00FFFF102E
:10117B0000001F1F101717140000FCFC04F4F414DC
:10118B0014141717101717141414F4F404F4F4149C
:10119B000000FFFF00F7F7141414141414141414A4
:1011AB001414F7F700F7F714141414171714141476
:1011BB0010101F1F101F1F10141414F4F414141408
:1011CB001010F0F010F0F01000001F1F101F1F1078
:1011DB000000001F1F141414000000FCFC14141456
:1011EB000000F0F010F0F0101010FFFF10FFFF10D8
:1011FB00141414FFFF1414141010101F1F00000000
:10120B00000000F0F0101010FFFFFFFFFFFFFFFFCB
:10121B00F0F0F0F0F0F0F0F0FFFFFFFF0000000047
:10122B0000000000FFFFFFFF0F0F0F0F0F0F0F0F3F
:10123B00387C446C386C4400FCFE2A2A3E140000B7
:10124B007E7E020206060000027E7E027E7E020089
:10125B0063775D4963630000387C447C3C04040085
:10126B0080FE7E20203E1E000406027E7C060200CD
:10127B0099BDE7E7BD9900001C3E6B496B3E1C0016
:10128B004C7E7301737E4C0030784A4F7D390000E1
:10129B00183C243C3C243C1898FC643C3E273D18ED
:1012AB001C3E6B49490000007E7F01017F7E0000E0
:1012BB002A2A2A2A2A2A000044445F5F4444000059
:1012CB0040515B4E4440000040444E5B5140000097
:1012DB00000000FEFF01070660E080FF7F000000BA
:1012EB0008086B6B080800002436123624361200EF
:1012FB0000060F090F060000000000181800000080
:10130B000000001010000000103070C0FFFF010142
:10131B00001F1F011F1E000000191D1712000000E7
:10132B0000003C3C3C3C000000000E1F11111F0E46
:10133B000000000000F80808080808080C0C0C0C4A
:10134B000C0A0A0A0A0A0A090909090909090909F9
:10135B0009090909090909090909898989898989F2
:10136B008989898989898909090909090909090962
:10137B0009090DFD0DC306FC000000000000000074
:10138B000000000000000000000000000000000052
:10139B000000000000000000000000000000000042
:1013AB000000000000000000000000000000000032
:1013BB000000000000FF0000000000000000000023
:1013CB00F0F0F0F0F0E0E0F0F0F0F0F0E0C0C0E0B2
:1013DB00F0F0F0F0F0E0C0000000FFFFFFFFFFC3F4
:1013EB00C3C3C3C3C3C3030000000000000000005D
:1013FB00000000FFF04FE0FF606060202020202005
:10140B002020202020202020404040408000000051
:10141B0000000000000000000000000000000000C1
:10142B0000000000000000000000000000000000B1
:10143B000000000000FF00000000000000000000A2
:10144B00FFFFFFFFFF00000000FFFFFFFFFF00009B
:10145B000000FFFFFFFFFF000000FFFFFFFFFF810A
:10146B0081818181818180000000000000000000EB
:10147B00000000FF01F80808080808080808080819
:10148B000808080810E01824C446828285D96670C3
:10149B00A0C060602020A0A0E0E0C040408080C0E1
:1014AB004080000000000000000000000000000071
:1014BB0000000000003F606060E0606060606060A2
:1014CB0063636363636060606063636363636060F3
:1014DB0060606363636363606060636363636363E0
:1014EB00636363636363636060606060606040401C
:1014FB0040E0E0FFF6010E060602020202020202C3
:10150B00020202028243723E231010000703030201
:10151B00040404040404041C1010101111090929FB
:10152B0070204305F07EAE80380000000000000004
:10153B000000000000000000000101010101010199
:10154B0001017F7F7F7FFFFFF7FB7BBF5F5D7DBD72
:10155B00BD3F5D59B173F3E5CF1B3F77FFCFBFFFA6
:10156B00FFFFFFFFFFFFFF7F7F7F7F7F7F7F7FFF80
:10157B00FFFF7F7F7D7878787878F878787878783F
:10158B0078F8F8E88F000000000000000080F0F809
:10159B0078BCDC5CFC1C1C3C5C5C3C78F8F860C0E8
:1015AB008FA8D88831444832A060000000000000AA
:1015BB0000000080C0F8F8F8F8FCFEFEFEFEFEFE10
:1015CB00FEFEFEFEFEFFFFFFFFFFF6EFD0F6AEAD19
:1015DB00A980D1D0E0F7F9FFFFFCDCF07FFFDFFF44
:1015EB00FFFFFFFFFFFEFEFFFFFFFFFFFFFFFEFF03
:1015FB00FFFFFFFFFFFFFEFEFEFEFEFEFEFEFEFEFA
:10160B00FEFEFEFEFFFFFFFFFFFFFEFFBEFFFFFD27
:10161B00F0EFDDDFFEA888AAC4D0E4E6F87F7E9C5D
:10162B00DFE2F2F2F2F2F2B1200000000000000063
:10163B000000000101010103030307070707070F60
:10164B000F0F070F0F0F07070F0E0F0D0F2F2B2B62
:10165B002B2B2B2F6FEFFFFDFDFFFEFFFFFFFFFF80
:10166B00BFBFEFEFEFBFFFBFFFFFFFFFFFFFFFFFAF
:10167B00FFFFFFFFFFFFFFFFFFFFFFFFFFFFFFFF6F
:10168B00FFFFFFFF7F7F7F7FFFFFBFBFBFBFFFFE60
:10169B00FFFDFFFFFFFBFFFFFF7F7D3F1F1F1F1F97
:1016AB001F1F3F0F0F07070303030000000000007D
:1016BB00000000000000000000000000000000001F
:1016CB00000000000000000000000000000000000F
:1016DB0000000000000000000000000000010100FD
:1016EB0001010000000000000000000001010101E9
:1016FB00010101010303030B0B0B0B07030E060682
:10170B000602121313031715151101131303060603
:10171B000E0F0F070F0F0F0B020000000000000051
:10172B0000000000000000000000000000000000AE
:10173B00000000000000004F00000007000700142D
:10174B007F147F14242A7F2A1223130864623649DC
:10175B005522200005030000001C224100004122FD
:10176B001C0014083E081408083E080850300000FE
:10177B000008080808080060600000201008040238
:10178B003E5149453E00427F40004261514946214E
:10179B0041454B311814127F1027454545393C4ABA
:1017AB00494930017109050336494949360649490A
:1017BB00291E003636000000563600000814224160
:1017CB0000141414141400412214080201510906C8
:1017DB003E415D551E7E1111117E7F494949363EB2
:1017EB00414141227F4141221C7F494949417F09A7
:1017FB000909013E4149497A7F0808087F00417F6A
:10180B0041002040413F017F081422417F4040406E
:10181B00407F020C027F7F0408107F3E4141413E16
:10182B007F090909063E4151215E7F091929462688
:10183B004949493201017F01013F4040403F1F2090
:10184B0040201F3F4038403F631408146307087063
:10185B0008076151494543007F41410002040810CC
:10186B00200041417F0004020102044040404040FF
:10187B00000003050020545454787F444444383806
:10188B0044444444384444447F3854545418040466
:10189B007E0505085454543C7F0804047800447DAD
:1018AB0040002040443D007F1028440000417F4011
:1018BB00007C047C04787C08040478384444443865
:1018CB007C14141408081414147C7C0804040048B9
:1018DB005454542404043F44443C4040207C1C207A
:1018EB0040201C3C4030403C44281028440C5050B5
:1018FB00503C4464544C440836414100000077008E
:10190B0000004141360808082A1C08081C2A080850
:0A191B00FFFFFFFFFF0609090600A9
:10192500000000000000005F000000070007001431
:101935007F147F14242A7F2A1223130864623649F0
:101945005522500005030000001C224100004122E1
:101955001C00082A1C2A0808083E08080050300008
:1019650000080808080800303000002010080402AC
:101975003E5149453E00427F400042615149462162
:1019850041454B311814127F1027454545393C4ACE
:10199500494930017109050336494949360649491E
:1019A500291E0036360000005636000000081422B5
:1019B500411414141414412214080002015109069B
:1019C500324979413E7E1111117E7F494949363EA2
:1019D500414141227F4141221C7F494949417F09BB
:1019E5000901013E414151327F0808087F00417FCE
:1019F50041002040413F017F081422417F40404083
:101A0500407F0204027F7F0408107F3E4141413E32
:101A15007F090909063E4151215E7F09192946467C
:101A25004949493101017F01013F4040403F1F20A5
:101A350040201F7F2018207F631408146303047857
:101A45000403615149454300007F414102040810E8
:101A55002041417F00000402010204404040404013
:101A6500000102040020545454787F484444383817
:101A750044444420384444487F3854545418087E1C
:101A8500090102081454543C7F0804047800447D7D
:101A950040002040443D00007F10284400417F4025
:101AA500007C041804787C080404783844444438DD
:101AB5007C14141408081414187C7C0804040848C1
:101AC50054545420043F4440203C4040207C1C207A
:101AD50040201C3C4030403C44281028440C5050C9
:101AE500503C4464544C44000836410000007F00DB
:101AF50000004136080008082A1C08081C2A0808A6
:101B0500000000005C000C000C7C287C7C447C24DC
:101B15001048285408000C003844004438002010B0
:101B250008103810804000101010004000201008E8
:101B3500384438007C006454484454281C107C4CBC
:101B4500542438542004740C285428085438005060
:101B550000805000102844282828442810045408E0
:101B6500384C5C7814787C54283844447C44387C60
:101B750054447C14043844347C107C007C002040A0
:101B85003C7C106C7C40407C087C7C047C7C447CE8
:101B95007C14083844787C1468485424047C047CFC
:101BA500407C3C403C7C207C6C106C1C601C64546C
:101BB5004C7C4400081020447C0008040880808088
:031BC50004080011
:0E1BC80035783720466F6E742028763229005B
:091BD60035783720466F6E74006B
:091BDF0038783720466F6E74005F
:101BE800335835204341504954414C53204F4E4CB3
:021BF800590092
:071BFA006D696B726F45007D
:00000001FF
