:1000000002078D0200000000000000020000000056
:1000100000000002000000000000000200000000DC
:0E0020000000000200000000000000020000CE
:06002E007F03DFFE00224B
:020034000022A8
:09003600112ED2A4112EC2A42245
:10003F007580FF11341134D2A2C2A4D2A3D2A4115D
:0F004F002E85806CC2A4C2A311341134A86C2278
:0C005E00C2A4D2A2C2A3856C801136227D
:10006A00E56C547FF885006CC2A2C2A35300BF8519
:0E007A00006C43004085006C8500801136222A
:10008800E56C547FF885006C530040E86006D2A008
:09009800C2A18004C2A0D2A12281
:0D00A100C2A2C2A3E56C44B8F5801136225E
:1000AE00E88CF0A4AFF0C88DF0A42FC98CF0A42971
:0200BE00F92225
:1000C000E52D547FF885002D532E3F85006C118857
:1000D0007803E52E088002C313D8FCF56C11A185C6
:1000E0002D6C116A113F85006B113F85006B780301
:1000F000E52E088002C313D8FCF56C11A1852D6C88
:10010000116AE52E5407F8850069A9007401098079
:1001100002C333D9FCF8850069E864FFF56A8012F0
:10012000E56A526B801CE569426B8016E569626B7B
:100130008010E52F60EAE52F640160EAE52F640294
:0801400060EA856B6C115E2280
:10014800D3E523952440098523278524238527245F
:10015800D3E5239524500F85232D85252E85262F1D
:0701680011C0052380EA220B
:10016F00D3E5239524400985232785242385272438
:10017F00D3E5239524500F85252D85232E85262FF6
:07018F0011C0052380EA22E4
:10019600C3E5239508F8E49509F9AC0EE4FD11AE24
:1001A60085002B85012C85246C116A85256C11A18F
:1001B600752700C3E527950E4002413E85246C1144
:1001C6008885256C11A185246C116A113F8500284C
:1001D600113F85002885246C118885256C11A18521
:1001E600246C116AE50C252BF9E50D352CFA8501F1
:1001F60082850283E493F88500297401252BF52B6B
:100206007400352CF52CE864FFF52A8010852A2821
:10021600801B8529288016E52962288010E526603E
:10022600ECE526640160EBE526640260EA85286C4D
:10023600115E0524052721B985246C118885256C56
:1002460011A185246C116A7529FF752A0080148511
:10025600292885296C115E8014852A28852A6C1127
:0E0266005E800AE52660E8E526640160EC2271
:10027400751300751400751500D3E5139407400237
:10028400610C756C00118885136C11A1756C0011DB
:100294006A751200D3E512943F5028E5102514F92D
:1002A400E5113515FA850182850283E493F885000A
:1002B4006C115E74012514F51474003515F51505DB
:1002C4001280D1756C40118885136C11A1756C4036
:1002D400116A751240D3E512947F5028E510251455
:1002E400F9E5113515FA850182850283E493F885D1
:1002F400006C115E74012514F51474003515F515A0
:09030400051280D10513417D2290
:0D030D007D0D7EAB7F7CDFFEDEFCDDFA2285
:08031A00E493F608A3D9F922CF
:10032200750A00C2A5C2A2C2A3D2A51134C2A0D22C
:10033200A175803F11367580C01136D2A0C2A17559
:0A034200803F11367580C01136228D
:10034C00C2A0D2A1751200D3E5129407501C8512DD
:10035C006C11A1751100D3E511943F500985106CF7
:10036C00115E051180F0051280DDC2A1D2A07512BC
:10037C0000D3E5129407501C85126C11A175110065
:10038C00D3E511943F500985106C115E051180F076
:05039C00051280DD22C6
:1003A100851115D3E5159513501285102385122457
:0D03B1008515258514263148051580E722A5
:1003BE00C3E5149510F9E5159511FA850119850215
:1003CE001AC3E5169512F51BE5179513F51CC3E92F
:1003DE00940074006480F8EA6480985015C3740029
:1003EE009519F5197400951AF51A751DFF751EFFEE
:1003FE008006751D01751E00C3E51B940074006414
:10040E0080F8E51C6480985015C37400951BF51B8D
:10041E007400951CF51C751FFF7520FF8006751F57
:10042E00017520007801E519088007C333C51A331A
:10043E00C51AD8F7F5197801E51B088007C333C52F
:10044E001C33C51CD8F7F51B85102D85122E85186B
:10045E002F11C0D3E519951BE51C6480F8E51A64CD
:10046E008098500281F27A01E51AA8190A8006A234
:10047E00E713C813C8DAF8F9C3E51B98F521E51C94
:10048E0099F522E51065147004E51165156053C3E6
:10049E00E521940074006480F8E522648098401988
:1004AE00E512251FF512E5133520F513C3E5219549
:1004BE0019F521E522951AF522E510251DF8E5110D
:1004CE00351EF9850010850111E521251BF521E565
:1004DE0022351CF52285002D85122E85182F11C070
:1004EE0080A1A16E7A01E51CA81B0A8006A2E71363
:1004FE00C813C8DAF8F9C3E51998F521E51A99F584
:10050E0022E51265167004E51365176053C3E521E5
:10051E00940074006480F8E5226480984019E51018
:10052E00251DF510E511351EF511C3E521951BF5B9
:10053E0021E522951CF522E512251FF8E51335203D
:10054E00F9850012850113E5212519F521E52235DE
:10055E001AF52285102D85002E85182F11C080A129
:01056E00226A
:10056F00751700751800751900751A00751B007541
:10057F001C00C3E5129510F51DE5139511F51E85A9
:10058F00141985151A7A01A915E5140A8005C333C4
:10059F00C933C9DAF9F8850017850118C3740398B0
:1005AF00F517740099F51874012519F97400351AA7
:1005BF00FAC3E51B99EA6480F8E51C648098400251
:1005CF00C1FBE510251BF52DE5122519F52E851616
:1005DF002F11C0E510251BF52DC3E5129519F52E2A
:1005EF0085162F11C0C3E510951BF52DE5122519A2
:1005FF00F52E85162F11C0C3E510951BF52DC3E5FC
:10060F00129519F52E85162F11C0E5122519F52D06
:10061F00C3E52D951DF52DE512251BF52E85162FFE
:10062F0011C0E5122519F52DC3E52D951DF52DC327
:10063F00E512951BF52E85162F11C0C3E5129519DE
:10064F00F52DC3E52D951DF52DE512251BF52E85F1
:10065F00162F11C0C3E5129519F52DC3E52D951D64
:10066F00F52DC3E512951BF52E85162F11C0C3E589
:10067F0017940074006480F8E51864809850257A08
:10068F0002A91CE51B0A8005C333C933C9DAF9F87F
:10069F00740628F8740039F9E51728F517E51839A5
:1006AF00F518803AC3E51B9519FBE51C951AFC7AE2
:1006BF0002A904EB0A8005C333C933C9DAF9F87408
:1006CF000A28F8740039F9E51728F517E51839F5F0
:1006DF0018C3E5199401F519E51A9400F51A740178
:0D06EF00251BF51B7400351CF51CA1B6225F
:1006FC0085100C85110D85140885150985120E853C
:06070C00130B750A012227
:1007120085102385122485112585142631488510DC
:1007220023851224851325851426314885112385B6
:100732001324851025851426316F851123851324F2
:09074200851225851426316F2271
:10074B00751400E50A7012750E05750B07750C2EE6
:10075B00750D16750820750900E5102514F8E6606F
:10076B0020E5102514F88623851124851225851381
:10077B00263196E50E2401F8E51128F511051480B4
:02078B00D82272
:10078D0075818012190A7122751000714C75104413
:10079D007511105174710D710D751000714C75102E
:1007AD003E75112875127C75133875140171A1757C
:1007BD001005751105751254751323751401F11279
:1007CD0075100075110075120075130075147F7585
:1007DD00150075163F75170075180171BE710D75F1
:1007ED000F05C3E50F943C50327D027E967F4DDFA1
:1007FD00FEDEFCDDFA752302752436850F25752680
:10080D000112016F752302752478850F2575260158
:10081D00120148E50F2405F50F80C712030D751061
:10082D000012034C751044751109751208751307E4
:10083D007514207515001206FC7510507511017593
:10084D00120775130212074B750F01D3E50F940AAA
:10085D00502675103F751100751220751300850F08
:10086D00F07403A4F8E5F0F98500148501157516EB
:10087D000112056F050F80D312030D75100C751144
:10088D00147512467513397514021203A112030D56
:10089D007510FF12034C751044751109751208750A
:1008AD0013077514207515001206FC751047751188
:1008BD000575120075130212074B12030D75100EFC
:1008CD007511187512037513057514207515001221
:1008DD0006FC75105775113C75120275130212073F
:1008ED004B12030D75102E75111675120575130724
:1008FD007514207515001206FC75103E75110575E1
:10090D00120475130212074B12030D751044751165
:10091D00147512057513077514207515001206FC54
:10092D0075103075110575120675130212074B12ED
:07093D00030D02079A80FE82
:10190A00783079207582D175831812031A78507944
:10191A000775820375831912031A7857791275822B
:08192A00F175831812031A2263
:10094400000000000000000000065F5F06000000D9
:100954000007070007070000147F7F147F7F14003F
:10096400242E6B6B3A120000466630180C66620047
:10097400307A4F5D377A4800040703000000000016
:10098400001C3E63410000000041633E1C00000067
:10099400082A3E1C1C3E2A0808083E3E080800009F
:1009A4000080E06000000000080808080808000053
:1009B40000006060000000006030180C06030100B5
:1009C4003E7F71594D7F3E0040427F7F4040000092
:1009D400627359496F660000226349497F360000FB
:1009E400181C16537F7F5000276745457D3900004A
:1009F4003C7E4B4979300000030371790F070000F6
:100A0400367F49497F360000064F49693F1E000082
:100A140000006666000000000080E666000000003A
:100A2400081C3663410000002424242424240000EC
:100A3400004163361C080000020351590F060000F0
:100A44003E7F415D5D1F1E007C7E13137E7C000093
:100A5400417F7F49497F36001C3E63414163220048
:100A6400417F7F41633E1C00417F7F495D416300BC
:100A7400417F7F491D0103001C3E63415173720095
:100A84007F7F08087F7F000000417F7F41000000D6
:100A9400307040417F3F0100417F7F081C77630035
:100AA400417F7F41406070007F7F0E1C0E7F7F007E
:100AB4007F7F060C187F7F001C3E6341633E1C0051
:100AC400417F7F49090F06001E3F21717F5E0000B0
:100AD400417F7F09197F6600266F4D5973320000EC
:100AE40003417F7F410300007F7F40407F7F000000
:100AF4001F3F60603F1F00007F7F3018307F7F0002
:100B040043673C183C674300074F78784F07000061
:100B1400476371594D677300007F7F4141000000B6
:100B24000103060C183060000041417F7F00000083
:100B3400080C0603060C080080808080808080807A
:100B44000000030704000000207454543C78400063
:100B5400417F3F4848783000387C44446C2800008A
:100B6400307848493F7F4000387C54545C1800007A
:100B7400487E7F490302000098BCA4A4F87C0400CA
:100B8400417F7F08047C780000447D7D40000000A4
:100B940060E08080FD7D0000417F7F10386C440060
:100BA40000417F7F400000007C7C18381C7C78006A
:100BB4007C7C04047C780000387C44447C3800004D
:100BC40084FCF8A4243C1800183C24A4F8FC8400F9
:100BD400447C784C041C1800485C54547424000071
:100BE40000043E7F442400003C7C40403C7C4000A8
:100BF4001C3C60603C1C00003C7C7038707C3C00F9
:100C0400446C3810386C44009CBCA0A0FC7C0000F0
:100C14004C64745C4C64000008083E774141000059
:100C240000000077770000004141773E080800008B
:100C3400020301030203010070784C464C787000F3
:100C44000E9F91B1FB4A00003A7A40407A7A400004
:100C5400387C54555D19000002237555557D7B423F
:100C6400217554547D794000217555547C78400099
:100C7400207457577C784000183CA4A4E44000003A
:100C8400023B7D55555D1B02397D54545D190000AE
:100C9400397D55545C18000001457C7C41010000FD
:100CA4000203457D7D43020001457D7C4000000038
:100CB400797D1612167D790070782B2B78700000E0
:100CC400447C7C5555450000207454547C7C545419
:100CD4007C7E0B097F7F4900327B49497B320000CF
:100CE400327A48487A320000327A4A487830000032
:100CF4003A7B41417B7A40003A7A4240787840001E
:100D04009ABAA0A0FA7A000001193C66663C19015F
:100D14003D7D40407D3D0000183C24E7E72424004D
:100D2400687E7F49436620002B2FFCFC2F2B00009C
:100D3400FFFF09092FF6F8A040C088FE7F090302CF
:100D4400207454557D79400000447D7D41000000AD
:100D54003078484A7A320000387840427A7A400043
:100D64007A7A0A0A7A7000007D7D19317D7D00004F
:100D740000262F292F2F280000262F292F26000098
:100D840030784D4560200000383808080808000015
:100D940008080808383800004F6F3018CCEEBB91B3
:100DA4004F6F30186C76FBF90000007B7B0000006D
:100DB400081C3622081C362222361C0822361C083F
:100DC400AA005500AA005500AA55AA55AA55AA5525
:100DD400DDFFAA77DDAAFF77000000FFFF00000017
:100DE400101010FFFF000000141414FFFF00000097
:100DF4001010FFFF00FFFF001010F0F010F0F000E3
:100E0400141414FCFC0000001414F7F700FFFF0096
:100E14000000FFFF00FFFF001414F4F404FCFC00C6
:100E240014141717101F1F0010101F1F101F1F006E
:100E34001414141F1F000000101010F0F000000024
:100E44000000001F1F1010101010101F1F10101092
:100E5400101010F0F0101010000000FFFF10101020
:100E64001010101010101010101010FFFF101010A0
:100E7400000000FFFF1414140000FFFF00FFFF1028
:100E840000001F1F101717140000FCFC04F4F414D6
:100E940014141717101717141414F4F404F4F41496
:100EA4000000FFFF00F7F71414141414141414149E
:100EB4001414F7F700F7F714141414171714141470
:100EC40010101F1F101F1F10141414F4F414141402
:100ED4001010F0F010F0F01000001F1F101F1F1072
:100EE4000000001F1F141414000000FCFC14141450
:100EF4000000F0F010F0F0101010FFFF10FFFF10D2
:100F0400141414FFFF1414141010101F1F000000F9
:100F1400000000F0F0101010FFFFFFFFFFFFFFFFC5
:100F2400F0F0F0F0F0F0F0F0FFFFFFFF0000000041
:100F340000000000FFFFFFFF0F0F0F0F0F0F0F0F39
:100F4400387C446C386C4400FCFE2A2A3E140000B1
:100F54007E7E020206060000027E7E027E7E020083
:100F640063775D4963630000387C447C3C0404007F
:100F740080FE7E20203E1E000406027E7C060200C7
:100F840099BDE7E7BD9900001C3E6B496B3E1C0010
:100F94004C7E7301737E4C0030784A4F7D390000DB
:100FA400183C243C3C243C1898FC643C3E273D18E7
:100FB4001C3E6B49490000007E7F01017F7E0000DA
:100FC4002A2A2A2A2A2A000044445F5F4444000053
:100FD40040515B4E4440000040444E5B5140000091
:100FE400000000FEFF01070660E080FF7F000000B4
:100FF40008086B6B080800002436123624361200E9
:1010040000060F090F060000000000181800000079
:101014000000001010000000103070C0FFFF01013C
:10102400001F1F011F1E000000191D1712000000E1
:1010340000003C3C3C3C000000000E1F11111F0E40
:101044000000000000F80808080808080C0C0C0C44
:101054000C0A0A0A0A0A0A090909090909090909F3
:1010640009090909090909090909898989898989EC
:10107400898989898989890909090909090909095C
:1010840009090DFD0DC306FC00000000000000006E
:10109400000000000000000000000000000000004C
:1010A400000000000000000000000000000000003C
:1010B400000000000000000000000000000000002C
:1010C4000000000000FF000000000000000000001D
:1010D400F0F0F0F0F0E0E0F0F0F0F0F0E0C0C0E0AC
:1010E400F0F0F0F0F0E0C0000000FFFFFFFFFFC3EE
:1010F400C3C3C3C3C3C30300000000000000000057
:10110400000000FFF04FE0FF6060602020202020FE
:10111400202020202020202040404040800000004B
:1011240000000000000000000000000000000000BB
:1011340000000000000000000000000000000000AB
:101144000000000000FF000000000000000000009C
:10115400FFFFFFFFFF00000000FFFFFFFFFF000095
:101164000000FFFFFFFFFF000000FFFFFFFFFF8104
:1011740081818181818180000000000000000000E5
:10118400000000FF01F80808080808080808080813
:101194000808080810E01824C446828285D96670BD
:1011A400A0C060602020A0A0E0E0C040408080C0DB
:1011B400408000000000000000000000000000006B
:1011C40000000000003F606060E06060606060609C
:1011D40063636363636060606063636363636060ED
:1011E40060606363636363606060636363636363DA
:1011F4006363636363636360606060606060404016
:1012040040E0E0FFF6010E060602020202020202BC
:10121400020202028243723E2310100007030302FB
:10122400040404040404041C1010101111090929F5
:1012340070204305F07EAE803800000000000000FE
:101244000000000000000000000101010101010193
:1012540001017F7F7F7FFFFFF7FB7BBF5F5D7DBD6C
:10126400BD3F5D59B173F3E5CF1B3F77FFCFBFFFA0
:10127400FFFFFFFFFFFFFF7F7F7F7F7F7F7F7FFF7A
:10128400FFFF7F7F7D7878787878F8787878787839
:1012940078F8F8E88F000000000000000080F0F803
:1012A40078BCDC5CFC1C1C3C5C5C3C78F8F860C0E2
:1012B4008FA8D88831444832A060000000000000A4
:1012C40000000080C0F8F8F8F8FCFEFEFEFEFEFE0A
:1012D400FEFEFEFEFEFFFFFFFFFFF6EFD0F6AEAD13
:1012E400A980D1D0E0F7F9FFFFFCDCF07FFFDFFF3E
:1012F400FFFFFFFFFFFEFEFFFFFFFFFFFFFFFEFFFD
:10130400FFFFFFFFFFFFFEFEFEFEFEFEFEFEFEFEF3
:10131400FEFEFEFEFFFFFFFFFFFFFEFFBEFFFFFD21
:10132400F0EFDDDFFEA888AAC4D0E4E6F87F7E9C57
:10133400DFE2F2F2F2F2F2B120000000000000005D
:101344000000000101010103030307070707070F5A
:101354000F0F070F0F0F07070F0E0F0D0F2F2B2B5C
:101364002B2B2B2F6FEFFFFDFDFFFEFFFFFFFFFF7A
:10137400BFBFEFEFEFBFFFBFFFFFFFFFFFFFFFFFA9
:10138400FFFFFFFFFFFFFFFFFFFFFFFFFFFFFFFF69
:10139400FFFFFFFF7F7F7F7FFFFFBFBFBFBFFFFE5A
:1013A400FFFDFFFFFFFBFFFFFF7F7D3F1F1F1F1F91
:1013B4001F1F3F0F0F070703030300000000000077
:1013C4000000000000000000000000000000000019
:1013D4000000000000000000000000000000000009
:1013E40000000000000000000000000000010100F7
:1013F40001010000000000000000000001010101E3
:10140400010101010303030B0B0B0B07030E06067B
:1014140006021213130317151511011313030606FD
:101424000E0F0F070F0F0F0B02000000000000004B
:1014340000000000000000000000000000000000A8
:10144400000000000000004F000000070007001427
:101454007F147F14242A7F2A1223130864623649D6
:101464005522200005030000001C224100004122F7
:101474001C0014083E081408083E080850300000F8
:101484000008080808080060600000201008040232
:101494003E5149453E00427F400042615149462148
:1014A40041454B311814127F1027454545393C4AB4
:1014B4004949300171090503364949493606494904
:1014C400291E00363600000056360000081422415A
:1014D40000141414141400412214080201510906C2
:1014E4003E415D551E7E1111117E7F494949363EAC
:1014F400414141227F4141221C7F494949417F09A1
:101504000909013E4149497A7F0808087F00417F63
:1015140041002040413F017F081422417F40404068
:10152400407F020C027F7F0408107F3E4141413E10
:101534007F090909063E4151215E7F091929462682
:101544004949493201017F01013F4040403F1F208A
:1015540040201F3F4038403F63140814630708705D
:1015640008076151494543007F41410002040810C6
:10157400200041417F0004020102044040404040F9
:10158400000003050020545454787F444444383800
:1015940044444444384444447F3854545418040460
:1015A4007E0505085454543C7F0804047800447DA7
:1015B40040002040443D007F1028440000417F400B
:1015C400007C047C04787C0804047838444444385F
:1015D4007C14141408081414147C7C0804040048B3
:1015E4005454542404043F44443C4040207C1C2074
:1015F40040201C3C4030403C44281028440C5050AF
:10160400503C4464544C4408364141000000770087
:1016140000004141360808082A1C08081C2A08084A
:0A162400FFFFFFFFFF0609090600A3
:10162E00000000000000005F00000007000700142B
:10163E007F147F14242A7F2A1223130864623649EA
:10164E005522500005030000001C224100004122DB
:10165E001C00082A1C2A0808083E08080050300002
:10166E0000080808080800303000002010080402A6
:10167E003E5149453E00427F40004261514946215C
:10168E0041454B311814127F1027454545393C4AC8
:10169E004949300171090503364949493606494918
:1016AE00291E0036360000005636000000081422AF
:1016BE004114141414144122140800020151090695
:1016CE00324979413E7E1111117E7F494949363E9C
:1016DE00414141227F4141221C7F494949417F09B5
:1016EE000901013E414151327F0808087F00417FC8
:1016FE0041002040413F017F081422417F4040407D
:10170E00407F0204027F7F0408107F3E4141413E2C
:10171E007F090909063E4151215E7F091929464676
:10172E004949493101017F01013F4040403F1F209F
:10173E0040201F7F2018207F631408146303047851
:10174E000403615149454300007F414102040810E2
:10175E002041417F0000040201020440404040400D
:10176E00000102040020545454787F484444383811
:10177E0044444420384444487F3854545418087E16
:10178E00090102081454543C7F0804047800447D77
:10179E0040002040443D00007F10284400417F401F
:1017AE00007C041804787C080404783844444438D7
:1017BE007C14141408081414187C7C0804040848BB
:1017CE0054545420043F4440203C4040207C1C2074
:1017DE0040201C3C4030403C44281028440C5050C3
:1017EE00503C4464544C44000836410000007F00D5
:1017FE0000004136080008082A1C08081C2A0808A0
:10180E00000000005C000C000C7C287C7C447C24D6
:10181E001048285408000C003844004438002010AA
:10182E0008103810804000101010004000201008E2
:10183E00384438007C006454484454281C107C4CB6
:10184E00542438542004740C28542808543800505A
:10185E0000805000102844282828442810045408DA
:10186E00384C5C7814787C54283844447C44387C5A
:10187E0054447C14043844347C107C007C0020409A
:10188E003C7C106C7C40407C087C7C047C7C447CE2
:10189E007C14083844787C1468485424047C047CF6
:1018AE00407C3C403C7C207C6C106C1C601C645466
:1018BE004C7C4400081020447C0008040880808082
:0318CE000408000B
:0E18D10035783720466F6E7420287632290055
:0918DF0035783720466F6E740065
:0918E80038783720466F6E740059
:1018F100335835204341504954414C53204F4E4CAD
:0219010059008B
:071903006D696B726F450076
:00000001FF
