:1000000002044402000000000000000200000000A2
:1000100000000002000000000000000200000000DC
:0E0020000000000200000000000000020000CE
:06002E007F14DFFE00223A
:0A0034007E097FE9DFFEDEFC0022FA
:02003E0000229E
:10004000E5195480F8630080E86004780080027845
:1000500001E81392A5E5195440F8630040E86004F4
:10006000780080027801E81392A4E5195420F8631F
:100070000020E86004780080027801E81392A3E58C
:10008000195410F8630010E86004780080027801C9
:10009000E81392A2E5106004780080027801E8136A
:1000A00092A0D2A1113EC2A1E5195408F86300083C
:1000B000E86004780080027801E81392A5E51954FD
:1000C00004F8630004E86004780080027801E81313
:1000D00092A4E5195402F8630002E86004780080F5
:1000E000027801E81392A3E5195401F8630001E8CE
:1000F0006004780080027801E81392A2E5106004A1
:10010000780080027801E81392A0D2A1113EC2A12A
:0B011000E510600411348002112E2263
:10011B00BD000BB90029E88CF084F8ACF022E4CDDB
:10012B00FF75F008E828F8E933F9ED33FDE99CEDAC
:10013B009F4005FDE99CF908D5F0E9E4C9FC22ECE8
:10014B00FFF5F0E98420D21CF9ACF075F008E82833
:10015B00F8EC33FC40079F5006D5F0F222C39FFC0E
:05016B0008D5F0EA22B6
:10017000750DAE750E01750F16750A91750B01752B
:100180000C1675D51353AAFE00D3E5D592E6F5D526
:01019000224C
:10019100851686E5AA30E60AE5AA20E70280F985F8
:0D01A1001686E5AA20E70280F98586172260
:1001AE00851686E5AA30E60AE5AA20E70280F985DB
:0C01BE001686E5AA20E70280F9A8862238
:1001CA008019751680802E7516C080297516948040
:1001DA00247516D4801F751680801AE5166401608E
:1001EA00E1E516640260E0E516640360DFE5166483
:1001FA000460DE80E1C3E5179401F8E51628F88566
:10020A00001675100185001911407510008518191E
:06021A00114075100122E5
:10022000C2A1C2A0113411341134C2A5C2A4C2A308
:10023000C2A2D2A3D2A2D2A1113EC2A11134D2A194
:10024000113EC2A11134D2A1113EC2A11134D2A3D8
:10025000C2A2D2A1113EC2A11134C2A5C2A4C2A39E
:10026000D2A3C2A2D2A1113EC2A1C2A3D2A5D2A141
:10027000113EC2A11134C2A5D2A2D2A1113EC2A187
:10028000C2A2D2A1113EC2A11134C2A2D2A1113E7A
:10029000C2A1D2A2D2A1113EC2A11134C2A2D2A146
:1002A000113EC2A1D2A5D2A4D2A3D2A2D2A1113E04
:0802B000C2A1113475100122F6
:0C02B80075100085161911407510012208
:1002C4005120751901114075190C11403170D3E595
:0602D400B092E5F5B02236
:0802DA00E493F608A3D9F92210
:1002E200C3E5B092E5F5B075160631917906E511D0
:1002F200098002C333D9FCF885001185001631AE9E
:1003020053000F850012E4F5138512137512007560
:10031200160031AEE5124200E51342018500128556
:0A0322000113D3E5B092E5F5B02217
:10032C008019751180802E7511C0802975119480EB
:10033C00247511D4801F751180801AE51164016039
:10034C00E1E511640260E0E511640360DFE511642E
:10035C000460DE80E1C3E5129401F8E51128F8850C
:10036C0000118500191140751000751400E5132556
:10037C0014F8E6600DE5132514F8861651B805142B
:06038C0080EB7510012258
:10039200C3E513940250057514018003751402E538
:1003A200135401F9D3E99400400575150D800375C6
:1003B20015047CE87D03A811A912311B743028F5BD
:1003C2001885141685151731CA7CE87D03A811A972
:1003D20012311BA804A9058500118501127C647DD8
:1003E20000311B743028F518851416E5152401F523
:1003F2001731CA7C647D00A811A912311BA804A977
:10040200058500118501127C0A7D00311B7430289C
:10041200F518851416E5152402F51731CA7C0A7DF4
:1004220000A811A912311BA804A905850011850194
:1004320012743028F518851416E5152403F51731C2
:02044200CA22CC
:100444007581801204FC51C4751101751201751374
:1004540030712C75110275120175133D712C7511D3
:100464000051E28500088501098500118501127596
:10047400130071927EA37F1EDFFEDEFC0075110166
:1004840051E2850008850109850011850112751363
:100494000171927EA37F1EDFFEDEFC007511025106
:1004A400E285000885010985001185011275130292
:1004B40071927EA37F1EDFFEDEFC0075110351E204
:1004C40085000885010985001185011275130371E2
:0E04D400927EA37F1EDFFEDEFC00816280FEB2
:0E04FC007830791A7582E27583041202DA22D2
:0D04E20043303D20202020202043313D00EC
:0D04EF0043323D20202020202043333D00DB
:00000001FF
