:10000000020BA2020000000000000002000000003D
:1000100000000002000000000000000200000000DC
:0E0020000000000200000000000000020000CE
:05002E00C000C001222A
:020033000022A9
:10003500853A86E5AA30E60AE5AA20E70280F98531
:0C0045003A86E5AA20E70280F9A886228E
:10005100E5385408700201B77803E534088002C31B
:1000610013D8FCF5397905E535098002C333D9FC8C
:10007100F84239C290A815760208A813A914112EC6
:10008100A815A63308A813A914112EA815A6390876
:10009100A813A914112E7C05E5340C8002C333DCAE
:1000A100FCF8850039A815A63908A813A914112E42
:1000B100D2901133213C7805E536088002C313D86C
:1000C100FCF5397903E537098002C333D9FCF842DD
:1000D10039C290A815760208A813A914112EA815E3
:1000E100A63308A813A914112EA815A63908A81318
:1000F100A914112E7803E536088002C333D8FCF524
:100101003978E0E85239433908E5365403F8423981
:10011100A815A63908A813A914112E853539A815D3
:10012100A63908A813A914112E853439A815A639A2
:0C01310008A813A914112ED2901133223B
:10013D00E52C5408700221DCC290A815760308A89E
:10014D0013A914112EA815A62B08A813A914112E46
:10015D00A815760008A813A914112E85002E7A056E
:10016D00E80A8002C313DAFCF985012FE4F530E4C7
:10017D00F531E4F532AB31AA30A92F780085002F87
:10018D008501308502318503327D03E52E0D800218
:10019D00C333DDFCFC48F52FE449F530E44AF53175
:1001AD00E44BF532A815760008A813A914112E8575
:1001BD00002ED29011337905E52E098002C313D993
:1001CD00FCF8422FE44230E44231E4423241FF7503
:1001DD002F00753000753100753200C290A815766C
:1001ED000308A813A914112EA815A62B08A813A946
:1001FD0014112EA815760008A813A914112E850028
:10020D002E7905E8098002C333D9FCF52D7A03E870
:10021D000A8002C313DAFCF985012FE4F530E4F509
:10022D0031E4F532AB31AA30A92F780085002F8546
:10023D000130850231850332A815760008A813A96F
:10024D0014112E85002EE85403F9452DFB85032D41
:10025D00E854E0FA7903EA098002C313D9FCF8EBFC
:10026D00420085002DE52F4200E5304201E5304288
:10027D0002E530420385002F85013085023185036B
:10028D0032AB02AA01A900780085002F85013085C7
:10029D000231850332A815760008A813A914112E72
:1002AD0085002EE52F4200E5304201E5304202E5A2
:1002BD0030420385002F850130850231850332AB35
:1002CD0002AA01A900780085002F85013085023131
:1002DD00850332A815760008A813A914112E8500E0
:1002ED002ED2901133E52E422FE44230E44231E418
:0B02FD004232A82FA930AA31AB3222F8
:10030800801E753100803775310480327531088060
:100318002D75311080287531148023753118801E91
:10032800E52B60DEE52B640160DDE52B640260DC13
:10033800E52B640360DBE52B640460DA80DD85313E
:1003480033852C34852D35852E36852F37853038E5
:030358001151221E
:10035B00C290A815760208A813A914112EA8157619
:10036B00FF08A813A914112EA815A62B08A813A9CA
:10037B0014112ED2901133E52C6033C290A8157650
:10038B000308A813A914112EA81576FE08A813A903
:10039B0014112EA815760008A813A914112E850088
:0F03AB002DD2901133E52D54E0F9652B70CD2242
:1003BA00152B152C152D152E152F7806E52B0880D3
:1003CA0002C333D8FCF531E52C4231C290A8157628
:1003DA000208A813A914112EA815762A08A813A989
:1003EA0014112EA815A63108A813A914112ED290FB
:1003FA0011337803E52D088002C333D8FCF531E5C3
:10040A002F4231E53054047007D3E53192E6F531D5
:10041A00E53054016007D3E53192E7F531C290A87F
:10042A0015760208A813A914112EA815762908A86A
:10043A0013A914112EA815A63108A813A914112E50
:10044A00D2901133852E31E53054026007D3E5315D
:10045A0092E6F531C290A815760208A813A91411DC
:10046A002EA815762808A813A914112EA815A631A6
:0C047A0008A813A914112ED290113322EF
:060486007F03DFFE0022EF
:10048C00E52B7016753320852C34852D35852E364D
:10049C00852F3785303811518014753324852C34D1
:0F04AC00852D35852E36852F3785303811512215
:1004BB00D292D290C2929186D2929186752B8075F0
:1004CB002CFF715B851F2B85202C85212D85222EE2
:1004DB0085232F85243071BAE5245460F525E52456
:1004EB005410F9E964107007D3E52592E2F525C2A3
:1004FB0090A815760208A813A914112EA8157660DA
:10050B0008A813A914112EA815A62508A813A91419
:10051B00112ED29011331133C290A815760208A870
:10052B0013A914112EA815767008A813A914112E4F
:10053B00A815A62508A813A914112ED2901133754E
:10054B002B00752C00752D00752E00752F00753046
:10055B00F7918C752B01752C00752D00752E007580
:10056B002F007530F7918CE5245460F8449FF98087
:10057B00187526F77527F7801C7526FF7527FF80E2
:10058B00147526FF7527F7800CE964DF60E3E964D7
:10059B00BF60E680EC752B00752C00752D00752E59
:1005AB0000752F008526307108752B01752C007591
:1005BB002D00752E00752F008526307108752502CC
:1005CB00D3E5259405501885252B752C00752D002A
:1005DB00752E00752F008527307108052580E17574
:0805EB002B00752CFF715B224F
:1005F30075133575140075153A7516FF7517FF7564
:1006030018FF75D51353AAFE00D3E5D592E6F5D5A9
:0106130022C4
:10061400A8227600C290A815760308A813A914117D
:100624002EA815762C08A813A914112EA815760047
:1006340008A813A914112E850023D2901133E523A1
:1006440020E002E1377526FFC290A815760508A8B8
:1006540013A914112EA815762C08A813A914112E69
:10066400A815760108A813A914112EA81576000858
:10067400A813A914112ED29011331133C290A815C6
:10068400760308A813A914112EA815762D08A8130B
:10069400A914112EA815760008A813A914112E85E3
:1006A4000023D2901133E52330E73CA822E6440826
:1006B400F9A822A601C290A815760508A813A914C2
:1006C400112EA815762D08A813A914112EA8157695
:1006D4008008A813A914112EA815760008A813A938
:1006E40014112ED29011331133C290A81576030839
:1006F400A813A914112EA815766008A813A914111B
:100704002EA815760008A813A914112E850023D24B
:10071400901133E52330E218E5235407F9A822E6C3
:100724004201A822A601A822E65401F9A822A601A2
:1007340002086AA8227600C290A815760308A813B6
:10074400A914112EA815762C08A813A914112EA8E3
:1007540015760008A813A914112E850023D2901130
:1007640033E52320E103020867752600C290A8152B
:10077400760508A813A914112EA815762C08A81319
:10078400A914112EA815760208A813A914112EA8CD
:1007940015760008A813A914112ED2901133113321
:1007A400C290A815760308A813A914112EA81576CB
:1007B4002D08A813A914112EA815760008A813A9AA
:1007C40014112E850023D2901133E52330E63FA87F
:1007D40022E64408F9A822A601C290A815760508C5
:1007E400A813A914112EA815762D08A813A914115D
:1007F4002EA815764008A813A91412002EA8157661
:100804000008A813A91412002ED29012003312006B
:1008140033C290A815760308A813A91412002EA8B1
:1008240015767008A813A91412002EA815760008CE
:10083400A813A91412002E850023D290120033E5C8
:10084400235407F9A822E64201A822A601A8228679
:1008540001C3E99402500AA822E64480F9A822A61A
:10086400018003780022C290A815760308A813A972
:100874001412002EE526601DA815766508A813A994
:100884001412002EA815760008A813A91412002E1D
:10089400850023801BA815767508A813A9141200D7
:1008A4002EA815760008A813A91412002E8500237B
:1008B400D290120033A821A623E52330E60AA82209
:1008C400E64440F9A822A601C290A815760308A818
:1008D40013A91412002EE5266020A815766208A834
:1008E40013A91412002EA815760008A813A914122F
:1008F400002E850023752561801EA815767208A830
:1009040013A91412002EA815760008A813A914120E
:10091400002E850023752571D290120033E5233013
:10092400E32EA822E64420F9A822A60185252B75EA
:100934002CF712013D8500278501288502298503AE
:100944002AA81FA62708A62808A62908A62A8022BE
:1009540085252B752CFF12013D85002785012885EF
:10096400022985032AA81FA62708A62808A629085D
:10097400A62AE5252405F525C290A815760308A81E
:1009840013A91412002EA815A62508A813A9141239
:10099400002E752400A8218601C3E52499501DA8C2
:1009A40015760008A813A91412002E8500278527A0
:1009B40023E5202524F8A627052480D9D290120007
:0409C4003378FF2263
:1009C800C290A815760308A813A91412002EA8151A
:1009D800763008A813A91412002EA815760008A8C6
:1009E80013A91412002E850026D290120033E52692
:1009F80020E3057526004173C290A815760308A860
:100A080013A91412002EA815764008A813A91412C9
:100A1800002EA815760008A813A91412002E850028
:100A280026D290120033E52620E305752610803B78
:100A3800C290A815760308A813A91412002EA815A9
:100A4800765008A813A91412002EA815760008A835
:100A580013A91412002E850026D290120033E52621
:100A680020E3057526208003780022E5262430F54A
:100A780026C290A815760208A813A91412002EA859
:100A880015A62608A813A91412002EE5255403F567
:100A980028A815A62808A813A91412002ED2901267
:100AA8000033E525540870057528F780037528FF7D
:100AB800E5262401F533851F3485203585213685C3
:100AC8002237852838120051852428E5255440709E
:100AD80003432840C290A815760208A813A9141247
:100AE800002EE5262405F9A815A60108A813A914BF
:100AF80012002EA815A62808A813A91412002ED291
:100B080090120033120033C290A815760208A81379
:100B1800A91412002EE5262406F9A815A60108A88E
:100B280013A91412002E752700C3E5279524501A1F
:100B3800E5232527F8A915E6F7E92401F8A900A86F
:100B480013A91412002E052780DFD2901200331249
:100B58000033C290802AA815768108A813A9141218
:100B6800002E802EA815768208A813A91412002E2C
:100B78008020A815768308A813A91412002E8012C5
:100B8800E526643060D0E526644060D8E5266450E8
:0A0B980060E0D29012003378FF22D3
:100BA200758180751E007511007512007511F4753E
:100BB2001ED31205F3751F017520037521037522DB
:100BC20003752301851E241204BB752B80752CFF2F
:100BD20012035B752B00752CFF752DFF752EFF75AB
:100BE2002FFF7530F712048C752B01752CFF752DB4
:100BF200FF752EFF752FFF7530F712048C752B05CC
:100C0200752C03752D00752E00752F007530F712A7
:100C12000308752B00752CFF12035B750809751FFD
:100C22004F75202F75210075220075230875240148
:100C320085112531C8751F1975200875211D75226A
:100C420012120614850010E51964037010E51A6487
:100C520000700AE51B64007004E51C64007029E55D
:100C620010602585088005087E117F34DFFEDEFCDA
:100C720000751F4F75202F752100752200752308FE
:0C0C820075240185112531C880AB80FE6F
:00000001FF
