:100000000200620200000000000000020000000088
:1000100000000002000000000000000200000000DC
:0E0020000000000200000000000000020000CE
:05002E007FCFDFFE2280
:10003300A280B3E433F8E50A6200E8601FD3E50960
:1000430094004008112E112E150980F1A280B3E40B
:0F00530033F8E50A6200E8600378FF22780022A4
:100062007581807580FF75A0AAC3E50892E0F50846
:10007200750901750A011133E86007D3E50892E0BA
:10008200F508E50830E015750901750A001133E835
:10009200600A63A0FFC3E50892E0F50880D280FE03
:00000001FF
