:100000000200540200000000000000020000000096
:10001000000000020000000000000002002E0000AE
:0E0020000000000200000000000000020000CE
:10002E00C0D0C0E0C0F0C082C083C2AFC28E758D9A
:10003E0000758B006380FFD2AFD28ED083D082D07A
:06004E00F0D0E0D0D0323A
:10005400758180758000C28FD2ABD2AFC3E589921F
:10006400E7F589C3E58992E6F589C3E58992E5F563
:1000740089D3E58992E4F589C28E758D00758B006C
:04008400D28E80FE9A
:00000001FF
