:100000000204A30200000000000000020000000043
:1000100000000002000000000000000200000000DC
:0E0020000000000200000000000000020000CE
:02002E000022AE
:0A0030007E097FE9DFFEDEFC0022FE
:06003A007F14DFFE00222E
:10004000E5165480F8630080E86004780080027848
:1000500001E81392A5E5165440F8630040E86004F7
:10006000780080027801E81392A4E5165420F86322
:100070000020E86004780080027801E81392A3E58C
:10008000165410F8630010E86004780080027801CC
:10009000E81392A2E5086004780080027801E81372
:1000A00092A0D2A1112EC2A1E5165408F86300084F
:1000B000E86004780080027801E81392A5E5165400
:1000C00004F8630004E86004780080027801E81313
:1000D00092A4E5165402F8630002E86004780080F8
:1000E000027801E81392A3E5165401F8630001E8D1
:1000F0006004780080027801E81392A2E5086004A9
:10010000780080027801E81392A0D2A1112EC2A13A
:0B011000E508600411308002113A2263
:0C011B00750800851516114075080122BA
:10012700E88CF0A4AFF0C88DF0A42FC98CF0A429F7
:02013700F922AB
:050139007F20DFFE2223
:10013E00BD000BB90029E88CF084F8ACF022E4CDB8
:10014E00FF75F008E828F8E933F9ED33FDE99CED89
:10015E009F4005FDE99CF908D5F0E9E4C9FC22ECC5
:10016E00FFF5F0E98420D21CF9ACF075F008E82810
:10017E00F8EC33FC40079F5006D5F0F222C39FFCEB
:05018E0008D5F0EA2293
:100193008019751180802E7511C080297511948086
:1001A300247511D4801F751180801AE511640160D4
:1001B300E1E511640260E0E511640360DFE51164C9
:1001C3000460DE80E1C3E5129401F8E51128F885A7
:1001D30000118500161140750800751400E51325FC
:1001E30014F8E6600DE5132514F88615311B051484
:0601F30080EB75080122FB
:0501F9007FCFDFFE22B4
:1001FE008019750B80802E750BC08029750B94802D
:10020E0024750BD4801F750B80801AE50B6401607A
:10021E00E1E50B640260E0E50B640360DFE50B646F
:10022E000460DE80E1C3E50C9401F8E50B28F88547
:10023E00000B7508018500161140750800850D1616
:06024E00114075080122B9
:08025400E493F608A3D9F92296
:10025C00C2A1C2A0113011301130C2A5C2A4C2A3D8
:10026C00C2A2D2A3D2A2D2A1112EC2A11130D2A16C
:10027C00112EC2A11130D2A1112EC2A11130D2A3C4
:10028C00C2A2D2A1112EC2A11130C2A5C2A4C2A376
:10029C00D2A3C2A2D2A1112EC2A1C2A3D2A5D2A115
:1002AC00112EC2A11130C2A5D2A2D2A1112EC2A16F
:1002BC00C2A2D2A1112EC2A11130C2A2D2A1112E62
:1002CC00C2A1D2A2D2A1112EC2A11130C2A2D2A11E
:1002DC00112EC2A1D2A5D2A4D2A3D2A2D2A1112EE8
:0802EC00C2A1113075080122C6
:1002F400C29231F9D2923139A292E433F50B31F939
:03030400A80B2221
:10030700E50B5400F8E50C5480F9E8496016A8415C
:10031700762D630BFF630CFF7401250BF50B74003F
:10032700350CF50C7A01E50CA80B0A8005C313C838
:1003370013C8DAF9F985000D75F064E884F86010E0
:10034700A84175F064E50D84F92430F9A60180040D
:10035700A8417630E5412401F875F00AE50D84F9E6
:1003670075F00AE984E5F0F92430F9A601E541249E
:1003770002F875F00AE50D84E5F0F92430F9A601D5
:100387007A03A90CE50B0A8005C333C933C9DAF927
:10039700F885000E85010F53000F53010085000EED
:1003A70085010F7C717D02312785000E85010FC005
:1003B70000E5412404F8850010D0007CE87D033176
:1003C7003E743028F9A810A601E5412405F88500F8
:1003D700107C647D00A80EA90F313E7C0A7D003198
:1003E7003EA804A905743028F9A810A601E5412400
:1003F70006F88500107C0A7D00A80EA90F313E7C07
:100407000A7D00313EA804A905743028F9A810A672
:1004170001E5412407F88500107C0A7D00A80EA994
:100427000F313EA804A905743028F9A810A6017554
:0B04370011027512058541133193225C
:10044200750C00750B00D3E50B94075022C2921174
:100452002ED292112EA292E433FAA90BEA0980025B
:10046200C333D9FCF8420C113A113A050B80D7A8D4
:020472000C225A
:10047400750C00D3E50C94075020A80CE50B0880FC
:1004840002C313D8FCF50DC292112E112EE50D13E3
:0F04940092923139D292050C80D9113A113A2245
:1004A300758180120544515C751601114075160C57
:1004B30011407511017512017513303193750B02DB
:1004C300750C0D750DDF31FE750B02750C0E750D78
:1004D3004331FE51F4750BCC9174750B4491747FC9
:1004E30031DFFE0051F4750BCC9174750BBE917422
:1004F3009142850009E4F50A9142A90078007A0047
:10050300E82509F8E9350AF985000985010A850016
:100513000B85010C71077D047E2B7F9DDFFEDEFCC6
:06052300DDFA80AF80FE4E
:0E0544007830791B75822975830512025422C6
:100529002054656D70657261747572653A2020207A
:0105390000C1
:01053A00427E
:09053B003030302E303030300039
:00000001FF
