:100000000203A10200000000000000020000000046
:1000100000000002000000000000000200000000DC
:0E0020000000000200000000000000020000CE
:10002E00803C75F008758200E828F8E933F9CA3388
:10003E00CACB33CBC58233C5829CEA9DEB9EE5824B
:10004E009F400CF582E99CF9EA9DFAEB9EFB08D5E0
:10005E00F0D6E4C9FCE4CAFDE4CBFEAF8222EF6029
:10006E000280BFEE6002805BED6002802DEB8CF0B3
:10007E0084C8C9CAFBE5F0CCFE7F18E828F8E9333E
:10008E00F9EA33FAEB33FBEC33FC10D7039E400452
:10009E00EC9EFC08DFE5E4FEFD227F18E828F8E977
:1000AE0033F9EA33FAEB33FBCE33CE10D7059CEEA1
:1000BE009D4007EB9CFBEE9DFE08DFE0E4CEFDE4E9
:1000CE00CBFC2275F010E828F8E933F9EA33FACBC5
:1000DE0033CBCF33CF10D7079CEB9DEF9E400AEA70
:1000EE009CFAEB9DFBEF9EFF08D5F0DAE4CAFCE428
:0600FE00CBFDE4CFFE2261
:10010400EF88F0A4CB8CF0A42BFBEE89F0A42BFB9E
:100114008DF0EAA42BFBED89F0A4CAAFF08CF0A417
:100124002ACB3F25F0FAEE88F0A42BCA35F0FBEC7D
:1001340089F0A4F9AEF0EC88F0A4C8C5F029CA3E51
:0F014400F9E43BFBEDA42AC935F0FAE43BFB22BA
:10015300C2D5EF30E70FB2D5E4C39CFCE49DFDE4C8
:100163009EFEE49FFFEB30E717B2D5120189120020
:100173002EE4C39CFCE49DFDE49EFEE49FFF80030C
:1001830012002E30D50DE4C398F8E499F9E49AFAF5
:05019300E49BFB2222A9
:10019800151E151ED3E51E94004006151E0000808E
:0901A800F3000000000000002239
:1001B100EC6010EBA2E713FBEA13FAE913F9E81379
:0401C100F8DCF02254
:0C01C50078107927E933E495E0FAFB227A
:1001D100750E00E5136003630EFFE50E6004C2B106
:1001E1008002D2B131C57CE87D037E007507003104
:1001F10004850014850115850216850317A80FA92A
:1002010010AA11AB127C0C7D007E00750700310431
:100211007C0A7D007E007507003104850018850188
:100221001985021A85031BAC00AD01AE02AF03A80C
:1002310014A915AA16AB17315385001C85011DA8F9
:10024100017900E84960057802790022851C0CAC2F
:1002510018AD19AE1AAF1BA814A915AA16AB173100
:1002610053A804A905AA06AB0785001485011585C5
:1002710002168503177C01A818A919AA1AAB1B310C
:10028100B1D3E51498E51599E5169AEB6480FCE580
:100291001764809C4002050C7801E50C088002C3BC
:1002A10013D8FCF985010DC3E9940750057801794C
:0702B1000022780079002211
:1002B800A80F7600751101751000C3E50B92E0F5E3
:1002C8000BE50E701330B00EE50B30E007A80F7683
:1002D800FFA8102280EF801120B00EE50B30E00758
:1002E800A80F76FFA8102280EF850D1E3198850C87
:1002F8001E3198E511602730B004E51142107801ED
:10030800E511088002C333D8FCF511C3E50C94034A
:10031800F51E3198000000000000000080D5E50EB1
:10032800700BA2B0B392F0A80FA6F08004A80FA695
:0A033800B0E510650EF885001022F4
:10034200751001E50E620FE50E6004D2B18002C2A3
:10035200B1850C1E3198630FFFE5106032E50F5531
:1003620010F86004780080027801E81392B17801F5
:10037200E510088002C333D8FCF510C3E50C9404E1
:10038200F51E319800000000000000000080CAE560
:0F0392000E6004C2B18002D2B1850C1E319822D8
:1003A10075818075A000750FC075101275110075EB
:1003B100120075130031D185000AD3E8940040057D
:1003C100850AA080FE7EA37F1EDFFEDEFC0075098C
:1003D1007AC3E5099441401285090F71427EA37FDA
:1003E1001EDFFEDEFC00150980E7750F0A51B88596
:1003F1000008E50A6005850AA0800585080F71429D
:0404010080E880FE11
:00000001FF
