:10000000020B9C0200000000000000020000000043
:1000100000000002000000000000000200000000DC
:1000200000000002000000000000000200000000CC
:1000300000000002000000000000000200000000BC
:1000400000000002000000000000000200000000AC
:10005000000000020000000000000002000000009C
:10006000000000020000000000000000000000008E
:10007000000000020000000000000002000000007C
:10008000000000020000000000000002000000006C
:10009000000000020000000000000002000000005C
:0600A00000000002000058
:1000A600BD000BB90029E88CF084F8ACF022E4CD51
:1000B600FF75F008E828F8E933F9ED33FDE99CED22
:1000C6009F4005FDE99CF908D5F0E9E4C9FC22EC5E
:1000D600FFF5F0E98420D21CF9ACF075F008E828A9
:1000E600F8EC33FC40079F5006D5F0F222C39FFC84
:0500F60008D5F0EA222C
:1000FB00803C75F008758200E828F8E933F9CA33BB
:10010B00CACB33CBC58233C5829CEA9DEB9EE5827D
:10011B009F400CF582E99CF9EA9DFAEB9EFB08D512
:10012B00F0D6E4C9FCE4CAFDE4CBFEAF8222EF605B
:10013B000280BFEE6002805BED6002802DEB8CF0E5
:10014B0084C8C9CAFBE5F0CCFE7F18E828F8E93370
:10015B00F9EA33FAEB33FBEC33FC10D7039E400484
:10016B00EC9EFC08DFE5E4FEFD227F18E828F8E9A9
:10017B0033F9EA33FAEB33FBCE33CE10D7059CEED3
:10018B009D4007EB9CFBEE9DFE08DFE0E4CEFDE41B
:10019B00CBFC2275F010E828F8E933F9EA33FACBF7
:1001AB0033CBCF33CF10D7079CEB9DEF9E400AEAA2
:1001BB009CFAEB9DFBEF9EFF08D5F0DAE4CAFCE45A
:0601CB00CBFDE4CFFE2293
:1001D100854E50A8500550A94F054FE7F6E660023D
:0501E10080F1A84E2290
:1001E600755300755400C3E553940AE554940050C2
:1001F60015E5522553F8762074012553F5537400FE
:100206003554F55480E0E5522553F87600C3E5539E
:100216009401F553E5549400F554E5522553F885B9
:1002260000557C0A7D007E00750700A84EA94FAADE
:1002360050AB5111FBA804A905AA06AB07743028D8
:10024600F9A855A6017C0A7D007E00750700A84E18
:10025600A94FAA50AB5111FB85004E85014F85026F
:1002660050850351E8494A4B7002800FC3E5539409
:0C02760001F553E5549400F5544120229A
:10028200755000C3E5509403500BE54F2550F876A6
:1002920020055080EEE54F2550F876001550E54FC9
:1002A2002550F875F00AE54E84E5F0F92430F9A6F8
:1002B2000175F00AE54E84F985014EE97002800469
:0502C200155080DA2256
:1002C700755100C3E5519405500BE5502551F8765B
:1002D70020055180EEE5502551F876001551E5507F
:1002E7002551F88500527C0A7D00A84EA94F11A61A
:1002F700A804A905743028F9A852A6017C0A7D0034
:10030700A84EA94F11A685004E85014FE8497002F6
:070317008004155180C8228B
:10031E0074F8CF6480CFCB6480CBF58204700280FA
:10032E0043C3E89CF5F0E99D42F0EA9E42F0EB9F54
:10033E0045F060305018E5825CFCE582F428558269
:10034E00F8502109B9001D0ABA00190B8016E58272
:10035E0058F8E582F42C5582FC50090DBD00050EAF
:10036E00BE00010FC3E89CF5F0E99D42F0EA9E4203
:10037E00F0EB9F45F06007CF4B20E701B3EF222251
:10038E00854E4FA84F054FE6600280F7C3E54F95A7
:0C039E004EF8C3E89401F8E49400F92242
:1003AA00E88CF0A4AFF0C88DF0A42FC98CF0A42972
:0203BA00F92226
:1003BC00EC600FE8C333F8E933F9EA33FAEB33FBBB
:0303CC00DCF1223F
:1003CF00EB4A6011EF4E7017EA33EB3304600DE424
:1003DF00FBF8F9FA22EE33EF330470F80205081236
:1003EF0004D35F046009E4CB248150062F50090227
:1003FF0005122F400302050FC0E0EC4D7044BE8084
:10040F0006D0E0FC0204FEE849701CBA8008ECF844
:10041F00EDF9EEFA80EBEE8AF0A4F9E5F00204B8FC
:10042F00EECAFEEDF9ECF8E88EF0A4FBE5F0C98E0C
:10043F00F0A429F8E435F0CA8EF0A42AF9E435F0D7
:10044F008067E8497005BA80D780C3E88CF0A4AB09
:10045F00F0E98CF0A42BFBE435F0FFE88DF0A42B32
:10046F00E5F03FFBE433CC8AF0A42BFBE5F03CFF37
:10047F00E98DF0A42BFBE5F03FFFE433C88EF0A429
:10048F002BFBE5F03FC83400C98EF0A428F8E5F047
:10049F0039F9E433CE8AF0A429F9E5F03ECA8DF09C
:1004AF00A428F8E5F039F9E43AFA33D0E0FC500625
:1004BF000CBC000E804DEB2BFBE833F8E933F9EA67
:1004CF0033FA8017EED2E7CE33EF33FF92D5EAD26D
:1004DF00E7CA33EB33FB5002B2D522EB30E71008FB
:1004EF00B8000C09B900080ABA00040CEC6014A299
:1004FF00D5EC13FBEA92E7FA2274FFFBFAF9F82224
:0F050F00E480F8A2D574FF13FB7A80E480EF221A
:08051E00E493F608A3D9F922C9
:1005260085374E718EE53728F5381538A838860197
:10053600E964207009C3E5389537400280ECE53858
:080546002401F87600A8372219
:10054E0075380075390085373A85373BA83A8601EC
:10055E00E964207008E53845397002800E7538015F
:10056E00753900A83AA93BE6F7053BA83A053A8645
:07057E0001E970D8A8372243
:10058500753B00753C0085373DE53733E495E0F56F
:100595003EC374006480F8E5376480985020740188
:1005A500253BF53B7400353CF53CA837E53733E48E
:1005B50095E0F9C3740098F53D740099F53E853DC5
:1005C5004E85384F5182753904753A00D3E5399413
:1005D50000E53A94004025E5382539F8C3E5399416
:1005E50001F9E53A9400FAE53829F9E7F6C3E53962
:1005F5009401F539E53A9400F53A80D0A83876208B
:10060500E53B453C6034753900753A00E5382539D8
:10061500F88601E96420700E74012539F5397400F6
:10062500353AF53A80E6C3E5399401F539E53A946A
:0B06350000F53AE5382539F8762D2253
:10064000753800D3E5379409402375F00AE53784FF
:10065000F98501387804E9088002C333D8FCF538FD
:1006600075F00AE53784E5F0F842388003853738BD
:03067000A8382285
:10067300753900753A007CE87D03A837A93811A6BF
:100683007C0CAB01E80C8005C333CB33CBDCF9FA2C
:100693004239EB423A7CE87D0371AAC3E53798F807
:1006A300E53899F98500378501387C647D0011A60A
:1006B300AB007A00EA4239EB423A7C647D0071AACE
:1006C300C3E53798F8E53899F98500378501387C13
:1006D3000A7D0011A67C04AB01E80C8005C333CB73
:1006E30033CBDCF9FA4239EB423A7C0A7D0071AA3A
:1006F300C3E53798F8E53899F9850037850138E57A
:0E070300394200E53A420185003985013A226B
:10071100753900753A007A0CE538A8370A8005C3A7
:1007210013C813C8DAF9F97CE87D0371AA85003989
:1007310085013AE5375400F8E538540FF9A80179F5
:10074100007C647D0071AAE53928F539E53A39F56F
:100751003A74F05537FB74005538FC7A04ECA80361
:100761000A8005C313C813C8DAF9F97C0A7D007140
:10077100AAE53928FAE53A39FB85023985033A7445
:100781000F5537F874005538F9EA28F8EB39F9852F
:06079100003985013A2247
:10079700753C00753D0085373E85383FC3E5379486
:1007A7000074006480F8E5386480985013753C0144
:1007B700753D00C374009537F53E74009538F53FD5
:1007C700853E4E853F4F85395051C7753A06753B73
:1007D70000D3E53A9400E53B94004025E539253AF6
:1007E700F8C3E53A9401F9E53B9400FAE53929F9AC
:1007F700E7F6C3E53A9401F53AE53B9400F53B800B
:10080700D0A8397620E53C453D6034753A00753B04
:1008170000E539253AF88601E96420700E74012550
:100827003AF53A7400353BF53B80E6C3E53A940167
:10083700F53AE53B9400F53BE539253AF8762D2264
:10084700753E00753F0085374085384185394285BB
:100857003A43C3E5379400E5389400E539940074CA
:10086700006480F8E53A648098501F753E01753F33
:1008770000C374009537F54074009538F54174004E
:100887009539F5427400953AF54385404E85414FB9
:10089700854250854351853B521201E6753C0B75E5
:1008A7003D00D3E53C9400E53D94004025E53B251C
:1008B7003CF8C3E53C9401F9E53D9400FAE53B2992
:1008C700F9E7F6C3E53C9401F53CE53D9400F53DB9
:1008D70080D0A83B7620E53E453F6034753C0075E7
:1008E7003D00E53B253CF88601E96420700E740164
:1008F700253CF53C7400353DF53D80E6C3E53C9469
:1009070001F53CE53D9400F53DE53B253CF8762DAA
:0109170022BD
:1009180075460075470085374A85384B85394C85BB
:100928003A4DE54A64FF7010E54B64FF700AE54CE8
:1009380064FF7004E54D64FF7018853B4E753C4EAE
:10094800753D61753E4E753F00754F3C1201D1787B
:100958000322754801E54D54806010E54D6480F828
:1009680085004D0548A83B762D053BE54A454B4596
:100978004C454D7012853B4E754030754100754FA2
:10098800401201D1780022E54A64007010E54B64FA
:1009980000700AE54C64807004E54D647F7018852A
:1009A8003B4E75424975434E754446754500754F33
:1009B800421201D1A84822C37C007D007E807507C1
:1009C8003FA84AA94BAA4CAB4D12031E400478001D
:1009D80080027801E86024A84AA94BAA4CAB4D7C58
:1009E800007D007E207507411203CF85004A8501EE
:1009F8004B85024C85034D154780BCC37C007D00A8
:100A08007E20750741A84AA94BAA4CAB4D12031E7C
:100A18005004780080027801E86024A84AA94BAA0B
:100A28004CAB4D7CCD7DCC7ECC75073D1203CF857C
:100A3800004A85014B85024C85034D054780BC7CE7
:100A480001A84AA94BAA4CAB4D1203BC85004A85A4
:100A5800014B85024C85034DC3E54D947FF8850015
:100A680049754D01AC00A84AA94BAA4CAB4D1203DD
:100A7800BC85004A85014B85024C85034D743025A1
:100A88004DF9A83BA601053BC374016480F8E5470E
:100A9800648098400FD374066480F8E547648098B2
:100AA80050028009A83B762E053B7546017549061C
:100AB800E54970026125754D007C02A84AA94BAA38
:100AC8004CAB4D1203BCE54A28F8E54B39F9E54C27
:100AD8003AFAE54D3BFB85004A85014B85024C857A
:100AE800034D7C01A84AA94BAA4CAB4D1203BC8507
:100AF800004A85014B85024C85034D7430254DF91C
:100B0800A83BA601053BE546700F1547E547700968
:100B1800A83B762E053B754601154941B8E53B24AF
:100B2800FFF88601E964307004153B80F0E53B244A
:100B3800FFF88601E9642E7002153BE547604EA870
:100B48003B7665053BC374006480F8E5476480988C
:100B5800500DA83B762D053BC374009547F5478596
:100B68004749D3E5479409401175F00AE54984F8E7
:100B7800743028F9A83BA601053B75F00AE54984BD
:100B8800E5F0F8743028F9A83BA601053BA83B76A8
:040B980000780022BF
:100B9C0075818075820A75830D7819791E12051E70
:100BAC0075371912052675372D12054E754EEA75D7
:100BBC004F0B120282754EB0754F0175500B12021D
:100BCC00C7754E2F754F1675500B1202C7754EFF19
:100BDC00754FFF75500B1202C775370C75380B1219
:100BEC0005857537FF75380B120585753781753896
:100BFC000B1205857537C875380475390B120797B4
:100C0C007537FF7538FF75390B12079775370D75EA
:100C1C0038CE75390B120797754E0C754F00755001
:100C2C000075510075520B1201E6754EFF754FFFA2
:100C3C007550FF7551FF75520B1201E675370C7527
:100C4C003800753900753A00753B0B11477537FF45
:100C5C007538FF7539FF753AFF753B0B11477537C2
:100C6C00FF7538FF7539FF753A7F753B0B1147756A
:100C7C00374E7538227539F7753A42753B0B31187A
:100C8C0075374E7538227539F7753AC2753B0B318D
:100C9C001875370275387A753955753A55753B0B99
:100CAC0031187537A175385375396B753A3A753BF0
:100CBC000B311875370275387A753955753AD57503
:100CCC003B0B31187537A175385375396B753ABABA
:100CDC00753B0B311875371712064085000A7537AE
:100CEC0029753809120673850008850109753725A1
:0E0CFC0075384312071185000885010980FE36
:100D0A00206D696B726F656C656B74726F6E696B5F
:040D1A006120200034
:0A0D1E00206D696B726F65202000E4
:040D28004E614E00CA
:020D2C00300095
:040D2E00494E4600E4
:010D320000C0
:010D330000BF
:00000001FF
