:100000000203D00200000000000000020000000017
:1000100000000002000000000000000200000000DC
:0E0020000000000200000000000000020000CE
:0A002E007E097FE9DFFEDEFC002200
:020038000022A4
:06003A007F03DFFE00223F
:060040007F14DFFE002228
:10004600751200751300C3E50E92E0F50E30800AB6
:10005600E50E30E00378FF2280F320800AE50E30BB
:10006600E00378FF2280F30512113AE50E30E00333
:1000760078FF222080F120800AE50E30E00378FF29
:100086002280F30513113AE50E30E00378FF2220B3
:1000960080F17802E512088002C313D8FCF97802D1
:1000A600E513088002C313D8FCF514E51229FAE417
:1000B60033FBA913C3EA99E46480F8EB6480985093
:1000C6000CD3E5129400400385120D8021E513251B
:1000D60014FAE433FBA912C3EA99E46480F8EB64EA
:1000E6008098500AD3E5139400400385130D7801D8
:0E00F600E50D088002C333D8FCF50CA80D22DE
:10010400E5125480F8630080E86004780080027887
:1001140001E81392A5E5125440F8630040E8600436
:10012400780080027801E81392A4E5125420F86361
:100134000020E86004780080027801E81392A3E5C7
:10014400125410F8630010E860047800800278010B
:10015400E81392A2E5096004780080027801E813AC
:1001640092A0D2A11138C2A1E5125408F863000884
:10017400E86004780080027801E81392A5E512543F
:1001840004F8630004E86004780080027801E8134E
:1001940092A4E5125402F8630002E8600478008037
:1001A400027801E81392A3E5125401F8630001E810
:1001B4006004780080027801E81392A2E5096004E3
:1001C400780080027801E81392A0D2A11138C2A16C
:0B01D400E5096004112E80021140229A
:1001DF00C2A1C2A0112E112E112EC2A5C2A4C2A35C
:1001EF00C2A2D2A3D2A2D2A11138C2A1112ED2A1E2
:1001FF001138C2A1112ED2A11138C2A1112ED2A332
:10020F00C2A2D2A11138C2A1112EC2A5C2A4C2A3EB
:10021F00D2A3C2A2D2A11138C2A1C2A3D2A5D2A188
:10022F001138C2A1112EC2A5D2A2D2A11138C2A1DA
:10023F00C2A2D2A11138C2A1112EC2A2D2A11138CD
:10024F00C2A1D2A2D2A11138C2A1112EC2A2D2A193
:10025F001138C2A1D2A5D2A4D2A3D2A2D2A1113851
:08026F00C2A1112E7509012244
:10027700750F00751000D2801146850010E87010C8
:10028700050FD3E50F94644005780179002280E8D3
:10029700E51064FF700578FF790022780079002265
:0802A700E493F608A3D9F92243
:0C02AF00750900850F1231047509012249
:1002BB00C3E50E92E0F50E851011A80F7601308084
:1002CB000EE50E30E007A80F76FF78002280EF20B6
:1002DB00800EE50E30E007A80F76FF78002280EF46
:1002EB007801E50D088002C313D8FCF5100000114E
:1002FB003A1510E51070F6208003780022850C105B
:10030B000000113A1510E51070F6208003780022DA
:10031B00850C100000113A1510E51070F6308003B3
:10032B00780022751100850C100000113A1510E5AC
:10033B001070F6308003431180850C100000113AC9
:10034B001510E51070F6308003431140850C10003A
:10035B0000113A1510E51070F6308003431120851B
:10036B000C100000113A1510E51070F630800343A5
:10037B001110850C100000113A1510E51070F630B5
:10038B008003431108850C100000113A1510E5107D
:10039B0070F6308003431104850C100000113A15E0
:1003AB0010E51070F6308003431102850C1000002D
:1003BB00113A1510E51070F6308003431101A80FA8
:0503CB007600A81122DC
:1003D000758180750B0031DF75120131045177751D
:1003E00012803104750F0A51BB850008E8640B7058
:1003F000028008E50A6002800280E9750F0A51BB9D
:10040000850008E50A6018750F3F51AF050BD3E56D
:100410000B941440081146850008750B00800BE50D
:1004200008640E600585080F51AF7E297F86DFFEC8
:0D043000DEFC00E508640E70C280A480FEB2
:00000001FF
