:100000000200920200000000000000020000000058
:1000100000000002000000000000000200000000DC
:0E0020000000000200000000000000020000CE
:0D002E00C29985159920990280FBC2992284
:06003B00A298E433F82254
:05004100C298A89922FD
:10004600751300A8128614E5146010851415112E78
:0C0056000513E5122513F8861480EC2237
:08006200E493F608A3D9F9228A
:10006A0075082E750900750A15750C41750D007510
:10007A000E00750F3B751000751100759850758745
:08008A00807588407589202271
:100092007581801200CA438780758DF5758BF511C5
:1000A2006A7EA37F1EDFFEDEFC0075123011461150
:1000B2003BE8600A114185000B850015112E80EF87
:0200C20080FEBE
:0E00CA00783079067582C475830012006222B8
:0600C40053746172740028
:00000001FF
