:100000000205B30200000000000000020000000032
:1000100000000002000000000000000200000000DC
:1000200000000002000000000000000200000000CC
:1000300000000002000000000000000200000000BC
:1000400000000002000000000000000200000000AC
:10005000000000020000000000000002000000009C
:10006000000000020000000000000000000000008E
:10007000000000020000000000000002000000007C
:10008000000000020000000000000002000000006C
:10009000000000020000000000000002000000005C
:0600A00000000002000058
:0700A6007F07DFFE000022CE
:0500AD00C000C00122AB
:1000B200758400C2FF851F9B20FF0280FBA89B2244
:1000C2007901E51C098002C333D9FCF885001CC202
:1000D20085430040E854FEF9A80AA60108A808A929
:1000E2000911ADA80AA61D08A808A90911ADA80AF8
:1000F200A61E08A808A90911ADD28511A611A6113C
:02010200A62233
:0C01040085191C751D15851A1E11C222DC
:100110007901E519098002C333D9FCF8850019C2B9
:1001200085430040E84401F9A80AA60108A808A9E7
:100130000911ADA80AA61A08A808A90911ADA80AAC
:10014000760008A808A90911AD85001BD28511A663
:0701500011A611A6A81B2255
:090157007EAF7FFFDFFEDEFC221B
:090160007E027F96DFFEDEFC2228
:10016900850B19751A1531108500185300F785008C
:1001790018850B1985001A3104E51854FBF8850018
:1001890018850B1985001A3104E518540FF98501F2
:1001990018E51754F0F8E94200850018850B198510
:1001A900001A3104E50C60055318FB800343180459
:1001B900850B1985181A3104E5184408F8850018C3
:1001C900850B1985001A310411A6E51854F7F8852D
:1001D9000018850B1985001A3104E51854FBF885B8
:1001E9000018850B1985001A310453180FE51754A7
:1001F9000FFA7904EA098002C333D9FCF84218E5F9
:100209000C60055318FB8003431804850B198518E6
:100219001A3104E5184408F8850018850B1985007A
:100229001A310411A6E51854F7F8850018850B1939
:1002390085001A3104E50C600431578002316022CF
:0C02490085151C751D0185161E11C222B2
:10025500D284D285C28411A611A6D28411A6C285E4
:1002650074404515F854FEF9A80AA60108A808A97E
:100275000911ADA80A760A08A808A90911ADA80AA6
:10028500760808A808A90911ADD28511A611A611ED
:02029500A6229F
:0C029700750C008515173169750C0122EB
:1002A3007508B2750900750A1F750EFF750FFF7586
:1002B30010FF75840F43E10243E340758400759A90
:0402C30040D2F8220B
:0802C700E493F608A3D9F92223
:1002CF0085110B8511155155315731573157850B05
:1002DF0019751A1531108500125300038500128508
:1002EF000B1985001A3104850B19751A0131108508
:1002FF000012530003850012850B15850016514916
:10030F00850B19751A1531108500124300308500C1
:10031F0012850B1985001A3104E5124408F885007F
:10032F0012850B1985001A3104E51254F7F8850070
:10033F0012850B1985001A31043157E5124408F85C
:10034F00850012850B1985001A3104E51254F7F850
:10035F00850012850B1985001A31043157E51244B7
:10036F0008F8850012850B1985001A3104E512541F
:10037F00F7F8850012850B1985001A31043157E5FE
:10038F00124420F88500125300EF850012850B19D7
:10039F0085001A3104E5124408F8850012850B19FF
:1003AF0085001A3104E51254F7F8850012850B19F0
:1003BF0085001A31043157E5124408F8850012857B
:1003CF000B1985001A3104E51254F7F885001285D0
:1003DF000B1985001A3104E51254DFF8850012431A
:1003EF000080850012850B1985001A3104E512442F
:1003FF0008F8850012850B1985001A3104E512548F
:10040F00F7F8850012850B1985001A31043157E56D
:10041F0012547FF8850012430010850012850B19C6
:10042F0085001A3104E5124408F8850012850B196E
:10043F0085001A3104E51254F7F8850012850B195F
:10044F0085001A3104E51254EFF8850012850B1957
:10045F0085001A3104E5124408F8850012850B193E
:10046F0085001A3104E51254F7F8850012850B192F
:10047F0085001A31043157E5124408F885001285BA
:10048F000B1985001A3104E51254F7F8850012850F
:10049F000B1985001A3104E5124410F885001285F6
:1004AF000B1985001A3104E5124408F885001285EE
:1004BF000B1985001A3104E51254F7F885001285DF
:1004CF000B1985001A31043157E51254EFF88500E6
:1004DF0012850B1985001A3104E5124408F88500BE
:1004EF0012850B1985001A3104E51254F7F88500AF
:1004FF0012850B1985001A3104E51244F0F88500B6
:10050F0012850B1985001A3104E5124408F885008D
:10051F0012850B1985001A3104E51254F7F885007E
:0F052F0012850B1985001A31043157750C012202
:10053E008019751180802E7511C0802975119480D7
:10054E00247511D4801F751180801AE51164016025
:10055E00E1E511640260E0E511640360DFE511641A
:10056E000460DE80E1C3E5129401F8E51128F885F8
:10057E0000118500173169750C00751400E51325FF
:10058E0014F8E6600DE5132514F886155197051439
:06059E0080EB750C012248
:0F05A4007D3F7E257FEBDFFEDEFCDDFA000022CF
:1005B30075818012068E75FFDE75FFAD75840F752C
:1005C3008A8375840075EF0475840F758C60438C82
:1005D300077EA07F15DFFEDEFC0000E58C5480F96A
:1005E3006480600280F575970175E34043A4357517
:1005F3008400759D7A51A375110051CF7517013190
:100603006975170C3169751101751206751342B1BD
:100613003E7515215197751102751201854113B16C
:100623003E7DF97E947FB5DFFEDEFCDDFA000075CA
:100633000D00C3E50D9404500B75171C3169B1A46B
:10064300050D80EE750D00C3E50D9408500B75176D
:10065300183169B1A4050D80EE750D00C3E50D9445
:1006630008500B75171C3169B1A4050D80EE80D4B9
:0206730080FE07
:0E068E00783079197582757583061202C722BD
:100675006D696B726F456C656B74726F6E696B61DA
:010685000074
:010686003043
:070687006D696B726F450005
:00000001FF
