:100000000202F702000000000000000200000000F1
:1000100000000002000000000000000200000000DC
:0E0020000000000203FC0000000000020000CF
:05002E00C000C001222A
:0D003300C299852E9920990280FBC2992266
:06004000A298E433F8224F
:05004600C298A89922F8
:10004B00A818A919112EE8700122A81BA91C112EA2
:10005B0085001F21ACE51F64967006750802751E9E
:10006B000021E4851F20750803E52F2406F8A61F41
:10007B00E51F621E21E4E51F5480F97031E51F5422
:10008B0040600CE52F2406F8E5206401F9A60185F4
:10009B001F23E51F621EE51F5403F9850122E9703A
:1000AB00057508058006752101750804800AE52F82
:1000BB002405F876FF75080121E4E51F64A9700C8F
:1000CB00E52F2405F876FF75080121E4C3E5229599
:1000DB0021F8E494006018C3E5219401F8E494003E
:1000EB00F9E52F28F8A61FE51F621E05218017C30F
:1000FB00E5219401F8E49400F9E52F28F8A61F7583
:10010B000805E51F621E21E4E51E64FFF985011E4B
:10011B00E964966008E51E64A960028002051EE58D
:10012B001E651F7005750806800AE52F2405F876F5
:10013B00FF75080121E4E51F64A97048750801E506
:10014B002F2404F876FFE52F2403F8A6227521014E
:10015B00D3E5219522502BA9217402098002C333C8
:10016B00D9FCF8E5235200E86014C3E5219401F8AB
:10017B00E49400F9E52F28F8E66401F9A6010521BE
:10018B0080CE800AE52F2405F876FF75080180499B
:10019B00E52F2405F876FF750801803D7508018071
:1001AB0038E508640170020160E508640270020121
:1001BB006EE508640370020181E5086404700201B6
:1001CB00C5E508640570022113E508640670022179
:0A01DB0041E508640760B980C32203
:0801E500E493F608A3D9F92206
:1001ED00750933750A00750B2E751B46751C007548
:1001FD001D00751840751900751A00759850758792
:08020D008075884075892022EC
:10021500D2B285292DA80B769608A809A90A112E10
:10022500E52A64966008E52A64A960028006632AC7
:1002350001432940A80BA62A08A809A90A112E15C9
:100245002D752B00D3E52B952D5037E528252BF85B
:100255008601E96496600EE528252BF88601E96498
:10026500A960028019E528252BF8E66401F9A601A5
:10027500A92B7404098002C333D9FCF84229052B44
:1002850080C2432980A80BA62908A809A90A112E0E
:10029500E529652AF52C752B00D3E52B952D501CEA
:1002A500E528252BF8E6622CA90BE6F7E92401F8E9
:1002B500A900A809A90A112E052B80DDE52C64FFEC
:1002C500F985012CE964966008E52C64A960028033
:1002D50002052CA80BA62C08A809A90A112EA80B03
:0C02E50076A908A809A90A112EC2B222AD
:0602F100C2B275080122F3
:1002F70075818075240075250075260075270075A2
:100307008000759000438780758DF5758BF531ED0D
:100317007EA37F1EDFFEDEFC0051F1750DAA750E70
:10032700F0750F0F75110075120075130075280D04
:10033700752901752AA05115D2ACC298D2AF7401A4
:100347002524F52474003525F52574003526F52672
:1003570074003527F527E51260037590AAE511604B
:100367004675240075250075260075270075110050
:10037700851017750C01D3E50C95105014C3E50CC7
:100387009401F8E49400F9740D28F88680050C8030
:10039700E5050D7E027F9DDFFEDEFC0075280D75ED
:1003A7002901752AA05115D3E52494A0E525948643
:1003B700E526940174006480F8E52764809840314D
:1003C700E5A02401F88500A0752400752500752691
:1003D7000075270075280D752901752AA05115D3B9
:1003E700E5A0940A400B75280D752901752A32512D
:0503F70015614580FEC8
:1003FC00C000C001C0D0C0E0C0F0C082C083C2AF9A
:10040C00309807752F0D114BC298D2AFD083D08284
:0B041C00D0F0D0E0D0D0D001D00032F2
:00000001FF
